:020000041000EA
:1000000000B5324B212058609868022188439860DF
:10001000D860186158612E4B002199600221596106
:100020000121F02299502B49196001219960352056
:1000300000F044F80222904214D00621196600F024
:1000400034F8196E01211966002018661A6600F04E
:100050002CF8196E196E196E052000F02FF8012189
:100060000842F9D1002199601B49196000215960AB
:100070001A491B48016001219960EB211966A021F2
:10008000196600F012F800219960164914480160C1
:100090000121996001BC002800D000471248134993
:1000A000086003C880F30888084703B5996A0420EC
:1000B0000142FBD001200142F8D103BD02B5186610
:1000C0001866FFF7F2FF186E186E02BD00000240BE
:1000D000000000180000070000035F00212200005C
:1000E000F4000018222000A00001001008ED00E03C
:1000F00000000000000000000000000074B24E7A12
:1001000000200420F7010010C3010010C5010010F9
:10011000C1010010C1010010C1010010C101001097
:10012000C1010010C1010010C1010010C701001081
:10013000C1010010C1010010C9010010CB01001065
:10014000CD010010CD010010CD010010CD01001037
:10015000CD010010CD010010CD010010CD01001027
:10016000CD010010CD010010CD010010CD01001017
:10017000CD010010CD010010CD010010CD01001007
:10018000CD010010CD010010CD010010CD010010F7
:10019000CD010010CD010010CD010010CD010010E7
:1001A000CD010010CD010010CD010010CD010010D7
:1001B000CD010010CD010010CD010010CD010010C7
:1001C00000BE00BE00BE00BE00BE00BE00F04BF888
:1001D000103800BEF2EB887118A9031038A903107B
:1001E0003402001090A31AE700202149086006C8D5
:1001F00081F3088810471F48006800282FD10DA4FC
:100200000ECC002902D000F012F8F9E71A491B4A77
:10021000002000E001C19142FCD1194988471949E9
:1002200088471949884700BEFDE701C901C29A42C3
:10023000FBD3704738A90310C0000020187E0020AF
:1002400090260410000004200000042090260410D2
:1002500000100420001004200000000070470B482C
:1002600006F0A4F80047EFF30580C0B27047000025
:1002700008ED00E0000000D0187E00207C8F0020F8
:10028000494C001049070010094C00105756000057
:1002900006005250ABB36053148C0310060052504A
:1002A000861C0302248C0310060052505422A29D87
:1002B0002C8C031005005250DE65F4689026041063
:1002C000F8B5C04606480749091A8B10C90FC91866
:1002D00010B5491003D0044B002B00D0984710BD37
:1002E000187E0020187E002000000000054B10B58D
:1002F000002B03D00449054800E000BFFFF7E2FFF0
:1003000010BDC046000000008C8C00206800011069
:10031000F0B50B4E840023189B0000259D51231837
:100320009B00B44663449D60DD608D681D614D682F
:100330005D600B6813432418A400A351F0BDC046B0
:100340000000054000230360436083601033436076
:10035000014B83607047C046FFFF000083001B18FD
:100360009B000B488446634400290CD01020824037
:1003700000290AD00749186842400A4080214901F3
:100380000B431A6070470800F1E70349F3E7C046E2
:100390000C0005400000FFFFFFFF000010B50F4AF2
:1003A000A4230121D1500E4C23689B100D4A5B0001
:1003B0001268D25A00210020FFF7D0FF0A4B1B8899
:1003C0009B00013B2268934203DD054B01321A601A
:1003D00010BD034B00221A60FAE7C046000005403A
:1003E0005C8700200C860020628F0020F0B5C64696
:1003F00000B584B004000E0017001D0003F0B6FE27
:100400008046E117FA2292000023200006F068FEE1
:1004100002000B00029501970096404603F0B2FFE0
:1004200004B080BCB846F0BD002303624362816221
:10043000704770B504000D00066A701CA16A06F0D2
:1004400009F8636A8B4201D0A555216270BD000096
:1004500070B5404B00221A706AE09A00D2188218D8
:100460003D4901248C543D498A5C002A43D03C4AD2
:10047000013313703A4B1B78042B30D8394A99005A
:100480008A58D02109064968D14001220A403649DC
:100490000A60E2D19A00D21882182F4900248C54A5
:1004A0002E498A5C012AE2D1304807F0A5F82C4D8C
:1004B0002B7899005918C9B2264C2378C918C9B2AB
:1004C0002B48FFF7B6FF2B4B01221A702B789A00AE
:1004D000D21823789B18204AD15C204AD1541D4B56
:1004E0001A78254B9100C95801238B40D021090669
:1004F0008B61002317E099005918C9B20918C9B2D5
:100500001B48FFF796FF1B4B01221A70144B1B78F8
:100510009A00D2180F4B1B789B180F4AD15C0F4AD8
:10052000D154DCE70133632BFCDD0A4B01321A7036
:10053000084B187804280BD80F4B8200D25801239F
:100540009340D02212065361054B00221A7091E7A6
:10055000012070BD6E8F002010870020B48C002019
:10056000778F0020E8060020288D00206800011009
:10057000DC8C00206C8F00200007002070B5040088
:10058000036A406A834207D0255C0130A16A05F006
:1005900061FF6162280070BD4525FBE730B583B07F
:1005A0001F4C200002F0A2F81E4A1F4D00952300A8
:1005B0000A21052002F0DAFB1C4A009523001E21C7
:1005C000052002F0D3FB1A4A0095230032210520B2
:1005D00002F0CCFB174A009523004621052002F0CB
:1005E000C5FB154A009523005A21052002F0BEFBE9
:1005F000124A009523006E21052002F0B7FB104A35
:10060000009523008221052002F0B0FB002100208C
:1006100002F0C2FC0B4802F02DFD03B030BDC04615
:100620001FF8000074000110FFFF00008800011097
:100630009C000110A8000110B4000110C0000110BE
:10064000CC000110D8000110F0B5D6464F46464602
:10065000C0B580468C46914619000898002721E0D5
:100660005C1E154A6500AD5A5B009D522300002BAD
:10067000F6DC7B009A46434652469A5A0E4B1A8045
:100680000025002208E0865C0B4B5400E35A7343BC
:100690009BB25D19ADB201328A42F4DB6346524629
:1006A0009D5201374F4502DA4B46013BDFE7E0BC84
:1006B000BA46B146A846F0BDA087002010B5040098
:1006C0000100042002F0E2FE2100002002F0DEFE24
:1006D0002100012002F0DAFE2100022002F0D6FE05
:1006E0002100032002F0D2FE10BD000070B50025ED
:1006F0000CE0134CAE00305902F09EFD325901233C
:100700009340D0221206536293610135042DF0DD2F
:1007100000250FE00B4CAE00305902F08DFD305932
:1007200001238340D022120693620122002102F0AD
:1007300059FD0135042DEDDD0120FFF7BFFF70BD30
:1007400000070020E8060020F0B5DE4657464E467A
:100750004546E0B5FB4CA544AA220021FA4802AB6D
:100760009C46604406F094FDA0220021F74802ABAD
:100770009C46604406F08CFD96220021F44802ABB2
:100780009C46604406F084FD8E220021F14802ABB5
:100790009C46604406F07CFD86220021EE4802ABB8
:1007A0009C46604406F074FD80220021EB4802ABB9
:1007B0009C46604406F06CFD78220021E84802ABBC
:1007C0009C46604406F064FD72220021E54802ABBD
:1007D0009C46604406F05CFD6A220021E24802ABC0
:1007E0009C46604406F054FD66220021DF4802ABBF
:1007F0009C46604406F04CFD60220021DC4802ABC0
:100800009C46604406F044FD5A220021D94802ABC0
:100810009C46604406F03CFD562200219D2040018C
:1008200002AB9C46604406F033FDAA220021D24868
:1008300002AB9C46604406F02BFDA0220021CF486D
:1008400002AB9C46604406F023FD96220021CC4872
:1008500002AB9C46604406F01BFD8E220021C94875
:1008600002AB9C46604406F013FD86220021C64878
:1008700002AB9C46604406F00BFD80220021C34879
:1008800002AB9C46604406F003FD78220021C0487C
:1008900002AB9C46604406F0FBFC72220021BD487E
:1008A00002AB9C46604406F0F3FC6A220021BA4881
:1008B00002AB9C46604406F0EBFC66220021B74880
:1008C00002AB9C46604406F0E3FC60220021B44881
:1008D00002AB9C46604406F0DBFC5A220021B14882
:1008E00002AB9C46604406F0D3FC56220021D52082
:1008F000000102AB9C46604406F0CAFCAA2200211B
:10090000A94802AB9C46604406F0C2FCA74A0021FD
:10091000A1A806F0BDFC9CAAA54B31CB31C21100A9
:100920001A680A609A888A809B798B7197AAA14B72
:1009300031CB31C211001A680A601B790B7192AA7F
:100940009D4B31CB31C211001A680A609A888A80A7
:100950009B798B7106F05CFE98498CAB00223220AB
:10096000FFF744FD96481E22002106F091FC9548B1
:100970001E22002106F08CFC93481022002106F074
:1009800087FC92482021FFF74FFD0421102002F040
:1009900011FC01248E4AA423D4508E4B1C608E4936
:1009A000042002F09DFD0021042002F06FFD89A8C3
:1009B000FFF7C8FC58238A93A6338B93012289A999
:1009C0000020FFF7A5FC002200210020FFF7C6FC55
:1009D000FFF78CFE01F0C8FEA02676007F48F023CA
:1009E000009333000022002101F0FCFF102001F0F1
:1009F00011FE029402250195794B0093F0233200F9
:100A0000B421002002F0F2F8112001F003FE91223F
:100A10000023029301950093C8335200B4211E2095
:100A200002F0E4F802940195F82636020096C623F7
:100A30006022B621202002F0D9F8FA277F00380082
:100A400003F033FD6748072102F072FB0294019521
:100A50000096C623A022B621202002F0C7F8380055
:100A600003F023FD02F008FA029401950096C623D4
:100A7000E022B621202002F0B9F8380003F015FD7D
:100A80009022029401950096C6235200B6212020A0
:100A900002F0ACF80DF0BEFF002800D1B9E05249D9
:100AA0000122524802AB9C4660440CF0A5F9011E9D
:100AB00000D0B2E04E494F4809F0D0FBFA24640060
:100AC000200003F0F2FC4C4E300001F00FFE20003D
:100AD00003F0EBFCFFF762FD0021002002F05CFA5E
:100AE000464802F0C7FA00240294022501950096B8
:100AF0005A23C8224721272002F078F80294019552
:100B000000944623C8223321272002F06FF80822E0
:100B1000002187A806F0BCFB7F2302AA384952189F
:100B200013707C3B02AA37495218137087A802F051
:100B300097F9002107A802F03AF9012398460534F5
:100B4000002361E02CBAFFFF44190000A418000044
:100B50000C1800007C170000F4160000741600004A
:100B6000FC150000881500001C150000B4140000DE
:100B700054140000F8130000F41200005412000096
:100B8000BC1100002C110000A41000002410000073
:100B9000AC0F0000380F0000CC0E0000640E000007
:100BA000040E0000A80D0000A40C0000280A00009C
:100BB00024030110380301104C03011051040010EC
:100BC00010870020B48C0020088D0020DC8C0020D1
:100BD00000000540A82005409D03001058040110A6
:100BE000FFFF00007C88002014010110604300001A
:100BF0004059730700C003401FF800004401011072
:100C000015020000170200009B460027059301F023
:100C100037F9E44806F0BEFC41E7E34806F0ECFC97
:100C200048E7052C19D0E1482021FFF7FDFBE04BF8
:100C3000FF221A702500DE4BFF221A70DD4B0022C6
:100C40001A70AC4201D101F014F9052D01D901F05F
:100C50002EF9AB00D84AD3589F460021042002F059
:100C600015FCD64BD64A1A80D64BD74A1A600021BB
:100C700007A802F09CF80021080002F08DF9D34883
:100C800002F0F8F90121042002F000FCCBE7042C6B
:100C900008D80525C5482021FFF7C6FBC44BFF2215
:100CA0001A70C8E72500F5E7052C08D0BF482021B9
:100CB000FFF7BAFBBE4BFF221A702500BBE75B466D
:100CC000002BF3D05D46DBB298466B1E9BB2994673
:100CD0000020FFF7F3FCE9B2142569430B0046330B
:100CE0003331002292460292023293460192B84A70
:100CF0000092C822272001F079FF4B465D43ADB238
:100D00002B0046339BB23335A9B2524602925A4663
:100D1000019252460092C832272001F067FF01205D
:100D2000FFF7CCFCCB46C1E7052C08D09F4820211B
:100D3000FFF77AFB9E4BFF221A7025007BE75B468C
:100D4000032BF3D85D46DBB298466B1C9BB29946E9
:100D50000020FFF7B3FCE9B2142569430B004633CA
:100D60003331002292460292023293460192984A0F
:100D70000092C822272001F039FF4B465D43ADB2F7
:100D80002B0046339BB23335A9B2524602925A46E3
:100D9000019252460092C832272001F027FF01201D
:100DA000FFF78CFCCB46C1E7052C08D025007F4817
:100DB0002021FFF739FB7E4BFF221A703BE75B4691
:100DC000DDB2F4E70021042002F060FB7D4B814A94
:100DD00002A98C4662441A60784B55221A80002181
:100DE00007A801F0E4FF0021002002F0D5F87A48BE
:100DF00002F040F90121042002F048FB25001AE727
:100E00000021042002F042FB6C4B50221A806D4BF3
:100E1000724A02A98C4662441A60002107A801F0B8
:100E2000C6FF0021002002F0B7F86D4802F022F959
:100E30000121042002F02AFB2500FCE60021042009
:100E400002F024FB5D4B4B221A805E4B654A02A9DF
:100E50008C4662441A60002107A801F0A8FF002117
:100E6000002002F099F8604802F004F90121042002
:100E700002F00CFB2500DEE60021042002F006FB58
:100E80004E4B47221A804F4B584A02A98C46624467
:100E90001A60002107A801F08AFF0021002002F05B
:100EA0007BF8534802F0E6F80121042002F0EEFA44
:100EB0002500C0E60021042002F0E8FA3F4B43225F
:100EC0001A80404B4B4A02A98C4662441A600021AA
:100ED00007A801F06CFF0021002002F05DF84648F1
:100EE00002F0C8F80121042002F0D0FA2500A2E6A1
:100EF0000021042002F0CAFA304B40221A80314B04
:100F00003E4A02A98C4662441A60002107A801F0FB
:100F10004EFF0021002002F03FF8394802F0AAF805
:100F20000121042002F0B2FA250084E60021042009
:100F300002F0ACFA214B3C221A80224B314A02A922
:100F40008C4662441A60002107A801F030FF00219E
:100F5000002002F021F82C4802F08CF80121042036
:100F600002F094FA250066E60021042002F08EFAD1
:100F7000124B39221A80134B244A02A98C46624430
:100F80001A60002107A801F012FF0021002002F0E2
:100F900003F81F4802F06EF80121042002F076FAEF
:100FA000250048E6EC00011018010110DC8C00203F
:100FB0006F8F00206C8F002060030110628F002073
:100FC000B13600000C8600205407002058010110A3
:100FD0001FF80000441900006C010110A418000063
:100FE0007C0101100C180000900101107C1700001A
:100FF000A0010110F4160000B401011074160000E5
:10100000C4010110FC150000D40101108815000076
:10101000E80101100021042002F038FAE14B3522EA
:101020001A80E14BE14A02A98C4662441A60002111
:1010300007A801F0BCFE0021002001F0ADFFDC4854
:1010400002F018F80121042002F020FA2500F2E550
:101050000021042002F01AFAD24B33221A80D24B1C
:10106000D44A02A98C4662441A60002107A801F004
:101070009EFE0021002001F08FFFCF4801F0FAFF13
:101080000121042002F002FA2500D4E50021042009
:1010900002F0FCF9C34B30221A80C34BC74A02A9A5
:1010A0008C4662441A60002107A801F080FE0021EE
:1010B000002001F071FFC24801F0DCFF0121042093
:1010C00002F0E4F92500B6E50021042002F0DEF983
:1010D000B44B2D221A80B44BBA4A02A98C46624402
:1010E0001A60002107A801F062FE0021002001F033
:1010F00053FFB54801F0BEFF0121042002F0C6F9FC
:10110000250098E50021042002F0C0F9A54B2B2210
:101110001A80A54B9D22520102A98C4662441A6096
:10112000002107A801F043FE0021002001F034FF58
:10113000A64801F09FFF0121042002F0A7F9250035
:1011400079E50021042002F0A1F9974BA04A02A9F9
:101150008C4662441A60934B55221A80002100206D
:1011600001F01AFF9B4801F085FF250063E50F2879
:1011700000D99FE08000984B1B589F460021042017
:1011800002F084F9884B924A02A98C4662441A60A4
:10119000250053E50021042002F078F9824B8C4AA7
:1011A00002A98C4662441A60250047E5002104200C
:1011B00002F06CF97C4B864A02A98C4662441A60A4
:1011C00025003BE50021042002F060F9764B804ABF
:1011D00002A98C4662441A6025002FE500210420F4
:1011E00002F054F9704B7A4A02A98C4662441A60A4
:1011F000250023E50021042002F048F96A4B744AD7
:1012000002A98C4662441A60250017E500210420DB
:1012100002F03CF9644B6E4A02A98C4662441A60A3
:1012200025000BE50021042002F030F95E4B684AEE
:1012300002A98C4662441A602500FFE400210420C4
:1012400002F024F9584B624A02A98C4662441A60A3
:101250002500F3E40021042002F018F9524B5C4A07
:1012600002A98C4662441A602500E7E400210420AC
:1012700002F00CF94C4B564A02A98C4662441A60A3
:101280002500DBE40021042002F000F9464B504A1F
:1012900002A98C4662441A602500CFE40021042094
:1012A00002F0F4F8404B4A4A02A98C4662441A60A4
:1012B0002500C3E42500C1E42500C2E40020FFF7B7
:1012C000FDF9FFF76BF914244246624392B2130012
:1012D00046339BB2333291B20022924602920232DE
:1012E000914601923D4A0092C822272001F07EFCDF
:1012F0005B465C43A4B2230046339BB23334A1B2B5
:10130000524602924A46019252460092C832272023
:1013100001F06CFC0120FFF7D1F92C0000F0AAFDD0
:101320000020FFF7CBF9F8242402200001F0DEF9B9
:101330002B4A2C4B009323001E21142001F016FD94
:101340000120FFF7BBF92849284808F087FF012250
:101350009CA98220C00102AB9C4660440BF07CFD3E
:10136000011E1BD122489CA906F046F9214806F02F
:1013700011F900258222D20102AB9C4662441E492B
:101380001E4860440CF002F9002858D01C491B4844
:1013900002AB9C4660440EF08FFB49E0194806F012
:1013A0002BF9FEE7628F00200C8600201C15000040
:1013B000F8010110B41400000C02011054140000D4
:1013C0001C020110F813000030020110400201104D
:1013D000A40C0000D8000110780301101FF80000D1
:1013E00050020110FFFF000040787D0100C0034063
:1013F0008C020110A802011010270000F019000053
:10140000B0020110680201100DF0E4FC741C6423AA
:101410006B439B195B00A1AAD052D24900200EF069
:101420004BFB26000028EFD1CF490EF045FB0135DC
:1014300000289FD0CB490EF03FFB0026F2E7822028
:10144000C00102AB9C4660440CF089F8002308E020
:101450005A00A1A9505AC54902ACA4466144505251
:101460000133542BF4DD00230BE01A0064325200E8
:10147000A1A9505A5900BE4A02ACA44662448852FF
:1014800001334F2BF1DD00230BE01A00C83252006C
:10149000A1A9505A5900B74A02ACA44662448852E6
:1014A00001334A2BF1DD00230CE01A002D32FF320C
:1014B0005200A1A9505A5900AF4A02ACA446624456
:1014C00088520133462BF0DD00230CE01A009132E4
:1014D000FF325200A1A9505A5900A84A02ACA446B2
:1014E000624488520133422BF0DD00230CE01A00E5
:1014F000F532FF325200A1A9505A5900A04A02AC5D
:10150000A4466244885201333F2BF0DD00230CE0F7
:10151000962292009A185200A1A9505A5900994A4D
:1015200002ACA4466244885201333B2BF0DD002319
:101530000CE0AF2292009A185200A1A9505A59000B
:10154000914A02ACA446624488520133382BF0DD44
:1015500000230CE0C82292009A185200A1A9505A08
:1015600059008A4A02ACA446624488520133342BA3
:10157000F0DD00230CE0E12292009A185200A1A9AC
:10158000505A5900824A02ACA44662448852013340
:10159000322BF0DD00230CE0FA2292009A18520060
:1015A000A1A9505A59007B4A02ACA4466244885211
:1015B00001332F2BF0DD00230BE0774A9A185200FD
:1015C000A1A9505A5900754A02ACA44662448852F7
:1015D00001332C2BF1DD00230DE09622D2009A1866
:1015E0005200A1A9505A59009D22520102ACA446B2
:1015F0006244885201332A2BEFDD694805F0CAFFA7
:101600008220C00102AB9C4660440BF0A8FF6548F5
:101610002021FEF709FF6449644808F01FFE64209A
:1016200002F043FF0020FFF749F8FEF7B7FF14244C
:101630004246624392B2130046339BB2333291B2B8
:1016400000250295022292460192594A0092C82230
:10165000272001F0CBFA5B465C43A4B2230046335B
:101660009BB23334A1B20295524601920095C63224
:10167000272001F0BBFA0120FFF720F8052400F035
:10168000F9FB0020FFF71AF81F2001F02FF8494A54
:10169000494B00931F231E21142001F067FB0120FA
:1016A000FFF70CF84549414808F0D8FD012297A9F9
:1016B0008220C00102AB9C4660440BF0CDFB011EB2
:1016C0001BD13F4897A905F097FF3E4805F062FF00
:1016D00000258222D20102AB9C4662443A493B4833
:1016E00060440BF053FF002826D01F49374802AB57
:1016F0009C4660440EF0E0F917E0354805F07CFFA9
:10170000FEE70DF067FB741C64236B439B195B00C1
:10171000A1AAD052134900200EF0CEF926000028CD
:10172000EFD111490EF0C8F901350028D1D00D498B
:101730000EF0C2F90026F2E78220C00102AB9C46FF
:1017400060440BF00CFF002308E05A00A1A9505A96
:10175000064902ACA446614450520133542BF4DDD7
:10176000002343E0B4020110B0020110441900004C
:10177000A41800000C1800007C170000F4160000EC
:1017800074160000FC150000881500001C150000F0
:10179000B4140000541400004C040000F8130000BE
:1017A000B8020110DC8C00204059730700C00340D0
:1017B0001FF80000C0020110FFFF000040787D010B
:1017C0008C020110A802011010270000F01900007F
:1017D000680201101A0064325200A1A9505A59003F
:1017E000D34A02ACA4466244885201334F2BF1DD48
:1017F00000230BE01A00C8325200A1A9505A590028
:10180000CC4A02ACA4466244885201334A2BF1DD33
:1018100000230CE01A002D32FF325200A1A9505AC9
:101820005900C54A02ACA446624488520133462B93
:10183000F0DD00230CE01A009132FF325200A1A922
:10184000505A5900BD4A02ACA44662448852013342
:10185000422BF0DD00230CE01A00F532FF3252007B
:10186000A1A9505A5900B64A02ACA4466244885213
:1018700001333F2BF0DD00230CE0962292009A18F2
:101880005200A1A9505A5900AE4A02ACA446624483
:10189000885201333B2BF0DD00230CE0AF22920095
:1018A0009A185200A1A9505A5900A74A02ACA4465E
:1018B000624488520133382BF0DD00230CE0C8224B
:1018C00092009A185200A1A9505A59009F4A02AC9E
:1018D000A446624488520133342BF0DD00230CE02F
:1018E000E12292009A185200A1A9505A5900984A30
:1018F00002ACA446624488520133322BF0DD00234F
:101900000CE0FA2292009A185200A1A9505A5900EC
:10191000904A02ACA4466244885201332F2BF0DD7A
:1019200000230BE08C4A9A185200A1A9505A590082
:101930008A4A02ACA4466244885201332C2BF1DD62
:1019400000230DE09622D2009A185200A1A9505A05
:1019500059009D22520102ACA446624488520133D0
:101960002A2BEFDD7E4805F015FE8220C00102AB78
:101970009C4660440BF0F3FD7A482021FEF754FDAD
:1019800079497A4808F06AFC642002F08EFD002054
:10199000FEF794FEFEF702FE14244246624392B222
:1019A000130046339BB2333291B2002502950222D6
:1019B000924601926E4A0092C822272001F016F941
:1019C0005B465C43A4B2230046339BB23334A1B2DE
:1019D0000295524601920095C632272001F006F981
:1019E0000120FEF76BFE052444E20020FEF766FEB0
:1019F0001F2000F07BFE5F4A5F4B00931F231E21D8
:101A0000142001F0B3F90120FEF758FE5B49574856
:101A100008F024FC012292A98220C00102AB9C465E
:101A200060440BF019FA011E1BD1554892A905F02C
:101A3000E3FD544805F0AEFD00258222D20102AB41
:101A40009C4662445049514860440BF09FFD002879
:101A500026D04F494D4802AB9C4660440EF02CF80E
:101A600017E04C4805F0C8FDFEE70DF0B3F9741C13
:101A700064236B439B195B00A1AAD0524649002006
:101A80000EF01AF826000028EFD141490EF014F8A4
:101A900001350028D1D040490EF00EF80026F2E7BB
:101AA0008220C00102AB9C4660440BF058FD00232D
:101AB00008E05A00A1A9505A384902ACA446614432
:101AC00050520133542BF4DD00230BE01A00643232
:101AD0005200A1A9505A5900154A02ACA4466244CA
:101AE000885201334F2BF1DD00230BE01A00C8327E
:101AF0005200A1A9505A59000E4A02ACA4466244B1
:101B0000885201334A2BF1DD00230CE01A002D32FC
:101B1000FF325200A1A9505A5900074A02ACA4460C
:101B2000624488520133462BF0DD002345E0C04675
:101B3000A41800000C1800007C170000F416000028
:101B400074160000FC150000881500001C1500002C
:101B5000B4140000541400004C040000F8130000FA
:101B6000B8020110DC8C00204059730700C003400C
:101B70001FF80000C0020110FFFF000040787D0147
:101B80008C020110A802011010270000F0190000BB
:101B9000B002011068020110B402011044190000E3
:101BA0001A009132FF325200A1A9505A5900E24A5C
:101BB00002ACA446624488520133422BF0DD00237C
:101BC0000CE01A00F532FF325200A1A9505A590018
:101BD000DA4A02ACA4466244885201333F2BF0DD5E
:101BE00000230CE0962292009A185200A1A9505AA4
:101BF0005900D34A02ACA4466244885201333B2BBD
:101C0000F0DD00230CE0AF2292009A185200A1A947
:101C1000505A5900CB4A02ACA44662448852013360
:101C2000382BF0DD00230CE0C82292009A185200F5
:101C3000A1A9505A5900C44A02ACA4466244885231
:101C40000133342BF0DD00230CE0E12292009A18DE
:101C50005200A1A9505A5900BC4A02ACA4466244A1
:101C600088520133322BF0DD00230CE0FA2292007F
:101C70009A185200A1A9505A5900B54A02ACA4467C
:101C80006244885201332F2BF0DD00230BE0B14A70
:101C90009A185200A1A9505A5900AF4A02ACA44662
:101CA0006244885201332C2BF1DD00230DE0962293
:101CB000D2009A185200A1A9505A59009D225201EF
:101CC00002ACA4466244885201332A2BEFDDA348BC
:101CD00005F060FC8220C00102AB9C4660440BF022
:101CE0003EFC9F482021FEF79FFB9E499E4808F03E
:101CF000B5FA0020FEF7E2FCFEF750FC1424424641
:101D0000624392B2130046339BB2333291B2002544
:101D10000295022292460192944A0092C8222720FC
:101D200000F064FF5B465C43A4B2230046339BB2E1
:101D30003334A1B20295524601920095C632272053
:101D400000F054FF0120FEF7B9FC052492E00020CA
:101D5000FEF7B4FCFC20C00000F0C8FC059B002B83
:101D600035D0FC23824A83490091DB003C211420BA
:101D700000F0FCFF00230593FEF710FC14244246FC
:101D8000624392B2130046339BB2333291B20025C4
:101D90000295022292460192744A0092C82227209C
:101DA00000F024FF5B465C43A4B2230046339BB2A1
:101DB0003334A1B20295524601920095C6322720D3
:101DC00000F014FF0120FEF779FC052452E0FC230B
:101DD000694A68490091DB003C21142000F0C6FFED
:101DE00001230593C8E70020FEF768FC634800F074
:101DF0007DFC002F33D0624A5E4B00935F4B3C2149
:101E0000142000F0B3FF0027FEF7C8FB142442465D
:101E1000624392B2130046339BB2333291B2002533
:101E20000295022292460192504A0092C82227202F
:101E300000F0DCFE5B465C43A4B2230046339BB259
:101E40003334A1B20295524601920095C632272042
:101E500000F0CCFE0120FEF731FC05240AE0494ADF
:101E6000444B0093454B3C21142000F07FFF012799
:101E7000CAE72C00059B002B1BD1002F00D0ACE142
:101E80003748FEF77BFB404A1070452801D1FFF729
:101E900013FA3E4A125C002A01D1FFF768F91828AC
:101EA00001D9FFF74EF98000394B1B589F462C0093
:101EB000E0E7384B00933B235522374902A884467C
:101EC000614436486044FEF7BFFB002309E05A0036
:101ED000314902A884466144505A30496144505205
:101EE0000133542BF3DD2B4B00933B2350222C4921
:101EF00002A8844661442B486044FEF7A5FB0023FA
:101F000009E05A00264902A884466144505A2549EE
:101F10006144505201334F2BF3DD1E4B00933B23A2
:101F20004B22214902A88446614420486044FEF7C0
:101F30008BFB002346E0C046F41600007416000038
:101F4000FC150000881500001C150000B4140000EA
:101F5000541400004C040000F8130000B8020110F3
:101F6000DC8C00204059730700C003401FF80000BC
:101F7000D4020110FFFF0000E802011030840000CD
:101F8000FC020110100301106F8F00201087002049
:101F9000B80301101C040110F412000044190000E1
:101FA00054120000A4180000BC1100000C1800001E
:101FB0005A00D24902A884466144505AD04961442B
:101FC000505201334A2BF3DDCE4B00933B23472283
:101FD000CD4902A884466144CC486044FEF734FBF6
:101FE000002309E05A00C84902A884466144505AB7
:101FF000C649614450520133462BF3DDC14B009377
:102000003B234322C24902A884466144C14860443C
:10201000FEF71AFB002309E05A00BD4902A88446D6
:102020006144505ABB49614450520133422BF3DDA5
:10203000B44B00933B234022B74902A88446614435
:10204000B6486044FEF700FB002309E05A00B2499D
:1020500002A884466144505AB04961445052013349
:102060003F2BF3DDA74B00933B233C22AC4902A856
:1020700084466144AB486044FEF7E6FA002309E079
:102080005A00A74902A884466144505AA5496144B0
:10209000505201333B2BF3DD9A4B00933B23392203
:1020A000A14902A884466144A0486044FEF7CCFAE6
:1020B000002309E05A009C4902A884466144505A12
:1020C0009A49614450520133382BF3DD8D4B009314
:1020D0003B233522964902A88446614495486044D2
:1020E000FEF7B2FA002309E05A00914902A884469B
:1020F0006144505A8F49614450520133342BF3DD0F
:10210000804B00933B2333228B4902A884466144D1
:102110008A486044FEF798FA002309E05A0086498D
:1021200002A884466144505A8449614450520133A4
:10213000322BF3DD734B00933B233022804902A8FE
:10214000844661447F486044FEF77EFA002309E03C
:102150005A007B4902A884466144505A7949614437
:10216000505201332F2BF3DD664B00933B232D227E
:10217000754902A88446614474486044FEF764FAD5
:10218000002309E05A00704902A884466144505A6D
:102190006E496144505201332C2BF3DD594B0093AF
:1021A0003B232B22D521090102A8844661449D20AE
:1021B00040016044FEF748FA00230BE05A00D521A5
:1021C000090102A884466144505A9D214901614495
:1021D000505201332A2BF1DD4FE65D4B00933D2336
:1021E00055225C4902A8844661445B486044FEF77E
:1021F0002BFA002309E05A00564902A8844661449C
:10220000505A5549614450520133542BF3DD504B21
:1022100000933D235022514902A88446614450480E
:102220006044FEF711FA002309E05A004B4902A866
:1022300084466144505A4A496144505201334F2BFD
:10224000F3DD434B00933D234B222C4902A88446E7
:1022500061442B486044FEF7F7F9002309E05A0077
:10226000264902A884466144505A25496144505287
:1022700001334A2BF3DD364B00933D23472222499D
:1022800002A88446614421486044FEF7DDF900233A
:1022900009E05A001C4902A884466144505A1B496F
:1022A000614450520133462BF3DD294B00933D230B
:1022B0004322174902A88446614416486044FEF749
:1022C000C3F9002309E05A00114902A88446614479
:1022D000505A1049614450520133422BF3DD1C4BDC
:1022E00000933D2340220C4902A8844661440B48D8
:1022F0006044FEF7A9F900233EE0C046BC1100008F
:102300000C1800001C0401102C1100007C170000A8
:10231000A4100000F4160000241000007416000041
:10232000AC0F0000FC150000380F000088150000FD
:10233000CC0E00001C150000640E0000B414000058
:10234000040E000054140000A80D0000F813000053
:1023500014070020F4120000441900005412000079
:10236000A41800005A00634902A884466144505AE8
:1023700061496144505201333F2BF3DD5F4B0093C1
:102380003D233C225E4902A8844661445D48604486
:10239000FEF75AF9002309E05A00594902A8844679
:1023A0006144505A57496144505201333B2BF3DD8D
:1023B000524B00933D233922534902A8844661447D
:1023C00052486044FEF740F9002309E05A004E49A4
:1023D00002A884466144505A4C496144505201332A
:1023E000382BF3DD454B00933D233522484902A8A5
:1023F0008446614447486044FEF726F9002309E01B
:102400005A00434902A884466144505A41496144F4
:1024100050520133342BF3DD384B00933D233322EC
:102420003D4902A8844661443C486044FEF70CF9EB
:10243000002309E05A00384902A884466144505AF2
:102440003649614450520133322BF3DD2B4B00935C
:102450003D233022324902A8844661443148604419
:10246000FEF7F2F8002309E05A002D4902A884463D
:102470006144505A2B496144505201332F2BF3DDF4
:102480001E4B00933D232D22274902A88446614418
:1024900026486044FEF7D8F8002309E05A00224994
:1024A00002A884466144505A204961445052013385
:1024B0002C2BF3DD114B00933D232B22D521090159
:1024C00002A8844661449D2040016044FEF7BCF8A8
:1024D00000230BE05A00D521090102A8844661447B
:1024E000505A9D2149016144505201332A2BF1DD9C
:1024F000C6E4C04624100000741600001407002033
:10250000AC0F0000FC150000380F0000881500001B
:10251000CC0E00001C150000640E0000B414000076
:10252000040E000054140000A80D0000F813000071
:1025300000B583B001A90870012202480DF07CFDAE
:1025400003B000BD00C00340F0B5C64600B582B080
:1025500004000800984608AB1F78002F20D0012FF8
:102560001CD001239B011A4380235B4213436A461C
:10257000D11D0B7001258540D0263606B56101229C
:1025800020000DF059FD3B004246002120000DF0D7
:1025900023FD756102B080BCB846F0BD0023E1E7C1
:1025A00001204042F6E70000F8B504000B4F3B78ED
:1025B00001252A009A40D0263606B261084B1B78C6
:1025C0002A009A407261000AFFF7B2FFE0B2FFF7FB
:1025D000AFFF3B789D407561F8BDC046BB740020DD
:1025E000B774002070B5094E3378012422009A4058
:1025F000D0252D06AA61064B1B7822009A406A61FD
:10260000FFF796FF33789C406C6170BDBB7400206F
:10261000B774002010B5074B1A78012319009140B8
:10262000D02212069161044909788B409361FFF72B
:102630007FFF10BDBB740020B774002070B505008B
:102640000C002A20FFF7E6FF2E0A3000FFF7CAFF32
:10265000EDB22800FFF7C6FF3000FFF7C3FF2800E8
:10266000FFF7C0FF2B20FFF7D5FF250A2800FFF753
:10267000B9FFE4B22000FFF7B5FF2800FFF7B2FF73
:102680002000FFF7AFFF2C20FFF7C4FF70BDF8B5A7
:1026900007000E0015001C002A20FFF7BBFF0020DA
:1026A000FFF7A0FFF8B2FFF79DFF681E0012C0B24F
:1026B000FFF798FFE8B20138C0B2FFF793FF2B2075
:1026C000FFF7A8FF0020FFF78DFFF0B2FFF78AFFAA
:1026D000601E0012C0B2FFF785FFE0B20138C0B241
:1026E000FFF780FF2C20FFF795FFF8BD70B50500C0
:1026F000A022F023520000210020FFF7C8FF0D4B5D
:102700001A7801239340D02212065361002609E073
:10271000280AFFF70DFFE8B2FFF70AFF0134EF2C9C
:10272000F6D90136A0235B009E4201D20024F6E7D1
:1027300070BDC046B774002070B5C82001F0B5FE6A
:10274000084E3378012422009A40D0252D06AA6134
:10275000C82001F0AAFE33789C406C61C82001F0CB
:10276000A4FE70BDB6740020F0B585B004F050FF33
:102770008F4E307800F060FD337801252A009A40B2
:10278000D0242406626262618A4F387800F054FDDA
:102790003B782A009A4062626261874F387800F085
:1027A0004BFD3B782A009A406262A261834C8449C7
:1027B000200007F053FD226807235A40C833134016
:1027C000804A1360804B1878012100F0F3FC7F4BA6
:1027D0001878012100F0EEFC7D4B1878012100F003
:1027E000E9FC3178009502AB00222000FFF7ACFE37
:1027F000FFF7A2FF3620FFF70DFFA020FFF7F2FE44
:102800003A20FFF707FF5520FFF7ECFE0A2001F002
:102810004CFE2120FFF7FEFE2A20FFF7FBFE0020E2
:10282000FFF7E0FE0120FFF7DDFE0020FFF7DAFEF4
:102830003F20FFF7D7FE2B20FFF7ECFE0020FFF72D
:10284000D1FE0020FFF7CEFE0020FFF7CBFEEF20E9
:10285000FFF7C8FEB220FFF7DDFE0120FFF7C2FE42
:102860000120FFF7BFFE0020FFF7BCFE3320FFF77B
:10287000B9FE3320FFF7B6FEB720FFF7CBFE3520B9
:10288000FFF7B0FEBB20FFF7C5FE1F20FFF7AAFE33
:10289000C020FFF7BFFE2C20FFF7A4FEC220FFF7E9
:1028A000B9FE0120FFF79EFEC320FFF7B3FE122002
:1028B000FFF798FEC420FFF7ADFE2020FFF792FE41
:1028C000C620FFF7A7FE0120FFF78CFED020FFF700
:1028D000A1FEA420FFF786FEA320FFF783FEE020E1
:1028E000FFF798FED020FFF77DFE0820FFF77AFE65
:1028F0001120FFF777FE0820FFF774FE0C20FFF78A
:1029000071FE1520FFF76EFE3920FFF76BFE3320B6
:10291000FFF768FE5020FFF765FE3620FFF762FEE6
:102920001320FFF75FFE1420FFF75CFE2920FFF75E
:1029300059FE2D20FFF756FEE120FFF76BFED02059
:10294000FFF750FE0820FFF74DFE1020FFF74AFE6C
:102950000820FFF747FE0620FFF744FE0620FFF79A
:1029600041FE3920FFF73EFE4420FFF73BFE512099
:10297000FFF738FE0B20FFF735FE1620FFF732FE7B
:102980001420FFF72FFE2F20FFF72CFE3120FFF73A
:1029900029FE2120FFF73EFE1120FFF73BFE2120FC
:1029A000FFF738FE2920FFF735FE05B0F0BDC04621
:1029B000BB740020B6740020B774002000C0034030
:1029C0004059730700D00340BA740020B974002046
:1029D000B874002010B51400FFF730FE2000FFF798
:1029E000E3FD10BDF8B5CE46474680B580461E00D3
:1029F00008AB1B8899461020FFF70CFE0027002526
:102A000016E002350134A64211DDA02252009442A4
:102A1000F7DAEF2FF5DC43465B5D1B0242465219A5
:102A200052781A43B9B2A0B2FFF7D4FFE9E70137F1
:102A3000B94501DD0024E6E71120FFF7EBFDC0BC3E
:102A4000B946B046F8BDF8B5DE4657464E4645464F
:102A5000E0B506000F0091461D000AAB1B78012B64
:102A600027D0002398463CE05C46013423B29B46C5
:102A7000DA466B00013B98469B4537DA00231A0083
:102A80004345F1DA51467118491BEDD4BA18521B6F
:102A9000EAD45A46B01880B29CB2E11989B2491BF7
:102AA00089B2401B80B24A46FFF794FF631C1BB2F9
:102AB000E5E700239B46DBE74346F01880B2A4B26B
:102AC000E11989B2013989B2013880B24A46FFF76B
:102AD00081FF013424B25445EEDB434601331BB27F
:102AE0009846AA46A84501DA0024F4E7F0BCBB46A4
:102AF000B246A946A046F8BDF0B5DE4657464E465A
:102B00004546E0B58BB006000F00110007921C008F
:102B1000059314AB1888039015AB1878824616AB52
:102B200018788046931BDA17981850408146E31BAB
:102B3000DA17981850400690DA17D31A53409B467C
:102B40008E420BD201230893059B9F420AD2012398
:102B500009934B46069A9D1A002426E001235B4206
:102B60000893F1E701235B420993F2E70123009305
:102B70005346039A39003000FFF765FF6B005B4551
:102B800008DB079B9E4227D0069BED1A089B9C46BC
:102B90006644B6B26B004B4507DC059B9F421BD0D9
:102BA0004D44099B9C466744BFB20134E4B243469E
:102BB000012BDBD10321200003F04CFCCBB20493AA
:102BC000002BD3D1013300935346074A390030001C
:102BD000FFF739FF049CD1E70BB0F0BCBB46B2460F
:102BE000A946A046F0BDC046FFFF0000F0B5D6469E
:102BF0004F464646C0B584B004000F0015001E00C5
:102C00000CAB1B8898460DAB1B7899460EAB1B7816
:102C1000002B3CD100239A4602934B460193434636
:102C200000930B00FFF768FF534602934B46019356
:102C3000434600933300220039002000FFF75CFF79
:102C4000534602934B460193434600933B002A00B0
:102C500031002800FFF750FF534602934B46019383
:102C6000434600933300220031002800FFF744FF61
:102C70000FE0002002904B4601934346009333003F
:102C8000220039002000FFF737FF0134A4B2AC4224
:102C9000EFD304B0E0BCBA46B146A846F0BD000090
:102CA000F8B5DE4657464E464546E0B5824689466B
:102CB0001E000AAB1B889B46203AD3009B18DB0002
:102CC00098460025002742E04346EB18254AD15C90
:102CD00007222240802313410B4212D04B46F918A1
:102CE00089B25346E01880B25A46FFF773FE08E0F7
:102CF0004B46F91889B25346E01880B23200FFF70C
:102D000069FE07232340072B1AD00134A4B2102CEC
:102D100019D8154B9E42D7D04346EB18114AD15CC7
:102D200007222240802313410B42E1D04B46F91881
:102D300089B25346E01880B25A46FFF74BFEE0E7EF
:102D40000135EDB2E1E70135EDB20137BFB2172F22
:102D500001D80024DBE7F0BCBB46B246A946A0463A
:102D6000F8BDC046605C0310FFFF0000F0B5CE4622
:102D7000474680B583B00400884616001F000AABA2
:102D80001B88994600250AE04B4600933B004146CC
:102D90002000FFF785FF0135ADB21134A4B2725D9A
:102DA000002AF1D103B0C0BCB946B046F0BD002343
:102DB00001E0C1540133802292009342F9D370475D
:102DC00000B585B080236A4613735073044800230E
:102DD0000093023303AA3C2107F0BCFB05B000BD01
:102DE00090780020F0B583B006000D004F1C38002D
:102DF00004F038FA0400012304E0F218013A1278D2
:102E0000E2540133AB42F8DD40232370064800232F
:102E100000933B0022003C2107F09CFB200004F0C3
:102E20002BFA03B0F0BDC0469078002070B50500C5
:102E30000C002120FFF7C4FF2078FFF7C1FF607866
:102E4000FFF7BEFF2220FFF7BBFFA078FFF7B8FF18
:102E5000E078FFF7B5FF61682800FFF7C3FF70BD9A
:102E600042780378D21A0132C37881785B1A013331
:102E7000534343607047000080B5424FBD44082271
:102E8000002180A804F004FA7F236A463E495218C4
:102E900013707C3B6A463D49521813703C483D49CB
:102EA00007F02CFB0321022000F084F9032103200A
:102EB00000F080F900220121022000F093F90022A5
:102EC0000121032000F08EF9AE20FFF779FF2020CA
:102ED000FFF776FF0120FFF773FF4020FFF770FF39
:102EE000A120FFF76DFFA820FFF76AFF1F20FFF763
:102EF00067FFC020FFF764FFD320FFF761FF0020CA
:102F0000FFF75EFFDA20FFF75BFF0220FFF758FFB5
:102F1000D520FFF755FF8020FFF752FFD920FFF79C
:102F20004FFFF120FFF74CFFDB20FFF749FF302078
:102F3000FFF746FF8120FFF743FFFF20FFF740FF29
:102F4000A420FFF73DFFA620FFF73AFF8D20FFF7F3
:102F500037FF1420FFF734FF2E20FFF731FFAF209B
:102F6000FFF72EFF80A8FFF77BFF00216846FFF7E1
:102F70001EFF80A96846FFF759FF82239B009D44EE
:102F800080BDC046F8FDFFFF010200000302000003
:102F900090780020801A060030B585B005000C003E
:102FA0002120FFF70DFF2800FFF70AFF7F20FFF722
:102FB00007FF2220FFF704FF2000FFF701FF072093
:102FC000FFF7FEFE03AA084B1B7813700748002387
:102FD000009301333C2107F0BDFA054B1D70054BF2
:102FE0001C7005B030BDC0461877031090780020E3
:102FF000718F0020708F002010B586B00A2830D065
:103000002038C4B201AB40221A70002101230DE028
:10301000154A20011218505C01AAD05413480278B6
:10302000013202700133DBB20131C9B2102BEFD98A
:103030002120FFF7C5FE0E4C2078FFF7C1FE207857
:103040000730C0B2FFF7BCFE2220FFF7B9FE012017
:10305000FFF7B6FE0220FFF7B3FE112101A8FFF72C
:10306000C1FE06B010BDC0461C770310708F002053
:10307000718F002070B50500002407E0FFF7BCFF4A
:103080000134E4B2034A137808331370285D0A2828
:10309000F4D170BD718F00200120704710B504007D
:1030A000FFF7FAFFA04205D3AC2080006043024B3B
:1030B000C01810BD0020FCE7C0740020012070473C
:1030C00010B50400FFF7E8FFA04203D3A001024BB4
:1030D000C01810BD0020FCE77077002000B585B057
:1030E0006B4619735A7301780123994304480023EE
:1030F0000093023303AA07F02DFA05B000BDC046C5
:103100009078002000B585B0438803AA11708178BB
:1031100051701B0A937001780123994303480023DF
:103120000093033307F016FA05B000BD9078002035
:1031300070B504000D001D481D4907F0DFF903219B
:10314000022000F037F80321032000F033F80022BA
:103150000121022000F046F800220121032000F0A6
:1031600041F82035257000220A212000FFF7B6FF24
:1031700001256D42658001212000FFF7C3FF0C216E
:103180002000FFF7BFFF658004212000FFF7BAFF92
:1031900005212000FFF7B6FF10212000FFF7B2FF46
:1031A00011212000FFF7AEFF70BDC04690780020CF
:1031B000801A060010B58300084A944663441A68D2
:1031C00040246240803414408022520113431C602A
:1031D000C000034B9C466044416010BD04C00140E8
:1031E0000040014080000B4B9C46604400290DD0FC
:1031F0000823002A0CD004221343026853400C22F7
:103200001A4080235B0103431A6070470023F0E7F4
:103210000022F1E704C001408000064B9C46604458
:1032200009010368594030220A4080235B010343AF
:103230001A60704704C0014010B501238340D022BA
:103240001206936293610521FFF7B4FF10BD0000E1
:10325000EFF3108072B6034B1B68002BFBD0BFF35B
:103260005F8F70472C0100D0BFF35F8F024B0022AD
:103270001A6080F3108870472C0100D0F8B5060062
:103280000C001500FFF7E4FFE308F718F15C0722D4
:103290002240012393400B4205D1DBB20B433B702C
:1032A000FFF7E2FFF8BD2100280001F049FDF0B56D
:1032B00083B00600019114001F00FFF7C9FF00E072
:1032C0000134BC420CD8E308F518F35C0721214017
:1032D00001228A401A42F3D1D2B21A432A7001E085
:1032E00001246442FFF7C0FF002C02DB200003B082
:1032F000F0BD019B002BF9D0089801F021FD0000E2
:10330000034B1B6802201840431E9841C0B270470F
:1033100000C00640002307E0054A9A189200BFF358
:103320005F8F0021116001331F2BF5D97047C04614
:1033300040000034054A1078431CDBB21370172B91
:1033400002D9130010221A707047C046B0770020CF
:1033500010B582B00100054C054B00931F231822C5
:103360002000FFF7A4FF02B010BDC0463087002048
:103370000C7D0310074B9B68103080001950BFF381
:103380005F8FBFF35F8F044B0021196082F31088B9
:103390007047C04600ED00E0240100D010B503885E
:1033A000DA0A1C2A05D15B055B1502335B00C018E5
:1033B00010BD034B034A0448A72101F029FCC04675
:1033C000287D0310947F0310407D031010B5091A67
:1033D0000B1F0A4A88180A4A904208D8C90706D41F
:1033E0005B105B055B0D0748184380B210BD064BB0
:1033F000064A0748992101F00BFCC046FC07000073
:10340000FE0F000000E0FFFF807D0310887F0310A7
:10341000407D031010B5091A04394A08090B08D178
:103420004905490D064B0B430380064B134343806C
:1034300010BD054B054A0648A12101F0E9FBC04635
:1034400000F0FFFF00F8FFFFB07D03105C7F03106A
:10345000407D031001238340034A10681840431E37
:103460009841C0B27047C04600E100E0002904D096
:10347000034B1860034B18607047034B1860FBE761
:1034800080E200E000E100E080E100E010B501230F
:1034900083401800FFF7EAFF10BD000001238340BE
:1034A000014A13607047C04600E200E0024B9B688F
:1034B00010308000C058704700ED00E010B5FFF7F5
:1034C000F5FF002805D0054BC01A2F2803D801208E
:1034D00010BD0020FCE70020FAE7C046B4770020CA
:1034E00070B504000D00EFF3108672B60C4B1B682C
:1034F000002BFBD0BFF35F8F2000FFF7D7FF094BF6
:10350000984201D0A84205D1320029002000FFF7DF
:1035100031FF70BD044B054A05487C2101F078FB62
:10352000240100D0CD010010C07D0310BC7F03102A
:10353000407D0310F0B5DE4657464E464546E0B5A1
:1035400089B0814601911500EFF3108A72B66E4B77
:103550001B68002BFBD0BFF35F8F6C4B00269E5780
:10356000002E41DB7400A419A40069482418062227
:10357000A256664B1A70674B9A684B4610339B00F5
:10358000D35898461F00181A2F2839D9624B9845EE
:1035900030D105AF614B3B80614973009B46981960
:1035A00080005B4B984640440230FFF70FFF788065
:1035B0005C4BBB80FF23BB71FD71019B0793330004
:1035C0005B449B00434407CF07C301231C43A04631
:1035D000524641464846FFF7CDFE09B0F0BCBB4617
:1035E000B246A946A046F0BD4F4B504A5048CD21A7
:1035F00001F00EFB4F4B4D4A4D48D42101F008FB22
:1036000001380C2102F026FF002912D101239F432B
:10361000BB463B000027DA79AA4211D90621595648
:1036200000290CDB4A005218920039491F008B1800
:10363000F1E7414B3D4A3E48E02101F0E9FA1F0025
:10364000002F2FD005AB3D4A1A80813A5A800623BD
:10365000FB560293002B18DABD20000205AB9B46F7
:103660009880029A9A71DD71019A0792381D2100A3
:10367000FFF7ACFEB880BE71254B72009219920024
:103680009B185A4613CA13C3A2E7381DFFF786FEDC
:1036900001007000801980001D4BC0180430FFF736
:1036A00095FEDBE705AF1D4B3B801D497300029380
:1036B0009B199B00164A90461A0042440392901CA4
:1036C000FFF784FE7880039A101D5946FFF77EFEAF
:1036D000B8801B4B5A464146521A524153431B0D68
:1036E000BB71FD71019A0792029B9B199B00434499
:1036F00007CF07C3114B5A461380813B53800123E8
:103700001C43A04664E7C046240100D0748F00200B
:10371000B477002000ED00E0CD01001000A1FFFF14
:10372000E477002000BDFFFFF87D0310A47F0310A5
:10373000407D0310207E0310487E031001480000E6
:10374000AAAA0000F0B5CE46474680B583B0060071
:103750000D00EFF3108872B6504B1B68002BFBD0A6
:10376000BFF35F8F4E4B9A6834001034A300D758D4
:103770004C4B9F4207D0AF4200D18CE001974A4B9F
:10378000FB1A2F2B09D9424639003000FFF7F2FD12
:1037900003B0C0BCB946B046F0BD3000FFF75AFEDA
:1037A000814600213000FFF771FEBFF35F8FFCF709
:1037B0005AFD002801D0844211D10123019C9C4371
:1037C0000021A368AB4212D00622A256002A0DDBCC
:1037D00053009B189B00344A2100D418F1E7334B67
:1037E000334A2C213348FF3101F012FA2100AB4259
:1037F0004AD106256557002D2CDB2B4B6A00521948
:1038000092009B189A68A260DA79E2719B795BB2A8
:10381000A371002B10DABD200002A080224B6A00A9
:10382000521992009B18244A1178997115704946D3
:103830003000FFF72BFEA6E76800401980001A4B06
:10384000C0180430FFF7AAFD0100231D1800FFF780
:10385000BDFDE2E7002812D100290ED0FF238B71B5
:10386000164B8B8014490B78A3710F4A144BA41A82
:10387000644163431B0D0B70D9E70A4FF2E711490E
:10388000201DFFF7C7FDD2E70F4B094A6021094809
:10389000FF3101F0BDF9034F75E7C046240100D0A8
:1038A00000ED00E0CD010010B4770020BC7E0310D5
:1038B000747F0310407D0310748F002000BDFFFF54
:1038C000AAAA0000EE770020E07E031070B5040085
:1038D000012606432D4BF31A2F2B28D8FCF7C3FCE7
:1038E00000282BD0EFF3108C72B6294B1B68002BED
:1038F000FBD0BFF35F8F254A264D2100891A49412D
:103900004D432D0D6DB2244B9B6880001B58B34274
:103910001BD00021032932D81C4B4A0052189200B8
:103920009B189B795BB2AB421FD00131F2E71B4B76
:103930001B4AC2211B48490001F06AF91A4B184A78
:1039400088211848FF3101F063F9134B9B68174A2F
:103950001A50174B1A78A2711D70BFF35F8F0C4B72
:1039600000221A608CF3108870BD084B4A00501872
:1039700080001818FF2686710E4A8280E9E70E4BF8
:10398000074ACC210748490001F042F9B4770020EA
:10399000240100D0AAAA000000ED00E0E87E031098
:1039A000407F0310407D0310107F0310CD010010F5
:1039B000748F002000BDFFFF1C7F03100022044B0A
:1039C00002E0044902C30132072AFAD97047C0460F
:1039D00000E400E08080808000B583B00100D02347
:1039E0001B061B6806481818064B00930523002287
:1039F000FFF75DFC002801DB1F23181A03B000BD90
:103A0000608F0020247F031010B5002B02DB0260C2
:103A1000436010BD024B034A03483F2101F0F8F810
:103A2000D87F03103C800310F47F031010B582B0E0
:103A3000040000F0C3FD02000B006846FFF7E4FF3E
:103A4000009A019B22606360200002B010BDF0B5B7
:103A500085B0050016001F000192FA229200002393
:103A60000A98002103F03CFB02000B0092197B41F5
:103A70009F4202D804D1964202D901225242D31762
:103A800002A8FFF7C1FF029A039B2A606B6028001F
:103A900005B0F0BD30B585B004000D0002A8FFF7F9
:103AA000C5FF029A039B00952000FFF7D0FF20007E
:103AB00005B030BD70B504000E001500FFF73AFCEC
:103AC0000100200000F006F8A680E580BFF35F8FBC
:103AD00070BD0000024B9C46614489000160704744
:103AE00040000034084B5B6A994209D8064A926A42
:103AF000824207D2994201D0012002E0002000E07A
:103B0000002070470120FCE70040054010B5002967
:103B10000AD003681B7B8B4206D38068054B9C460A
:103B200061440901401810BD034B044A04483B217D
:103B300001F06EF8FFFFFF0F548003109083031015
:103B400078800310F8B504001700FFF7DFFF066860
:103B5000456839002000FFF7D9FF0268436801205B
:103B6000AB4201D802D00020C0B2F8BDB242FBD8AF
:103B7000F9E7000010B5002B02DB0260436010BDC6
:103B8000024B034A03483F2101F042F8D87F03105B
:103B90005C830310F47F031070B582B0060014003C
:103BA0001D00069A079B12196B419D4202D804D151
:103BB000944202D901225242D3176846FFF7DAFF36
:103BC000009A019B32607360300002B070BD00004B
:103BD00010B5002908D0037B8B4205D300684B0049
:103BE0005B18033BC01810BD024B034A0348682111
:103BF00001F00EF8B080031038830310CC8003105E
:103C000010B5437B8B4201D1012010BDFFF7E0FFCF
:103C10008378002B01D10020F7E70120F5E770B58C
:103C20000400857B002D01D1280070BD2900FFF71D
:103C3000CFFF4378A373002B00D1E373002383707D
:103C400043700370F0E70000F8B506000C001500A3
:103C5000FFF7BEFF0700002C0DD0002D11D0AC42A5
:103C600015D029003000FFF7B3FF84703B78002B9C
:103C700013D13D70F8BD0A4B0A4A0B486F2100F082
:103C8000C7FF0A4B074A0848702100F0C1FF084BE4
:103C9000044A0548712100F0BBFF43703D70E9E71D
:103CA0001881031014830310CC80031024810310A7
:103CB0003081031070B506000D001400002914D0E7
:103CC000002A14D0436880689847002806D0220054
:103CD00029003000FFF7B8FF280007E02A00210084
:103CE0003000FFF7B1FF200000E0100070BD0800B9
:103CF000FCE7000070B504000D1E0CD0FFF768FF54
:103D00000023837043700370617B2A002000FFF75B
:103D1000D1FF607370BD034B034A0448A52100F036
:103D200077FFC0467C81031028830310CC800310EA
:103D300070B505000C1E08D0FFF762FF002804D103
:103D4000E97B002907D1EC7370BD054B054A064895
:103D5000F62100F05DFF2800FFF73AFF4470F2E71C
:103D60004881031004830310CC80031010B5002990
:103D700007D003681B7B8B4203D3C068013940180E
:103D800010BD034B034A0448402100F041FFC046E8
:103D900054800310F08203107880031010B50C00DB
:103DA000CB68834207D10B6908009847002809D0E7
:103DB0002068616810BD064B064A962106484900F6
:103DC00000F026FF0023E36000200021F2E7C04658
:103DD0006C810310A48203107880031070B5050075
:103DE0000C00080000F0DEFB200000F0E1FC0849B8
:103DF000200000F021FCFFF79DFA064B9C46604432
:103E0000800068602C75044BA400E55070BDC0466E
:103E1000293F001040000034A48C00200A4B1A688F
:103E2000EFF3108172B61368002BFCD0BFF35F8FE5
:103E3000054B1B68BFF35F8F00221A6081F3108867
:103E400040BF002000217047308F002010B582B0A5
:103E5000040000F0B3FB02000B006846FFF78AFE87
:103E6000009A019B22606360200002B010BD70B513
:103E700084B0040016001D0002A8FFF7E7FF029AB5
:103E8000039B009601952000FFF786FE200004B0FA
:103E900070BD0000F0B583B0070001921D000AABB1
:103EA0001C780BAB1E78002C0BD000682100FFF7AC
:103EB000A7FE002809D0194B194A1A48652100F0BD
:103EC000A7FE0068FFF7ABFE0400002C02D1200023
:103ED00003B0F0BD21003800FFF718FE019B03601E
:103EE0004560089B8360099BC36038682100FFF729
:103EF00001FFA042EBD1387D019A2B0000F0E4FBDA
:103F0000051E01D0002E04D00C9B002BDFD01D70AD
:103F1000DDE73868210000F083FDF5E780810310BC
:103F20004483031078800310F0B5DE4657464E46B2
:103F30004546E0B58FB00B900021784B8200D458F5
:103F4000894682E029002000FFF7E0FD80460268F4
:103F50004368921BBB41002B09DD43461A685B682E
:103F60000B9800F0B1FB00239846002689E0002B57
:103F700001D1002AF1D10021584600F047FD070089
:103F8000A84215D143461A685B68089209934346D4
:103F90009E68DB689846002E10D029002000FFF7AD
:103FA000E5FE037899461B021F432761002068E065
:103FB0005B4B5C4A5C488C2100F02AFE5B4B594A03
:103FC0005948902100F024FE2369002B77D0BB4292
:103FD00019D106980799002342428B410092019320
:103FE000089A099B0CA8FFF7D7FD0C9A0D9B00219E
:103FF0000491013103910295414601910096200000
:10400000FFF748FF16E04A4B464A47489F2100F019
:10401000FFFD069A079B002B01D1002A52D1206890
:104020002900FFF785FE29002000FFF79FFE037897
:1040300001330370002323616268BFF35F8F136055
:104040008AF310880120002861D00CA8FFF7FEFE3B
:104050000C9E0D9F00220023089209936268EFF3E3
:10406000108A72B61368002BFCD0BFF35F8F2368F1
:104070009B465D7B002D00D064E700239846002618
:1040800000206368BFF35F8F00221A608AF31088F4
:10409000002ED8D04B461F022F4341463800B04770
:1040A000069007916268EFF3108A72B61368002BCE
:1040B000FCD0BFF35F8F079B002B00DA84E7079BE0
:1040C000002BA6DD2369002BA9D0BB4219D10CA877
:1040D000FFF7BCFE0C9A0D9B069807990090019182
:1040E0000CA8FFF759FD0C9A0D9B0021049101319A
:1040F000039102954146019100962000FFF7CAFE08
:1041000098E70B4B074A0848A22100F081FD0FB049
:10411000F0BCBB46B246A946A046F0BDA48C002028
:10412000A88103107483031078800310C0810310EA
:10413000CC81031010B50A4B5B68002B04D00948F2
:104140000A21FFF7C7FC10BD054C074A2068230071
:10415000102100F0D4FB03212000FFF73FFEEEE723
:10416000FC770020308F0020453B001010B5064B37
:104170005B68002B01D0044810BD044B044A05487D
:104180005C2100F045FDC046FC770020088203104A
:10419000D882031078800310F0B5DE4657464E46AD
:1041A0004546E0B58DB0060090461F00169B9A4626
:1041B000179B994618AB1B780793272302AA9446AE
:1041C000634400221A7021E001003000FFF7CEFDA9
:1041D00000783CE00698002B5CD0079B002B59D060
:1041E0004946D04704000D0003000B4359D0002975
:1041F00040DB08A8FFF72AFE089A099B0094019566
:1042000008A8FFF7C9FC089B9846099F7268EFF35E
:10421000108B72B6136859424B41D9B20691002BEC
:10422000F8D1BFF35F8F273302AA94466344049307
:104230000023039302934B46019353460093424657
:104240003B003000FFF726FE0400051EBCD173685A
:10425000BFF35F8F002119608BF31088002D17D0FA
:10426000272302AA944663441B78002BB2D1000294
:104270002043B0E700236242AB41009201934246E3
:104280003B0008A8FFF788FC089B9846099FBDE7FC
:10429000012040420DB0F0BCBB46B246A946A04644
:1042A000F0BD0698F6E7F0B5C64600B584B0050047
:1042B000884616001F000AAB1C78FFF757FF0294D0
:1042C000019700962A004346FFF766FF04B080BCC2
:1042D000B846F0BDF0B5C64600B504000D00426812
:1042E000EFF3108772B61368002BFCD0BFF35F8F1B
:1042F000EEB22368984631001800FFF781FC0028D1
:104300002AD02369AB4213D02D0AEDB23100200030
:10431000FFF72CFD0378AB4211D000206368BFF398
:104320005F8F00221A6087F3108880BCB846F0BD0A
:104330000C4B0D4A85210D48490000F069FC310005
:10434000404600F06DFB0028E8D1094B064A1221D7
:104350000648FF3100F05CFC2369AB42DED100234C
:104360002361DBE72C820310C082031078800310E6
:104370005082031010B50400FFF7F8FE2100FFF78C
:10438000A9FF10BDF0B587B00500100019000E9C04
:1043900013000B4301D101200021A5600C9B236178
:1043A000206061600D9B6361CE1737007040020092
:1043B00071400B00921BBB4104A8FFF758FD049A03
:1043C000059B012102910194044900912800FFF707
:1043D000E3FEE060C043C00F07B0F0BD9D3D00109C
:1043E00030B587B004000D00FBF73DFF002820D159
:1043F00006225242D31712196B41AB4202D803D1A5
:10440000A24201D90022002304A8FFF7B3FB02A8AF
:10441000FFF71CFD02980399049A059B121A8B4121
:10442000002B0BDC08D02000290000F0D3F807B0E7
:1044300030BD144800F084FC002AF4D0124A0498DD
:10444000059900230093FFF72EFF002813DAEAE70F
:104450000E4B1A68EFF3108172B61368002BFCD074
:10446000BFF35F8F094B1B68BFF35F8F00221A6099
:1044700081F3108820BF04980599FFF733FB0028CB
:10448000E6D0D0E7548203101D3E0010308F00208C
:1044900000B583B002000B006846FFF7E8FC009807
:1044A0000199FFF79DFF03B000BD10B5FA229200FD
:1044B0000023002102F014FEFFF7EAFF10BD000008
:1044C00030B583B005000C000A4A00230093FFF7C3
:1044D000EAFE002808DD20BFFFF74CFF280021007E
:1044E000FFF700FB03B030BD28002100FFF7FAFA08
:1044F000F8E7C0461D3E001010B5002B02DB02603D
:10450000436010BD024B034A03483F2100F080FB8B
:10451000D87F031050840310F47F031070B5EFF3BD
:1045200005833F2018401038EFF3108C72B6184BFB
:104530001B68002BFBD0BFF35F8F01231900814064
:10454000144A5163144A12781400C440234213D011
:10455000104B5C6A114B8500EB589C4205D3104B05
:10456000EB580D4C8A43227007E00A4A031D9B005A
:1045700099589950002300E00023BFF35F8F044A4D
:10458000002111608CF31088002B00D0984770BD7B
:10459000280100D000400540798F00203C8F00208A
:1045A000FC85002010B50100024A034B1800FEF7FD
:1045B00065FE10BDA88303106D8F0020044B5B6A5D
:1045C000034A906A1900536A9942F9D17047C0466C
:1045D00000400540084B5B6A01E0074B5B6A8B4279
:1045E000FBD301E0044B5B6A8B4203D1024B9B6A15
:1045F0008342F7D37047C04600400540F0B583B012
:1046000004000D00FFF7DAFF06000F0022002B0068
:1046100092197B41994202D804D1904202D90122D9
:104620005242D3176846FFF767FF00980199FFF7DA
:10463000D1FF03B0F0BD000070B504000E00EFF331
:10464000108572B61B4B1B68002BFBD0BFF35F8F2E
:10465000002E1CD02000FEF729FF174B83420BD001
:1046600019002000FEF73CFF01212000FEF70EFF9D
:104670000123A340114A1360114BA400E650BFF37D
:104680005F8F0C4B00221A6085F3108870BD0C4BB5
:10469000A2000021D1500122A2400A490B78934385
:1046A0000B7005492000FFF74DF800212000FEF7B0
:1046B000EDFEE4E7280100D01D45001038600540FC
:1046C000FC850020798F0020F0B5DE4600B584B06F
:1046D0000400150001921E000293FFF76FFF03957F
:1046E0008E4202D84ED185424CD9EFF3108B72B670
:1046F000274B1B68002BFBD0BFF35F8F254A177831
:104700000125A540EBB23B431370234B5D63221D93
:1047100092000199D150214AA100029888501B6A49
:104720002B4212D11C4B1B6C2B4208D00020BFF334
:104730005F8F174B00221A608BF3108823E0184B11
:10474000184A1948C12100F063FAFFF737FF8E427B
:1047500014D802D1039B834210D80E4B1B78BB4266
:104760000ED00D4B1D625D631F222240012393403A
:104770000E4A1360074B1F700120D8E70020D6E7D0
:104780000120D4E7012004B080BCBB46F0BDC04688
:10479000280100D0798F0020004005403C8F002088
:1047A000CC83031034840310F083031080E200E014
:1047B000EFF3108C72B60B4B1B68002BFBD0BFF3D2
:1047C0005F8F01238340084A136208490A789A439D
:1047D0000A70BFF35F8F034B00221A608CF31088BE
:1047E0007047C046280100D000400540798F002066
:1047F00010B5002908D0037B8B4205D300684B001D
:104800005B18033BC01810BD024B034A03486821E4
:1048100000F0FEF9B080031054850310CC80031023
:10482000F8B506000C001500FFF7E2FF0700002CAA
:104830000DD0002D11D0AC4215D029003000FFF76B
:10484000D7FF84703B78002B13D13D70F8BD0A4B25
:104850000A4A0B486F2100F0DBF90A4B074A084867
:10486000702100F0D5F9084B044A0548712100F089
:10487000CFF943703D70E9E71881031040850310BC
:10488000CC800310248103103081031070B5060022
:104890000D001400002914D0002A14D04368806849
:1048A0009847002806D0220029003000FFF7B8FF03
:1048B000280007E02A0021003000FFF7B1FF2000A8
:1048C00000E0100070BD0800FCE770B50500002393
:1048D000437301338373037BC373012406E0210018
:1048E0002800FFF785FF0134E4B24470297BA14220
:1048F000F5D82800FFF77CFF0023437070BD10B58A
:10490000017342608360FFF7E0FF10BDF0B5C6465B
:1049100000B505000C1E03D1200080BCB846F0BDD8
:10492000FFF766FF4678002EF6D031002800FFF72B
:104930005FFF477800239846437021002800FFF767
:1049400057FF43464370320021002800FFF79EFFC7
:10495000040039002800FFF7D9FF020021002800D9
:10496000FFF794FF0400D7E7F0B5C64600B5040092
:104970000D001700002920D0FFF73AFF4378002BE5
:1049800021D18378002B24D101782000FFF7BEFFCE
:1049900006008046002F03D0E17B00291FD1E5737C
:1049A0004346002B20D129002000FFF721FF0023E0
:1049B0004370300080BCB846F0BD0F4B0F4A104822
:1049C000382100F025F90F4B0C4A0D483A2100F030
:1049D0001FF90D4B094A0A483B2100F019F9200044
:1049E000FFF706FF4570DAE731002000FFF700FF10
:1049F00000238370D7E7C046688403102C8503101A
:104A000070840310A8840310D084031070B50400D0
:104A10000A00457B2900FFF7A7FF6073280070BDDF
:104A200070B506000C1E40D0437B8B4207D0FFF7C9
:104A3000DFFE05008178002906D1002036E0012143
:104A4000FFF7E4FF012031E03000FFF7D1FE0178ED
:104A5000A1420DD03000FFF7CBFE4178A1420AD031
:104A60000029F7D1124B134A1348673100F0D0F8F0
:104A70006B78037001E06B7843700023AB706B7050
:104A8000012221003000FFF76FFF0200717B81429D
:104A900005D03000FFF7FAFE7073012006E0074BE7
:104AA000044A05486D2100F0B3F8002070BDC046EF
:104AB0001C7F03101485031070840310F48403100A
:104AC00010B5002B02DB0260436010BD024B034AAD
:104AD00003483F2100F09CF8D87F03101086031094
:104AE000F47F0310F0B585B0050016001F00019299
:104AF000FA22920000230A98002102F0F1FA020043
:104B00000B0092197B419F4202D804D1964202D9F0
:104B100001225242D31702A8FFF7D2FF029A039B49
:104B20002A606B60280005B0F0BD10B582B00400AB
:104B3000FFF744FD02000B006846FFF7C1FF009A33
:104B4000019B22606360200002B010BD30B585B0CB
:104B500004000D0002A8FFF7E8FF029A039B0095EE
:104B60002000FFF7BFFF200005B030BD10B50400E6
:104B7000FEF7E0FB01002000FEF7ACFFFF232371EE
:104B8000BFF35F8F10BD10B50400FEF7D3FB01002B
:104B90002000FEF79FFFFF23237100236371BFF303
:104BA0005F8F10BD034B9C46614489000160BFF3D9
:104BB0005F8F70474000003410B504000120FEF7FD
:104BC000C7FB01002000FFF7EDFF10BD00BEFDE7B1
:104BD00003000A4A1268002A08D0084A1068C3185D
:104BE000074A9A4206D3054A13607047034A0549AB
:104BF0001160F2E701204042F7E7C04680880020BC
:104C0000000004207C8F002010B5FFF7DFFF0000BC
:104C100030B583B00D001900002A0BD0074B084CAB
:104C2000019200932B000200200002F0E5FC01201D
:104C3000FFF7CCFF034B1A00F1E7C04628860310AC
:104C4000388603104001011070B52B4B2B4A1A60B7
:104C50002B4B2C4A1A602C4B9A682A4B9343FAD15F
:104C60002A4C01E008CC9847294B9C42FAD300F02B
:104C700001F9234B274A1A60234B9B68DB43DB0176
:104C8000FAD1254B40229A675A671A67DA66234C95
:104C900009E0234B234A24488321FFF7B9FF200072
:104CA000FFF764FF0834214B9C4209D22368002B94
:104CB000F5D0012BEDD12000FFF765FF0834F2E7B6
:104CC0001B4DA9681B4CC022200002F0E7FAAC6023
:104CD000FBF7C9FA002800D000BEFEF71BFBFEF769
:104CE0006DFEFFF727FA144C01E008CC9847134BF0
:104CF0009C42FAD370BDC04600E00040BFCDFBFE31
:104D000000F00040FE7F3C0000C00040007E00201C
:104D1000107E0020FFFFFF0100F00140E87D002031
:104D200068860310DC86031088860310007E00204E
:104D300000ED00E000000020107E0020187E002022
:104D40000FB400B583B0084802F024FC049B002B8C
:104D500007D005A90191180002F02CFC034802F0CD
:104D600019FC0120FFF732FFCC860310789E031058
:104D7000F8B5DE4657464E464546E0B506000F00FC
:104D800015000A9A93424ED31A0E92461B02984679
:104D90000A9A00234046514601F09EFB814674006A
:104DA000A419A4002E4B9C4664446368834200D23D
:104DB0006060331FDBB29B46012B3AD9C0239B01B5
:104DC0002343802212011A60264BB200D1580029D9
:104DD00005D0586901F03EFB01300138FDD16D016D
:104DE00023685D40E0222A4080235B0123431A6050
:104DF0005A46012A28D980239B012343802212018D
:104E00001A604B4663604A4600234046514601F013
:104E100063FB144BB60098510120F0BCBB46B24670
:104E2000A946A046F8BD104B104A11482D21FFF7A6
:104E3000EFFE012FC2D1C0239B01234303221A603E
:104E4000A368DB07FCD5CAE72168794003220A4042
:104E50001A60A3680125BD401D42FAD0CBE7C046C9
:104E60000080004034870020EC8603104487031044
:104E70000087031030B583B00C2000F021F9FEF755
:104E80003FFA00280DD0002304E02E4A99002E4856
:104E900088500133092BF8D92A4B2C4A5A6203B0A7
:104EA00030BD2B4B00229A6700F07CF9294B012280
:104EB0001A60274B5B6C012BFBD1274B03221A6036
:104EC000234B9B6B012BFBD1013300930433234A0B
:104ED0000121234800F054F805230093214A0121C1
:104EE000214800F04DF8214B0093002202210420BC
:104EF000FFF73EFF1E4D00952B00002201210520EB
:104F0000FFF736FF104C00942300002200210720F9
:104F1000FFF72EFF00942300002200210820FFF756
:104F200027FF0A4B00932300002200210920FFF7EE
:104F30001FFF00952B00002200210620FFF718FF1D
:104F4000ADE7C04634870020006CDC021BB70000D0
:104F5000008000403CB0004030B00040002F685955
:104F600000800240008C864700C00240001BB70052
:104F700040597307014B8000C058704734870020A8
:104F8000F0B5C64600B504000F0090461D000C2089
:104F900001F060FA06003D4A42443D4B9A4243D834
:104FA00043011B1A9901C91AC90009188901404611
:104FB00001F050FA0200103A98235B009A4239D867
:104FC0006B1E062B3CD8069B013B062B38D8069B54
:104FD0009D423BD343461B09B3423DD32D04069B60
:104FE0001E0335432368002B3CDB2A4B9C424AD0EE
:104FF00080235B01284A1360284A1360284A92687C
:1050000019009143FAD12760A060221DC0239B01A3
:10501000134321221A602268002AFCDAE560082284
:105020001A6080BCB846F0BD1E4B1F4A1F481121B4
:10503000FFF7EEFD1E4B1C4A1C481921FFF7E8FD47
:105040001C4B194A19481C21FFF7E2FD1A4B164A5E
:1050500016482221FFF7DCFD184B134A134825217F
:10506000FFF7D6FD22683F231340BB42BDD1A368A2
:105070001B051B0D8342B8D1E368EE22D202134018
:10508000AB42B2D1CDE780239B01B3E780E84BD39D
:1050900080F8A93200C0024000E0004000F000406B
:1050A00000C000405487031090880310B487031099
:1050B000F4870310108803105C88031074880310B1
:1050C00080239B000343014AD36270470080054060
:1050D000024B1A68024B5A607047C046848C00200D
:1050E0000080054010B5174B8022D2051A60164B80
:1050F000164A1A6000290AD0154BE022D2041A6021
:10510000002809D1124B802212061A6010BD0D4BE7
:10511000E022D2041A60F3E743011B1A9B0018181F
:1051200000010C4B186080235B04984202D3094BAA
:10513000094A1A60FFF7CCFF054B8022D2051A609E
:10514000E4E7C04600B0054008200140FCFF010034
:1051500000A00540848C0020FFFFFF0010B5030075
:1051600010000C4A8024E4051460002B0DD00122AD
:105170001343094A094CD461094C5C4014625162E2
:1051800093620021FFF7AEFF10BD034B0022DA61EE
:10519000F7E7C04600B0054000800540D3C007B027
:1051A0002D3FF84F064BAA2212011A602F22DA6017
:1051B000044B054A1A60024B5B68002BFBDA704710
:1051C000004002400060024000B0FA009A4200D263
:1051D00088547047704710B5002802D00B684968A2
:1051E000984710BD0100002007E083001B185B00FA
:1051F000501C08601078C01830380A681378303BAB
:10520000DBB2092BF1D97047F0B5DE4657464E4662
:105210004546E0B583B093461F000C9B9A460D9C13
:105220000E9B99460F9B9B0703D0B8460F000600C4
:1052300022E00192A34688464E46B9460700B44292
:1052400007D2551C4B4641462020B84701342A005E
:10525000F5E73D004F465C46019B9B46B1464646FE
:10526000B84637002E0007E0013C551C5346185D38
:1052700043463900B0472A00002CF5D135003E00E6
:1052800047460F9B9B0707D4100003B0F0BCBB46FA
:10529000B246A946A046F0BDB0464E46B9462F00DC
:1052A0005D46531BB342EFD2541C4B46414620206F
:1052B000B8472200F5E7F0B5CE46474680B585B041
:1052C000944698460C9D0D9C0EAB1B789946109AFF
:1052D000119B129EB7071CD4002B0CD0F7070AD5E0
:1052E0004F46002F02D10C37374204D0013B02E079
:1052F00030272F550134944201D21F2CF8D9F707DB
:1053000007D59C4205D21F2C03D830272F550134D6
:10531000F5E7F70612D5770505D4002C03D09442A3
:1053200021D09C421FD00F9A102A32D00F9A022A05
:1053300037D01F2C0AD830222A5501341F2C05D80B
:105340004A46002A33D02D222A550134039602936F
:105350000194009543466246FFF756FF05B0C0BC76
:10536000B946B046F0BD621E012C10D00F9F102F21
:105370000BD014000F9A102AD8D1B206D6D51F2C04
:10538000D4D858222A550134D3E7023CCBE7140085
:10539000C9E7B206EED41F2CECD878222A55013486
:1053A000C7E71F2CD2D860322A550134C1E77207F3
:1053B00003D52B222A550134C8E73207C6D520224F
:1053C0002A550134C2E7F0B5DE4657464E464546FB
:1053D000E0B593B081468A46089209931CAB10CB86
:1053E0001B789B461E9D219B9846002C03D11023C1
:1053F00042469A4390468023DB0046461E40424682
:105400001A4212D0002C22D000260EE03033D9B23E
:10541000771C0AAB99552900200001F01BF8AC421B
:1054200016D31F2F14D83E0004002900200001F0DD
:1054300011F8CBB2092BE9D94246920605D5412194
:10544000C918C9B20A39C9B2E2E76121F8E72700F1
:1054500043460693209B05931F9B049303955B464D
:10546000029301970AAB0093099B089A514648465C
:10547000FFF721FF13B0F0BCBB46B246A946A046D9
:10548000F0BDF0B5DE4657464E464546E0B597B00E
:105490000A900B910C929A46209B9946219F22AA32
:1054A00013789B46249B0993259C289B98464A4643
:1054B0003A4302D11032934398468022D2004546A7
:1054C0001540434613420AD04A463A4341D000258C
:1054D0002E0053460D934D46099B9A461BE02E0025
:1054E00053460D934D46099B9A4614E03033DAB289
:1054F000731C99460EAB9A5552462300280039007A
:1055000000F0EAFFBC4226D819D04B461F2B1CD80E
:105510004E4605000F00524623002800390000F0D7
:10552000DBFFD3B2092BE1D94246920605D54122D1
:10553000D218D2B20A3AD2B2DAE76122F8E7AA4523
:10554000E3D94E460D9B9A4608E04E460D9B9A467F
:1055500004E0002602E04E460D9B9A464346069321
:10556000279B0593269B0493099B03935B46029319
:1055700001960EAB009353460C9A0B990A98FFF7CD
:105580009AFE17B0F0BCBB46B246A946A046F0BD95
:10559000F0B5DE4657464E464546E0B591B08046EA
:1055A00089460C929A461A9C1B9D22002B002000D3
:1055B000290001F020FA002800D0ECE0012252423C
:1055C000D44B2000290001F011FA002800D0E2E0BD
:1055D00001225242D04B2000290001F0F1F90028AD
:1055E00000D0D8E0002200232000290001F0E8F9D3
:1055F000002800D0E4E0069407958023DB001E9A83
:105600001A400D921E9A1A4201D106231C93069845
:10561000079902000B000892099303000A00024355
:1056200000D1D9E0080D4005400DBC4EB4466044A1
:105630000A03120B1E00BA4B13431F0001F0EEF9D0
:10564000B84AB94B01F079F9B84AB94B01F04EF9B3
:10565000089009910022B74B3000390001F03DF964
:10566000B54AB64B01F069F902000B000898099998
:1056700001F03CF901F0EAF9834601F0CFF90600A8
:105680000F00AF4AAF4B01F058F90022AE4B01F0CA
:105690002DF901F0DBF90890AC4AAD4B3000390030
:1056A00001F04BF906000F00089801F0B7F9A94A7C
:1056B000A94B01F042F902000B003000390001F063
:1056C0000CF906000F0002000B0001F036F90A90F9
:1056D0000B91089BA14A9446634400210022089143
:1056E00009921B0509930023089332003B00300008
:1056F000390001F0FBF80E900F9132003B000020C2
:105700008021C90501F0E9F806000F000022944B42
:105710000A980B9901F0F3F80022924B01F0E6F899
:1057200002000B000A980B9901F0E9F800228E4B59
:1057300001F0DCF802000B000A980B9901F0DFF889
:1057400002000B003000390001F0D0F802000B001D
:105750000E980F9901F0D3F80022714B01F0C6F8B2
:10576000089A099B01F0E9F806000F0008960997CE
:10577000069A079B01F03AF900282FD001235B42DB
:105780009C46E3440022774B3000390001F0B7F823
:105790000890099122E01E9B04931D9B03931C9B80
:1057A00002930094019553460C9A4946404600F0F6
:1057B000FFF811B0F0BCBB46B246A946A046F0BD0A
:1057C0000021002206910792069480231B069C4626
:1057D000AC446346079310E700239B465B46633364
:1057E000C62B20D804261E9B1B0528D5089A099B8A
:1057F000190011430FD05D4A5D4B0698079901F0DF
:10580000EDF800287AD000225A4B0698079901F04B
:10581000D7F8002872D01C9B5B4506DD5A469B1AC0
:10582000013B1C9303E00526DDE700231C93802346
:10583000DB001E9A1A431E92002600239B461D9BE6
:105840009E4265D29F1B02231E9A1A400A921E9AFC
:10585000134202D0002E00D000275B46002B07D059
:10586000089A099B0698079901F049F80690079154
:10587000002200232000290001F0A2F8002800D017
:105880007CE03D4B1E9A1340049303971C9B0293AC
:10589000069B079C0093019453460C9A4946404648
:1058A00000F086F8002E00D183E71E9B9B0671D581
:1058B0004525441C5346020049462800C0475A4625
:1058C000D317D2185A4005230593013E04960023AE
:1058D00003930A3302935B46DB0F01930092534616
:1058E000220049464046FFF76EFD0A9B002B00D17F
:1058F0005FE7020047460C9E1D9D53E01C9B002B5A
:105900009DD00D9B002B9AD01C9B013B1C9396E7CE
:10591000002798E7FFFFEF7FFFFFEFFF01FCFFFF8E
:105920000000F03FFB799F501344D33FB3C8608B16
:10593000288AC63F0000F83F61436F63A787D23FC4
:1059400071A379094F930A400000E03F1655B5BB9B
:10595000B16B0240EF39FAFE422EE63FFF03000032
:1059600000002C4000002440000018402D431CEB98
:10597000E2361A3F80842E41FFF7FFFF069C079D09
:105980002200290080200006844661440B00069214
:10599000079376E765258CE7541C5346494620203B
:1059A000B8472200931BAB42F6D3100001E7C04674
:1059B000F0B5DE4657464E464546E0B595B00690F2
:1059C000079193469946209F1E9A1F9B100019002D
:1059D00001F011F8002831D101225242BF4B1E982C
:1059E0001F9900F0EDFF002837D101225242BC4B35
:1059F0001E981F9900F0FAFF00283DD10022B94BF4
:105A00001E981F9900F0F2FF002850D10022B64BDB
:105A10001E981F9900F0D4FF002848D100220023CF
:105A20001E981F9900F0CCFF002850D10023984603
:105A3000229B5B0500D4B6E0002458E0229B039330
:105A4000219B029303230193A84B00934B465A4694
:105A500007990698FFF7D8FB0EE1229B0393219B41
:105A6000029304230193A24B00934B465A46079995
:105A70000698FFF7C9FBFFE00423229A1A402299F7
:105A80000B4210D09B4B002A0FD004222299039185
:105A900021990291019200934B465A460799069824
:105AA000FFF7B2FBE8E0944BEDE70322EEE7229B21
:105AB0000493219B039302971E9B1F9C00930194C8
:105AC0004B465A4607990698FFF762FDD4E01E9AA6
:105AD0001F9B0020002100F000FF1E901F9101235A
