:020000041000EA
:1000000000B5324B212058609868022188439860DF
:10001000D860186158612E4B002199600221596106
:100020000121F02299502B49196001219960352056
:1000300000F044F80222904214D00621196600F024
:1000400034F8196E01211966002018661A6600F04E
:100050002CF8196E196E196E052000F02FF8012189
:100060000842F9D1002199601B49196000215960AB
:100070001A491B48016001219960EB211966A021F2
:10008000196600F012F800219960164914480160C1
:100090000121996001BC002800D000471248134993
:1000A000086003C880F30888084703B5996A0420EC
:1000B0000142FBD001200142F8D103BD02B5186610
:1000C0001866FFF7F2FF186E186E02BD00000240BE
:1000D000000000180000070000035F00212200005C
:1000E000F4000018222000A00001001008ED00E03C
:1000F00000000000000000000000000074B24E7A12
:1001000000200420F7010010C3010010C5010010F9
:10011000C1010010C1010010C1010010C101001097
:10012000C1010010C1010010C1010010C701001081
:10013000C1010010C1010010C9010010CB01001065
:10014000CD010010CD010010CD010010CD01001037
:10015000CD010010CD010010CD010010CD01001027
:10016000CD010010CD010010CD010010CD01001017
:10017000CD010010CD010010CD010010CD01001007
:10018000CD010010CD010010CD010010CD010010F7
:10019000CD010010CD010010CD010010CD010010E7
:1001A000CD010010CD010010CD010010CD010010D7
:1001B000CD010010CD010010CD010010CD010010C7
:1001C00000BE00BE00BE00BE00BE00BE00F04BF888
:1001D000103800BEF2EB8871908E0310B08E0310C1
:1001E0003402001090A31AE700202149086006C8D5
:1001F00081F3088810471F48006800282FD10DA4FC
:100200000ECC002902D000F012F8F9E71A491B4A77
:10021000002000E001C19142FCD1194988471949E9
:1002200088471949884700BEFDE701C901C29A42C3
:10023000FBD37047B08E0310C0000020F8130020DD
:10024000E8A103100000042000000420E8A103102E
:1002500000100420001004200000000070470B482C
:1002600004F004FC0047EFF30580C0B270470000C3
:1002700008ED00E0000000D0F8130020EC22002080
:1002800075330010A90500103133001057560000D7
:1002900006005250ABB360539071031006005250E9
:1002A000861C0302A0710310060052505422A29D26
:1002B000A871031005005250DE65F468E8A1031030
:1002C000F8B5C04610B5064C2378002B07D1054B76
:1002D000002B02D0044800E000BF0123237010BDB2
:1002E000081500200000000008E70010044B10B5BE
:1002F000002B03D00349044800E000BF10BDC046F6
:10030000000000000C15002008E7001082B0D02388
:100310001B065B68C340012119400023019302E0E2
:10032000019B01330193019A1D4B9A42F8D9D023C6
:100330001B065A68C24001231340994201D002B003
:100340007047002802D1174B00221A7001280FD0E5
:10035000062811D0022813D0072815D0032817D05B
:10036000082819D00928EAD10E4B09221A70E6E7AD
:100370000C4B01221A70EBE70A4B06221A70E9E7D0
:10038000084B02221A70E7E7064B07221A70E5E7CE
:10039000044B03221A70E3E7024B08221A70E1E7CC
:1003A0000F270000A807002030B583B01B4C2000A9
:1003B00000F06EFC1A4D009523001A4A0A21052010
:1003C00000F0A4FF00952300174A1E21052000F02D
:1003D0009DFF00952300154A3221052000F096FF6D
:1003E00000952300124A4621052000F08FFF00955A
:1003F0002300104A5A21052000F088FF00952300B1
:100400000D4A6E21052000F081FF009523000B4A64
:100410008221052000F07AFF03B030BD1FF80000F4
:10042000FFFF000008E700101CE7001030E7001095
:100430003CE7001048E7001054E7001060E70010A8
:1004400010B5002829D02A4B01220421002001F0F8
:10045000B1F901220421012001F09CF901220421BB
:10046000022001F097F901220421032001F092F902
:1004700001220421062001F08DF901220421072028
:1004800001F088F901220421092001F083F90122F9
:100490000421082001F07EF910BD154B0022042133
:1004A000002001F087F900220421012001F072F9F7
:1004B00000220421022001F06DF900220421032012
:1004C00001F068F900220421062001F063F90022FE
:1004D0000421072001F05EF900220421092001F027
:1004E00059F900220421082001F054F9D4E7C0464C
:1004F0000D03001010B5002001F0B8F9D024240637
:100500000123A36200220121002001F0CFF8012085
:1005100001F0ACF90223A36200220121012001F0C5
:10052000C5F8022001F0A2F90423A36200220121F0
:10053000022001F0BBF8032001F098F90823A36220
:1005400000220121032001F0B1F8062001F08EF90C
:100550004023A36200220121062001F0A7F8072012
:1005600001F084F98023A36200220121072001F019
:100570009DF8082001F07AF980235B00A362012234
:100580000021082001F092F8092001F06FF9802382
:100590009B00A36201220021092001F087F80120BD
:1005A000FFF74EFF10BD0000F0B5CE46474680B5C0
:1005B000DB4CA54487AADB4B03CB03C211001A888E
:1005C0000A809B788B7005F073FB00F09FFBA026E0
:1005D0007600F0230093330000220021D24800F07F
:1005E000D3FC102000F0E8FA0125029502240194C2
:1005F000CE4B0093F0233200B421002000F0C6FD62
:10060000112000F0D9FA9122002302930194009363
:10061000C8335200B4211E2000F0B8FD02950194A9
:10062000F82636020096C6236022B621202000F06C
:10063000ADFDFA277F00380002F060FAFFF75AFF9D
:10064000029501940096C623A022B621202000F036
:100650009DFD380002F052FA00F0DEFE0295019492
:100660000096C623E022B621202000F08FFD38003E
:1006700002F044FA9022029501940096C62352009B
:10068000B621202000F082FD0CF02EFD002803D1C1
:10069000A74805F0CFFAFEE70122A649A64868441C
:1006A0000AF016FF011E03D0A44805F0F5FAFEE794
:1006B000A349A44808F05CF9FA246400200002F081
:1006C0001DFAA14D280000F0E3FA200002F016FA0E
:1006D000FFF76AFE0021080000F02EFF9B4800F0A3
:1006E00099FF00260296F33CFF3C019400955A23A3
:1006F000C8224721272000F049FD02960194009668
:100700004623C8223321272000F040FD0822310073
:1007100085A805F013F97F236A468D495218137096
:100720007C3B6A468B495218137085A800F068FE1E
:10073000310005A800F00BFE012398460334E7E0E2
:10074000854BFF221A702500AC4200D1DFE0052D59
:1007500000D9DCE0AB00814AD3589F46042C04D872
:1007600005257D4BFF221A70EEE72500F9E7052CE1
:1007700004D0794BFF221A702500E5E7002EF8D04F
:10078000F3B29846771EBFB20020FFF759FEF1B2D0
:10079000142569430B0046333331002602960222AA
:1007A00091460192684A0092C822272000F0EEFC90
:1007B0007D43ADB22B0046339BB23335A9B20296CE
:1007C0004A4601920096C632272000F0DFFC012045
:1007D000FFF736FE3E00CCE7052C04D05E4BFF222F
:1007E0001A702500B0E7032EF8D8F3B29846771CAC
:1007F000BFB20020FFF724FEF1B2142569430B00BD
:1008000046333331002602960222914601924E4A27
:100810000092C822272000F0B9FC7D43ADB22B0026
:1008200046339BB23335A9B202964A4601920096EE
:10083000C632272000F0AAFC0120FFF701FE3E008F
:10084000CCE7052C04D02500434BFF221A707BE730
:10085000F5B2F9E785A905A800F0B8FD022100204E
:1008600000F06AFE3E4800F0D5FE3B4BFF221A70B6
:10087000250069E785A905A800F0A8FD0221002050
:1008800000F05AFE374800F0C5FE334BFF221A70C5
:10089000250059E785A905A800F098FD0221002050
:1008A00000F04AFE304800F0B5FE2B4BFF221A70D4
:1008B000250049E7250047E7FFF776FD0020FFF711
:1008C000BFFD14244146614389B20B0046339BB2FD
:1008D000333189B2002702970222914601921A4AC7
:1008E0000092C822272000F051FC7443A1B20B00F3
:1008F00046339BB2333189B202974A460192009740
:10090000C632272000F042FC0120FFF799FD2C00A1
:10091000114B1A78092ACDD89300144AD3589F4610
:100920002CCAFFFFACE80010F8E80010FFFF000041
:100930006CE7001094E700106833000098E700109F
:100940004059730700C003401FF80000C4E70010BF
:100950001502000017020000A8070020B8E80010E8
:10096000D8E70010ECE70010F8E70010D0E800101E
:10097000F8242402200000F08BF9444B009323005C
:10098000434A1E21142000F0C1FC4249424807F0AE
:10099000EFFF012287A9414868440AF0C9FD0028F9
:1009A00008D187A93E4805F077F93E4805F042F99D
:1009B000002411E001003C4805F06EF9FEE70CF060
:1009C0006FFD671C64008AAB1853384900200DF096
:1009D00083FC3C000028F2D1304A6A44344935484F
:1009E00068440BF057F9002805D030493148684475
:1009F0000DF072FCEEE7002707E07A008AABD15ACF
:100A00002D4805F049F90137BFB2A742F5DB2B4865
:100A100005F010F9214868440BF024F928491E48D4
:100A200007F0A6FF73E71F2000F032F9174B009381
:100A30001F23244A1E21142000F068FC67E7FC24D1
:100A4000E400200000F024F9104B009323001E4A1C
:100A50001E21142000F05AFC59E7002000F018F97C
:100A60000A4B00930023194A1E21142000F04EFC6B
:100A70004DE7174C200000F00BF9044B00932300C6
:100A8000034A1E21142000F041FC40E7FFFF000054
:100A900004E8001040787D0100C0034008310000E8
:100AA0003CE8001058E8001018E8001060E800105A
:100AB00010270000F809000064E8001068E8001042
:100AC0004059730770E8001084E8001098E800109F
:100AD0003084000000B583B001A9087001220248EB
:100AE0000DF0FAFD03B000BD00C00340F0B5C646EE
:100AF00000B582B004000800984608AB1F78002FAC
:100B000020D0012F1CD001239B011A4380235B427C
:100B10001A436B46D91D0A7001258540D02636063A
:100B2000B561012220000DF0D7FD3B0042460021B7
:100B300020000DF0A1FD756102B080BCB846F0BD8B
:100B40000023E1E701204042F6E70000F8B5040089
:100B50000B4F3B7801252A009A40D0263606B26119
:100B6000084B1B782A009A407261000AFFF7B2FF17
:100B7000E0B2FFF7AFFF3B789D407561F8BDC0461E
:100B8000AB070020A907002070B5094E3378012477
:100B900022009A40D0252D06AA61064B1B78220020
:100BA0009A406A61FFF796FF33789C406C6170BD94
:100BB000AB070020A907002010B5074B1A780123C6
:100BC00019009140D02212069161044909788B40A6
:100BD0009361FFF77FFF10BDAB070020A90700203E
:100BE00070B505000C002A20FFF7E6FF2E0A300042
:100BF000FFF7CAFFEDB22800FFF7C6FF3000FFF78E
:100C0000C3FF2800FFF7C0FF2B20FFF7D5FF250A01
:100C10002800FFF7B9FFE4B22000FFF7B5FF280076
:100C2000FFF7B2FF2000FFF7AFFF2C20FFF7C4FF54
:100C300070BDF8B507000E0015001C002A20FFF754
:100C4000BBFF0020FFF7A0FFF8B2FFF79DFF681E73
:100C50000012C0B2FFF798FFE8B20138C0B2FFF748
:100C600093FF2B20FFF7A8FF0020FFF78DFFF0B2C6
:100C7000FFF78AFF601E0012C0B2FFF785FFE0B2E7
:100C80000138C0B2FFF780FF2C20FFF795FFF8BDB9
:100C900070B50500A022F023520000210020FFF7CC
:100CA000C8FF0D4B1A7801239340D02212065361DE
:100CB000002609E0280AFFF70DFFE8B2FFF70AFF58
:100CC0000134EF2CF6D90136A0235B009E4201D2FD
:100CD0000024F6E770BDC046A907002070B5C82003
:100CE00001F00CFF084E3378012422009A40D025F1
:100CF0002D06AA61C82001F001FF33789C406C6189
:100D0000C82001F0FBFE70BDAA070020F0B585B039
:100D100004F0CEFF904E307800F0A8FD3378012526
:100D20002A009A40D0242406626262618B4F387890
:100D300000F09CFD3B782A009A4062626261884F15
:100D4000387800F093FD3B782A009A406262A261F5
:100D5000844C8549200007F00BFE2268072353408E
:100D6000CF221A4080235B0123431A607F4B1878FF
:100D7000012100F083FC7E4B1878012100F07EFCFD
:100D80007C4B1878012100F079FC3178009502AB9A
:100D900000222000FFF7AAFEFFF7A0FF3620FFF792
:100DA0000BFFA020FFF7F0FE3A20FFF705FF5520CC
:100DB000FFF7EAFE0A2001F0A1FE2120FFF7FCFE6A
:100DC0002A20FFF7F9FE0020FFF7DEFE0120FFF7E3
:100DD000DBFE0020FFF7D8FE3F20FFF7D5FE2B20DB
:100DE000FFF7EAFE0020FFF7CFFE0020FFF7CCFE62
:100DF0000020FFF7C9FEEF20FFF7C6FEB220FFF785
:100E0000DBFE0120FFF7C0FE0120FFF7BDFE002042
:100E1000FFF7BAFE3320FFF7B7FE3320FFF7B4FE2B
:100E2000B720FFF7C9FE3520FFF7AEFEBB20FFF766
:100E3000C3FE1F20FFF7A8FEC020FFF7BDFE2C2039
:100E4000FFF7A2FEC220FFF7B7FE0120FFF79CFECE
:100E5000C320FFF7B1FE1220FFF796FEC420FFF774
:100E6000ABFE2020FFF790FEC620FFF7A5FE012075
:100E7000FFF78AFED020FFF79FFEA420FFF784FE35
:100E8000A320FFF781FEE020FFF796FED020FFF7BA
:100E90007BFE0820FFF778FE1120FFF775FE082083
:100EA000FFF772FE0C20FFF76FFE1520FFF76CFEB8
:100EB0003920FFF769FE3320FFF766FE5020FFF769
:100EC00063FE3620FFF760FE1320FFF75DFE14205F
:100ED000FFF75AFE2920FFF757FE2D20FFF754FE9B
:100EE000E120FFF769FED020FFF74EFE0820FFF754
:100EF0004BFE1020FFF748FE0820FFF745FE0620B6
:100F0000FFF742FE0620FFF73FFE3920FFF73CFEC9
:100F10004420FFF739FE5120FFF736FE0B20FFF784
:100F200033FE1620FFF730FE1420FFF72DFE2F2092
:100F3000FFF72AFE3120FFF727FE2120FFF73CFEB6
:100F40001120FFF739FE2120FFF736FE2920FFF799
:100F500033FE05B0F0BDC046AB070020AA07002055
:100F6000A907002000C0034040597307AE070020C6
:100F7000AD070020AC07002010B51400FFF730FECD
:100F80002000FFF7E3FD10BDF8B5CE46474680B51B
:100F900080461E0008AB1B8899461020FFF70CFE08
:100FA0000027002516E002350134A64211DDA022FB
:100FB00052009442F7DAEF2FF5DC43465B5D1B02EB
:100FC0004246521952781A43B9B2A0B2FFF7D4FF81
:100FD000E9E70137B94501DD0024E6E71120FFF715
:100FE000EBFDC0BCB946B046F8BDF8B5DE46574685
:100FF0004E464546E0B506000F0091461D000AAB7F
:101000001B78012B27D0002398463CE05C46013436
:1010100023B29B46DA466B00013B98469B4537DA84
:1010200000231A004345F1DA51467118491BEDD4EB
:10103000BA18521BEAD45A46B01880B29CB2E119D1
:1010400089B2491B89B2401B80B24A46FFF794FF20
:10105000631C1BB2E5E700239B46DBE74346F01821
:1010600080B2A4B2E11989B2013989B2013880B2E3
:101070004A46FFF781FF013424B25445EEDB434674
:1010800001331BB29846AA46A84501DA0024F4E7CA
:10109000F0BCBB46B246A946A046F8BDF0B5DE4658
:1010A00057464E464546E0B58BB006000F00079206
:1010B0001C00059314AB1988039115AB1978884669
:1010C00016AB19788B46131AD81719184140894660
:1010D000E31BD817191841400691D917CB1A4B407A
:1010E0009A4696420BD201230893059B9F420AD24F
:1010F000012309934B46069A9D1A002426E00123FA
:101100005B420893F1E701235B420993F2E7012375
:1011100000934346039A39003000FFF766FF6B00E7
:10112000534508DB079B9E4227D0069BED1A089B80
:101130009C466644B6B26B004B4507DC059B9F425C
:101140001BD04D44099B9C466744BFB20134E4B2B6
:101150005B46012BDBD10321200003F0DBFCCBB28B
:101160000493002BD3D1013300934346064A390040
:101170003000FFF73AFF049CD1E70BB0F0BCBB4650
:10118000B246A946A046F0BDFFFF0000F0B5D64626
:101190004F464646C0B584B004000F0015001E003F
:1011A0000CAB1B8898460DAB1B7899460EAB1B7891
:1011B000002B3CD100239A4602934B4601934346B1
:1011C00000930B00FFF76AFF534602934B460193CF
:1011D000434600933300220039002000FFF75EFFF2
:1011E000534602934B460193434600933B002A002B
:1011F00031002800FFF752FF534602934B460193FC
:10120000434600933300220031002800FFF746FFD9
:101210000FE0002002904B460193434600933300B9
:10122000220039002000FFF739FF0134A4B2AC429C
:10123000EFD304B0E0BCBA46B146A846F0BD00000A
:10124000F8B5DE4657464E464546E0B582468946E5
:101250001E000AAB1B889B46203AD3009A18D30085
:1012600098460025002742E04346EB18254AD15C0A
:1012700007222240802313410B4212D04B46F9181B
:1012800089B25346E01880B25A46FFF775FE08E06F
:101290004B46F91889B25346E01880B23200FFF786
:1012A0006BFE07232340072B1AD00134A4B2102C65
:1012B00019D8154B9E42D7D04346EB18114AD15C42
:1012C00007222240802313410B42E1D04B46F918FC
:1012D00089B25346E01880B25A46FFF74DFEE0E768
:1012E0000135EDB2E1E70135EDB20137BFB2172F9D
:1012F00001D80024DBE7F0BCBB46B246A946A046B5
:10130000F8BDC04600410310FFFF0000F0B5CE4617
:10131000474680B583B00400884616001F000AAB1C
:101320001B88994600250AE04B4600933B00414646
:101330002000FFF785FF0135ADB21134A4B2725D14
:10134000002AF1D103B0C0BCB946B046F0BD0023BD
:1013500001E0C1540133802292009342F9D37047D7
:1013600000B585B080236A46137350730023009341
:10137000023303AA3C21024807F072FC05B000BD0D
:10138000800B0020F0B583B006000D004F1C380024
:1013900004F0B6FA0400012304E0F218013A1278CE
:1013A000E2540133AB42F8DD402323700023009365
:1013B0003B0022003C21044807F052FC200004F0CE
:1013C000B1FA03B0F0BDC046800B002070B5050037
:1013D0000C002120FFF7C4FF2078FFF7C1FF6078E1
:1013E000FFF7BEFF2220FFF7BBFFA078FFF7B8FF93
:1013F000E078FFF7B5FF61682800FFF7C3FF70BD15
:1014000043780178591A0131C2788378D31A0133AD
:101410004B4343607047000080B5424FBD440822F3
:10142000002180A804F08AFA7F236A463E495218B8
:1014300013707C3B6A463D49521813703C493D4845
:1014400007F0E2FB0321042000F018F90321052036
:1014500000F014F900220121042000F027F90022F5
:101460000121052000F022F9AE20FFF779FF2020AE
:10147000FFF776FF0120FFF773FF4020FFF770FFB3
:10148000A120FFF76DFFA820FFF76AFF1F20FFF7DD
:1014900067FFC020FFF764FFD320FFF761FF002044
:1014A000FFF75EFFDA20FFF75BFF0220FFF758FF30
:1014B000D520FFF755FF8020FFF752FFD920FFF717
:1014C0004FFFF120FFF74CFFDB20FFF749FF3020F3
:1014D000FFF746FF8120FFF743FFFF20FFF740FFA4
:1014E000A420FFF73DFFA620FFF73AFF8D20FFF76E
:1014F00037FF1420FFF734FF2E20FFF731FFAF2016
:10150000FFF72EFF80A8FFF77BFF00216846FFF75B
:101510001EFF80A96846FFF759FF82239B009D4468
:1015200080BDC046F8FDFFFF01020000030200007D
:10153000801A0600800B002030B585B005000C0035
:101540002120FFF70DFF2800FFF70AFF7F20FFF79C
:1015500007FF2220FFF704FF2000FFF701FF07200D
:10156000FFF7FEFE03AA084B1B78137000230093BD
:1015700001333C21054807F073FB054B1D70054BFB
:101580001C7005B030BDC046B85B0310800B002056
:10159000E4220020E322002010B586B00A2830D0D3
:1015A0002038C4B201AB40221A70002201230DE0A2
:1015B000200115490918885C01A9C854134801780D
:1015C000013101700133DBB20132D2B2102BEFD9FD
:1015D0002120FFF7C5FE0E4C2078FFF7C1FE2078D2
:1015E0000730C0B2FFF7BCFE2220FFF7B9FE012092
:1015F000FFF7B6FE0220FFF7B3FE112101A8FFF7A7
:10160000C1FE06B010BDC046BC5B0310E322002043
:10161000E422002070B50500002407E0FFF7BCFFBE
:101620000134E4B2034A137808331370285D0A28A2
:10163000F4D170BDE42200200120704710B50400F1
:10164000FFF7FAFFA04205D3AC2080006043024BB5
:10165000C01810BD0020FCE7B00700200120704733
:1016600010B50400FFF7E8FFA04203D3A001024C2D
:10167000201810BD0020FCE7600A002010B5830090
:10168000084A944663441C6840226240C0241440C7
:101690008022520113431C60C000034B9C466044EF
:1016A000416010BD04C001400040014080000B4B70
:1016B0009C46604400290DD00823002A0CD0042247
:1016C0001343026853400C221340802252011043FE
:1016D000036070470023F0E70022F1E704C00140F7
:1016E0008000064B9C466044090103685940302342
:1016F000194080235B0118430160704704C001401A
:1017000070B50400D0231B061D68AA000C4BD358EB
:10171000002B0AD0002803D0AD00094BEC5070BD5F
:1017200008490D2000F01EFBF6E70028F7D0AD00B9
:10173000034BE850002203490D2000F0FBF9EEE7CF
:10174000D01B0020D5170010072303409B00C008C2
:1017500099403C308000014BC1507047004001402F
:10176000F8B507000C0016001D00FFF7EDFFFB08A1
:101770009B00ED180720384080008440002E04D0E4
:1017800080239B011D432C60F8BDC0239B011D439A
:101790002C60F9E710B5D0231B061B68002B03D083
:1017A000024BFFF7DDFF10BD014BFAE7304101406E
:1017B0000041014070B514001D00FFF7EBFF280049
:1017C000FFF79EFF002C00D170BD01210D2000F01D
:1017D0005DF9F9E7F0B5D6464F464646C0B5D02389
:1017E0001B061F68BA001D4BD3589846002F03D024
:1017F0001B4B9946002623E01A4B9946FAE7240929
:101800000135002C1BD033000833AB4217D90F230E
:101810001A00224092462342F1D0BB00124A9A5845
:101820000123AB401342EAD151462800FFF78CFF59
:101830004346002BE3D051462800C047DFE7083677
:101840001D2E06D8F30808339B004A469C583500E5
:10185000D7E7E0BCBA46B146A846F0BDD01B002091
:1018600030410140004101409420002010B5012387
:101870008340D0221206936293610521FFF7FEFE9A
:1018800010BD0000EFF3108072B6034B1B68002BF5
:10189000FBD0BFF35F8F70472C0100D0BFF35F8F89
:1018A000024B00221A6080F3108870472C0100D090
:1018B000F8B506000C001500FFF7E4FFE308F71881
:1018C000F15C07222240012393400B4205D1DBB299
:1018D0000B433B70FFF7E2FFF8BD2100280001F049
:1018E000C5FDF0B583B00600019114001F00FFF79D
:1018F000C9FF00E00134BC420CD8E308F518F35CE2
:101900000721214001228A401A42F3D1D2B21A4360
:101910002A7001E001246442FFF7C0FF002C02DBC3
:10192000200003B0F0BD019B002BF9D0089801F016
:101930009DFD0000034B1B6802201840431E984188
:10194000C0B2704700C00640002307E0054A9A185D
:101950009200BFF35F8F0021116001331F2BF5D977
:101960007047C04640000034054A1078431CDBB283
:101970001370172B02D9130010221A707047C0463B
:10198000A00A002000B583B00100044B00931F2380
:1019900018220348FFF7A5FF03B000BDAC61031098
:1019A000D81B0020074B9B68103080001950BFF3F4
:1019B0005F8FBFF35F8F044B0021196082F31088A3
:1019C0007047C04600ED00E0240100D010B5091AB0
:1019D000081F0A4B9C466144094A914208D8C30734
:1019E00006D440104005400D064B184380B210BD90
:1019F000054B064A9921064801F09EFCFC070000B1
:101A0000FE0F000000E0FFFFC86103102C6403100C
:101A1000F861031010B5091A04394C08090B08D1F4
:101A20004905490D064A11430180064B2343438073
:101A300010BD054B054AA121054801F07DFCC046BB
:101A400000F0FFFF00F8FFFF3C620310006403108A
:101A5000F861031001238340034A10681840431EB5
:101A60009841C0B27047C04600E100E0002904D0B0
:101A7000034B1860034B18607047034B1860FBE77B
:101A800080E200E000E100E080E100E010B5012329
:101A900083401800FFF7EAFF10BD000001238340D8
:101AA000014A13607047C04600E200E0024B9B68A9
:101AB00010308000C058704700ED00E010B5FFF70F
:101AC000F5FF002805D0054BC01A2F2803D80120A8
:101AD00010BD0020FCE70020FAE7C046A40A002061
:101AE00070B504000D00EFF3108672B60C4B1B6846
:101AF000002BFBD0BFF35F8F2000FFF7D7FF094B10
:101B0000984201D0A84205D1320029002000FFF7F9
:101B100049FF70BD044B054A7C21054801F00CFCCF
:101B2000240100D0CD0100104C620310606403104A
:101B3000F8610310F0B5DE4657464E464546E0B51F
:101B400089B0814601911500EFF3108A72B6744B8B
:101B50001B68002BFBD0BFF35F8F724B0027DF5752
:101B6000002F40DB7C00E419A4006F4824180622F3
:101B7000A2566C4B1A706D4B9A684B4610339B0003
:101B8000D35898461E001B1A2F2B38D9684B9845FE
:101B90002FD105AE674B33807B009B46D819800060
:101BA000614B9846404402306349FFF70FFF708055
:101BB000624BB380FF23B371F571019B07935F44C0
:101BC000BF0047440ECE0EC701231C43A046524619
:101BD00041464846FFF7E6FE09B0F0BCBB46B246B8
:101BE000A946A046F0BD564B564ACD21564801F0B5
:101BF000A3FB564B534AD421534801F09DFBC043ED
:101C000040440C2102F086FF002912D101239E439B
:101C1000B34633000026DA79AA4211D90621595673
:101C200000290CDB4A00521892001E003E4B9B1804
:101C3000F1E7474B434AE021434801F07DFB1E009A
:101C4000002E3BD005AB434A1A80813A5A800623C6
:101C5000F3560293002B18DABD20000205AB9B4619
:101C60009880029A9A71DD71019A0792301D2100C5
:101C7000FFF7ACFEB080B7717B00DB199B002A4FE9
:101C8000FF185B4607CB07C7A1E77800C0198000A3
:101C9000254BC0180430321DB388D90A1C2907D13E
:101CA0005B055915023149005118FFF78FFED5E742
:101CB000294B2A4AA721244801F03EFB05AE1D4BC3
:101CC00033807B000293D8198000174A90460200A7
:101CD00042440392901C1849FFF778FE7080039AE3
:101CE000101D5946FFF772FEB0801D4B5A46414603
:101CF000521A524153431B0DB371F571019A079269
:101D0000029B9C466744BF0047440ECE0EC7114B52
:101D10005A461380813B538001231C43A04656E75B
:101D2000240100D0E7220020A40A002000ED00E0FA
:101D3000CD01001000A1FFFFD40A002000BDFFFF6D
:101D40008462031048640310F8610310AC6203104E
:101D5000D462031001480000486303103864031084
:101D6000AAAA0000F0B5CE46474680B583B006006B
:101D70000D00EFF3108872B6564B1B68002BFBD09A
:101D8000BFF35F8F544B9A6834001034A300D758C8
:101D9000524B9F4207D0AF4200D199E00197504B80
:101DA000FB1A2F2B09D9424639003000FFF7FAFD04
:101DB00003B0C0BCB946B046F0BD3000FFF74AFEE4
:101DC000814600213000FFF761FEBFF35F8FFEF711
:101DD0004AFA002801D0844211D10123019C9C437E
:101DE0000022A368AB4212D00622A256002A0DDBC5
:101DF00053009B189B002200394CE418F1E72C217A
:101E0000384B394AFF31394801F096FA2200AB428B
:101E100057D106256557002D39DB6B005B199A00F9
:101E20002F4B9B189A68A260DA79E27106229A56C3
:101E3000A2719B795BB2002B10DABD200002A0805A
:101E40006B005B199B00264AD318294A11789971B7
:101E5000157049463000FFF719FEA4E7201D6B00FE
:101E60005B199B001E4A9B181A1D9B88D90A1C29C6
:101E700007D15B055B15023359005118FFF7A6FD2A
:101E8000DDE71C4B1C4AA721184801F055FA002831
:101E900012D1002A0ED0FF239371184B9380144A5D
:101EA0001378A371164B0E49641A644163431B0DEA
:101EB0001370CEE7094FF2E7201D1249FFF7AAFD84
:101EC000C7E76021104B084AFF31084801F034FA97
:101ED000024F68E7240100D000ED00E0CD010010C2
:101EE000A40A00206063031018640310F861031053
:101EF000E7220020486303103864031000BDFFFF91
:101F0000AAAA0000DE0A00208463031070B5040052
:101F1000012606432D4BF31A2F2B28D8FEF7A3F9E1
:101F200000282BD0EFF3108C72B6294B1B68002BC6
:101F3000FBD0BFF35F8F274D22002449521A524134
:101F400055432D0D6DB2244B9B6880001B58B34246
:101F50001BD00022032A32D853009B189B001B4938
:101F6000CB189B795BB2AB421FD00132F2E7C221A2
:101F70001A4B1B4A49001B4801F0DEF988211A4B15
:101F8000174AFF31174801F0D7F9134B9B68174ADE
:101F90001A50174B1A78A2711D70BFF35F8F0C4B4C
:101FA00000221A608CF3108870BD08005300991845
:101FB00089004118FF268E710E4A8A80E9E7CC21FC
:101FC0000D4B074A4900074801F0B6F9A40A002062
:101FD000240100D0AAAA000000ED00E08C630310E9
:101FE000E4630310F8610310B4630310CD01001023
:101FF000E722002000BDFFFFC06303100022044B56
:1020000002E0044902C30132072AFAD97047C046E8
:1020100000E400E08080808000B583B00100D02320
:102020001B061B680648C018064B009305230022B8
:10203000FFF757FC002801DB1F23181A03B000BD6F
:10204000D8220020C863031070B504000E001500EC
:10205000FFF78AFC0100200000F006F8A680E5806A
:10206000BFF35F8F70BD0000024B9C466144890046
:10207000016070474000003470B505000C00080096
:1020800000F0CCFD200000F0D5FE0849200000F053
:1020900015FEFFF769FC064B9C46604480006860B3
:1020A0002C75A400034BE55070BDC046BD23001045
:1020B00040000034842000200A4B1A68EFF310819E
:1020C00072B61368002BFCD0BFF35F8F054B1B6803
:1020D000BFF35F8F00221A6081F3108840BF002099
:1020E00000217047A822002010B5002922D00368E3
:1020F0001B7B99421ED8174B9C466144090183689B
:102100009C4661440C684968002A19D003681B7B0F
:102110009A4215D883680F488446624412019A187F
:1021200010685368020001208B4201D80ED00020B5
:10213000C0B210BD084B094A3B21094801F0FCF828
:10214000054B064A3B21064801F0F6F8A242EFD8BB
:10215000EDE7C046FFFFFF0FB465031018680310DA
:102160007865031010B500291ED0037B99421BD857
:102170004B005B18033B0468A4466344002919D054
:10218000002A1DD0914221D0002A25D0047BA242F2
:1021900022D80468500080180338201881701978FC
:1021A00000291FD11A7010BD104B114A6821114827
:1021B00001F0C2F8104B114A6F310E4801F0BCF823
:1021C0000F4B0E4A70210B4801F0B6F80D4B0B4A2D
:1021D0007121084801F0B0F8044B054A6821054810
:1021E00001F0AAF841701A70DDE7C046E8650310F7
:1021F00084680310046603105466031060680310BB
:10220000606603106C66031070B506000D001400C4
:10221000002914D0002A14D08068736898470028D9
:1022200006D0220029003000FFF79CFF280007E0BD
:102230002A0021003000FFF795FF200000E0100089
:1022400070BD0800FCE70000F0B583B00500009207
:1022500001930AAB1C780BAB1F78002C26D00368C7
:102260005A7B944207D10123002B19D1002C3BD17A
:10227000200003B0F0BD002C0CD01A7B944209D88A
:102280001A6863001B19033BD3189B78002BEBD013
:102290000123E9E73E4B3F4A68213F4801F04CF8F3
:1022A0003E4B3F4A65213F4801F046F803689C7B5E
:1022B000002CDBD012D01A7B94420FD86200121986
:1022C000033A19688C46624451789973002900D109
:1022D000D9730023937053701370C7E72C4B2D4AAA
:1022E00068212D4801F028F8002C3AD02B681B7B80
:1022F0009C4236D82C4BE3181B01AA6894466344D1
:10230000009A1A60019A5A60089A9A60099ADA60EB
:102310002E68002C2BD030D0337B9C422DD863000C
:102320001B19033B32689446634400229A705A702A
:102330001A70717B22003000FFF766FF70738442D1
:1023400000D095E7287D009A019B00F0FFFC061E57
:1023500001D0002F17D00C9B002B00D188E71E70F6
:1023600086E7124B124A3B210E4800F0E5FF114B65
:10237000114AA521084800F0DFFF054B054A6821F6
:10238000054800F0D9FF2868210000F007FFE2E7C8
:10239000E865031084680310046603108466031064
:1023A0009068031078650310FFFFFF0FB4650310FA
:1023B000186803107465031074680310F0B5DE46E6
:1023C00057464E464546E0B58BB00990002308932A
:1023D0008200B24BD658370032E0B14BB14A3F21B0
:1023E000B14800F0A9FFB14BB14A3B21B14800F020
:1023F000A3FFB14BB14A8C21AE4800F09DFFB04B1A
:10240000AE4A9021AB4800F097FFA84BAD4A40215F
:10241000A84800F091FF2A686B68099800F096FCC4
:1024200000239A4698467B68BFF35F8F00221A60AC
:1024300086F310884346002B51D1002800D126E1B5
:1024400000F0F8FB02000B1EC7DB00200021069005
:1024500007917868EFF3108672B601680029FCD006
:10246000BFF35F8F396888464C7B002C32D0BAD0DE
:10247000097B8C42B7D8944965182D01B9688C4600
:10248000654428686968801A99410029C3DC01D134
:102490000028C0D10021404600F076FEA042A8D11D
:1024A0002A686B6806920793AB689846EB689A4671
:1024B0004346002BA3D0002CA7D03B681B7B9C423B
:1024C000A3D8631EFA68D35C08931B0218433861D3
:1024D0000020A8E700239A4698460020A3E7089B1F
:1024E0001B022343994651461800C04705000E00C1
:1024F0007A68EFF3108B72B6136859424B41D9B228
:10250000002BF9D1BFF35F8F002E26DB002E52DDAA
:102510003B69002B53D04B4572D100F08BFB02007E
:102520000B1E73DB0100180052197341984202D848
:1025300004D1914202D901225242D317002B6BDB06
:1025400000210491013103910294514601914146C9
:1025500000913800FFF778FE49E03B69002BD5D0A9
:102560004B451CD1069A079B10001900521BB34122
:10257000994202D804D1904202D901225242D31783
:10258000002B12DB0021049101310391029451468A
:102590000191414600913800FFF756FE27E04B4B72
:1025A000464A9F21434800F0C7FE3D4B3D4A3F212C
:1025B0003D4800F0C1FE002E01D1002DA8D13A689F
:1025C000002C45D0537B9C422CD1012100293FD1C6
:1025D000D37B002B42D1D473002C52D03B681B7BA1
:1025E0009C424ED8FA68013C135D01331355002319
:1025F0003B617A68BFF35F8F13608BF310881FE72E
:10260000324B2E4AA2212B4800F096FE244B254A3D
:102610003F21254800F090FE214B224A3F212248CD
:1026200000F08AFE002C0DD0137B9C420AD8630078
:102630001B19033B1068844663449B78002BC5D06C
:102640000121C3E7224B234A6821234800F074FE8E
:10265000224B234AF621204800F06EFE002B0AD0C0
:10266000117B8B4207D85900CB18033B11688C466D
:1026700063445C70AFE7164B164A6821164800F0B9
:102680005BFE0A4B0F4A40210A4800F055FE0BB092
:10269000F0BCBB46B246A946A046F0BD842000204F
:1026A0007C640310E467031098640310B46503109E
:1026B0001868031078650310AC660310FC670310FC
:1026C000C46603103C680310FFFFFF0FD0660310C1
:1026D000E865031084680310046603100C67031098
:1026E0005068031010B50A4B5B68002B04D00A2118
:1026F0000848FFF7B9FC10BD054C2300064A10211D
:10270000206800F061FC03212000FFF7B5FCEEE734
:10271000EC0A0020A8220020E920001010B5064B8A
:102720005B68002B01D0044810BD044B044A5C21B7
:10273000044800F001FEC046EC0A00203067031098
:102740002468031078650310F0B5DE4657464E4600
:102750004546E0B58BB0804616001F00149B9A4694
:10276000159B994616AB1B789B461F2302AA9446DD
:10277000634400221A7032E0002809D042461268F1
:10278000127B904204D8421E4146C9688A5C48E0E8
:10279000434B444A4021444800F0CEFD0798002BAB
:1027A00075D05B46002B72D04946D04704000D001F
:1027B00003000B4300D171E0002946DB00F03AFA38
:1027C00006000F1E55DB36196F41B94202D804D1FD
:1027D000B04202D901267642F717002F4FDB43465D
:1027E0005A68EFF3108472B6136859424B41D9B25C
:1027F0000791002BF8D1BFF35F8F1F3302AA9446D5
:10280000634404930023039302934B46019353467E
:10281000009332003B004046FFF716FD031EABD18C
:10282000020041464968BFF35F8F00250D6084F3C5
:102830001088002B29D01F2302A98C4663441B78E3
:10284000002BABD112021043A9E732003B00361B2C
:10285000AF41BB4202D804D1B24202D9012676422E
:10286000F717002FBBDA114B114A3F21114800F036
:1028700063FD0E4B0E4A3F210E4800F05DFD0B4BF1
:102880000B4A3F210B4800F057FD012040420BB09E
:10289000F0BCBB46B246A946A046F0BD0798F6E795
:1028A000B46503103C680310786503107C64031062
:1028B000E467031098640310F8B504004268EFF36E
:1028C000108572B6136858424341D8B2002BF9D133
:1028D000BFF35F8FCBB22268567BB3421BD101207E
:1028E000002848D0206988422BD0090AC9B2002BA1
:1028F0002ED02068007B83422AD8581EE668305CC0
:1029000088422BD000206368BFF35F8F00221A60DB
:1029100085F31088F8BD002B0DD0167BB3420AD882
:102920005E00F618033E1768BC466644B678002E73
:10293000D6D00120D4E7134B134A6821134800F086
:10294000FBFC8521124B134A4900134800F0F4FCAC
:10295000124B134A4021104800F0EEFC1900100001
:1029600000F01CFC0028CED112210E4B094AFF3189
:10297000094800F0E1FC23698B42C4D100232361A4
:10298000C1E7C046E86503108468031004660310BD
:1029900054670310CC67031078650310B465031007
:1029A0003C68031078670310F0B587B006000F008D
:1029B000FDF759FC00281FD106246442E517A4192D
:1029C0007D41BD4202D803D1B44201D90024002583
:1029D000002D14DB0494059500F02CF902000B1E69
:1029E00013DBA41A9D41002D17DC14D030003900F0
:1029F00000F02CF907B0F0BD234800F037FD234B61
:102A0000234A3F21234800F097FC204B204A3F21D6
:102A1000204800F091FC002CE8D0FFF77FFE002357
:102A2000029301931C4B0093049A059BFFF78CFEC5
:102A3000002818DADAE7002300E00023002BD5D1C4
:102A4000164B1A68EFF3108172B61368002BFCD096
:102A5000BFF35F8F114B1B68BFF35F8F00221A60BB
:102A600081F3108820BF0499059A0D4B5B6A9A4246
:102A7000E3D80B48806A884203D29A42DBD0012314
:102A8000DCE70123DAE7C0467C6703107C640310AF
:102A9000E467031098640310B9200010A8220020F6
:102AA00000400540F8B504000D0000F0C3F8020036
:102AB0000B1E10DB20002900801859418B4202D8E0
:102AC00004D1824202D901204042C117002908DB0B
:102AD000FFF76AFFF8BD064B064A3F21064800F0A3
:102AE0002BFC034B034A3F21034800F025FCC04662
:102AF0007C640310E46703109864031010B5FA2295
:102B000092000023002102F049FEFFF7CBFF10BD29
:102B100070B584B006000C00FFF700FE002302939E
:102B20000193194B009332002300FFF70DFE051EA1
:102B300011DD20BFFFF7F2FD2900FFF7BDFE134BAB
:102B40005B6A9C421BD8114A926AB2421AD29C42DA
:102B500013D0012014E00D4B5B6A9C4209D80B4A4C
:102B6000926AB24207D29C4201D0012008E00020C4
:102B700006E0002004E0012002E0002000E0002048
:102B800004B070BD0120FBE7B920001000400540F3
:102B900070B5EFF305833F2018401038EFF3108C29
:102BA00072B6194B1B68002BFBD0BFF35F8F01235C
:102BB00019008140154A5163154A12781400C44027
:102BC000234214D0114B5C6A8300124D5B599C4226
:102BD00006D38300104C1B598A430D490A7007E045
:102BE0000A4A031D9B0099589950002300E00023D6
:102BF000BFF35F8F044A002111608CF31088002B13
:102C000000D0984770BDC046280100D00040054064
:102C1000EB220020B4220020C01A002010B50100D1
:102C2000024A0348FEF744FE10BDC046B0680310D8
:102C3000E2220020044B5B6A034A906A1900536A3F
:102C40009942F9D17047C04600400540084B5B6A85
:102C500001E0074B5B6A8B42FBD301E0044B5B6AEC
:102C60008B4203D1024B9B6A8342F7D37047C04625
:102C70000040054070B504000D00FFF7DBFF0200C7
:102C80000B0020002900801859418B4202D804D142
:102C9000824202D901204042C117002902DBFFF71E
:102CA000D5FF70BD024B034A3F21034800F044FBAF
:102CB0007C6403105C6903109864031070B5040011
:102CC0000D00EFF3108672B61B4B1B68002BFBD078
:102CD000BFF35F8F002D1CD02000FEF7E7FE174BDF
:102CE00083420BD019002000FEF7FAFE01212000DC
:102CF000FEF7CCFE0123A340114A1360A400114B40
:102D0000E550BFF35F8F0C4B00221A6086F31088EA
:102D100070BDA2000B4B0021D1500122A2400A49F4
:102D20000B7893430B7005492000FFF71BF8002137
:102D30002000FEF7ABFEE4E7280100D0912B001045
:102D400038600540C01A0020EB220020F0B5DE46B6
:102D500000B584B00400150001921E000293FFF735
:102D600069FF03958E4202D84ED185424CD9EFF3CC
:102D7000108B72B6274B1B68002BFBD0BFF35F8F05
:102D8000254A17780125A540EBB23B431370234B2E
:102D90005D63221D92000199D150A2002049029842
:102DA00050501B6A2B4212D11C4B1B6C2B4208D07B
:102DB0000020BFF35F8F174B00221A608BF310883F
:102DC00023E0184B184AC121184800F0B5FAFFF764
:102DD00031FF8E4214D802D1039B834210D80E4B90
:102DE0001B78BB420ED00D4B1D625D631F2004405B
:102DF0000123A3400E4A1360074B1F701E38D8E70B
:102E00000020D6E70120D4E7012004B080BCBB46F7
:102E1000F0BDC046280100D0EB2200200040054054
:102E2000B4220020D468031040690310F86803102E
:102E300080E200E0EFF3108C72B60B4B1B68002BA6
:102E4000FBD0BFF35F8F01238340084A1362084918
:102E50000A789A430A70BFF35F8F034B00221A600F
:102E60008CF310887047C046280100D00040054010
:102E7000EB22002010B500291ED0037B99421BD8FD
:102E80004B005B18033B0468A4466344002919D037
:102E9000002A1DD0914221D0002A25D0047BA242D5
:102EA00022D80468500080180338201881701978DF
:102EB00000291FD11A7010BD104B114A682111480A
:102EC00000F03AFA104B114A6F310E4800F034FA14
:102ED0000F4B0E4A70210B4800F02EFA0D4B0B4A97
:102EE0007121084800F028FA044B054A682105487A
:102EF00000F022FA41701A70DDE7C046E865031061
:102F0000686A03100466031054660310546A0310C1
:102F1000606603106C66031070B506000D001400A7
:102F2000002914D0002A14D08068736898470028BC
:102F300006D0220029003000FFF79CFF280007E0A0
:102F40002A0021003000FFF795FF200000E010006C
:102F500070BD0800FCE7000010B500234373013387
:102F60008373037BC3730123027B9A4214D9002B22
:102F70000CD0027B934209D85A00D218033A016858
:102F80008C4662440133DBB25370EDE70B4B0C4AC5
:102F900068210C4800F0D0F9002A09D0924207D8E5
:102FA000016853009A18033A8A180023537010BD21
:102FB000024B034A6821034800F0BEF9E86503109C
:102FC000686A03100466031010B5017342608360E1
:102FD000FFF7C2FF10BD000070B50400081E00D14D
:102FE00070BD002934D0237B994231D84B005B1847
:102FF000033B2268944663445A78002AF0D02DD0CF
:10300000237B9A422AD853009B18033B21688C46A5
:1030100063445D7800215970002825D0237B9842B5
:1030200022D843001B18033B21688C4663440021CF
:10303000597001002000FFF76FFF060029002000F3
:10304000FFF7CAFF020031002000FFF765FFC7E766
:10305000084B094A6821094800F06EF9054B064AF9
:103060006821064800F068F9024B034A68210348CA
:1030700000F062F9E8650310686A03100466031043
:1030800070B505000C001600002928D02DD0037B58
:1030900099422AD84B005B18033B0268944663446C
:1030A0005A78002A27D19A78002A2AD11978FFF76E
:1030B00093FF0300002E03D0EA7B002A27D1EC7394
:1030C000002B37D1002C49D02B7B9C4246D82B6853
:1030D00061000C19033C1C190023637070BD224B66
:1030E000224A3821224800F027F9224B224A68213F
:1030F000224800F021F9224B1C4A3A211C4800F0DA
:103100001BF9204B194A3B21194800F015F9002AF8
:103110000AD0297B8A4207D851008A18033A2968C5
:103120008C4662445470CAE7124B134A6821134814
:1031300000F002F9002B0BD02A7B934208D8430001
:103140001B18033B2A689446634400229A70B9E72F
:10315000084B094A6821094800F0EEF8054B064A79
:103160006821064800F0E8F874690310406A03100B
:103170007C690310E8650310686A03100466031095
:10318000BC690310E469031070B504000A00457BB4
:103190002900FFF775FF6073280070BD70B504004B
:1031A000002967D0437B8B420ED0002911D0037BCE
:1031B00099420ED84B005B18033B0268D018837805
:1031C000002B0CD1002056E00121FFF7DDFF01208C
:1031D00051E0294B294A6821294800F0ADF8002B1D
:1031E00020D0227B93421DD85A00D318033B22687B
:1031F000D2182568EB5C8B421AD0002B1BD0227BA7
:10320000934218D85A00D318033B2268D218537837
:103210008B4216D0002BF0D11A4B1B4A67211B485A
:1032200000F08AF8144B154A6821154800F084F81C
:103230004378137007E0104B104A6821104800F0E3
:103240007BF8437853700023837043700122200081
:10325000FFF716FF0200617B814205D02000FFF7D7
:103260005BFE6073012006E0094B074A6D210748A9
:1032700000F062F8002070BDE8650310686A031072
:1032800004660310C0630310286A03107C690310EE
:10329000086A031010B50400FEF766FB0100200069
:1032A000FEF7E2FEFF232371BFF35F8F10BD10B561
:1032B0000400FEF759FB01002000FEF7D5FEFF23B6
:1032C000237100236371BFF35F8F10BD034B9C46D6
:1032D000614489000160BFF35F8F70474000003494
:1032E00010B504000120FEF74DFB01002000FFF7A0
:1032F000EDFF10BD00BEFDE703000A4A1268002A78
:1033000008D0084A1068C318074A9A4206D3054AEB
:1033100013607047034A05491160F2E701204042FB
:10332000F7E7C046781C002000000420EC220020B3
:1033300010B5FFF7DFFF000010B582B00C001900D8
:10334000002A0CD0084B002A0BD0019200932300D6
:103350000200064802F0A0FC0120FFF7CBFF044B5F
:10336000F1E7034AF1E7C046446B0310546B0310C6
:10337000C0E7001070B52B4B2B4A1A602B4B2C4A20
:103380001A602C4B9A682A4B9343FAD12A4C01E0DD
:1033900008CC9847294B9C42FAD300F001F9234B03
:1033A000274A1A60234B9B68DB43DB01FAD1254B8C
:1033B00040229A675A671A67DA66234C09E0234B62
:1033C000234A83212348FFF7B7FF2000FFF762FF5E
:1033D0000834214B9C4209D22368002BF5D0012BE5
:1033E000EDD12000FFF763FF0834F2E71B4CA16822
:1033F0001B4DC022280002F0A7FAA560FCF733FF9E
:10340000002800D000BEFEF79FFAFEF7F7FDFFF799
:1034100069F9144C01E008CC9847134B9C42FAD34D
:1034200070BDC04600E00040BFCDFBFE00F0004094
:10343000FE7F3C0000C00040E0130020F01300209D
:10344000FFFFFF0100F00140C8130020846B031050
:10345000FC6B0310A46B0310E013002000ED00E0F0
:1034600000000020F0130020F81300200FB400B576
:1034700083B0084802F0DEFB049B002B07D005A9AF
:103480000191180002F0E6FB034802F0D3FB012093
:10349000FFF730FFEC6B0310A8840310F8B5DE468D
:1034A00057464E464546E0B505000F0092460A9A3B
:1034B00093424ED31A0E91461E020A9A0023300000
:1034C000494601F069FB80466C006419A4002F4B4B
:1034D0009C4664446368834200D260602B1FDBB269
:1034E0009B46012B3BD9C0239B0123438022120121
:1034F0001A60AB00264A9958002905D0506901F09E
:1035000009FB01300138FDD153465A0123685A4066
:10351000E0231A4080235B0123431A605A46012AA4
:1035200028D980239B012343802212011A6043463D
:103530006360424600233000494601F02DFBAD0098
:10354000134B58510120F0BCBB46B246A946A046D9
:10355000F8BD104B104A2D211048FFF7EDFE012F4A
:10356000C1D1C0239B01234303221A60A368DB0758
:10357000FCD5C9E72168794003220A401A60A26895
:103580000123BB401342FAD0CBE7C0460080004085
:10359000DC1B00200C6C0310686C0310206C031003
:1035A00030B583B00C2000F021F9FEF7C3F90028F4
:1035B0000DD0002304E099002D4A2E488850013395
:1035C000092BF8D92A4B2C4A5A6203B030BD2B4B39
:1035D00000229A6700F07CF9294B01221A60274BE0
:1035E0005B6C012BFBD1274B03221A60234B9B6B97
:1035F000012BFBD1013300930433234A01212348DB
:1036000000F054F805230093214A0121214800F0DD
:103610004DF8214B0093002202210420FFF73EFFCA
:103620001E4D00952B00002201210520FFF736FFDB
:10363000104C00942300002200210720FFF72EFFEA
:1036400000942300002200210820FFF727FF0A4BE7
:1036500000932300002200210920FFF71FFF00959F
:103660002B00002200210620FFF718FFADE7C0461F
:10367000DC1B0020006CDC021BB700000080004057
:103680003CB0004030B00040002F6859008002403C
:10369000008C864700C00240001BB70040597307EA
:1036A0008000014BC0587047DC1B0020F0B5C646B7
:1036B00000B504000F0090461D000C2001F02AFA0E
:1036C00006003D4A42443D4B9A4243D843011B1AEF
:1036D0009901C91AC90009188901404601F01AFA6E
:1036E0000200103A98235B009A4239D86B1E062BD1
:1036F0003CD8069B013B062B38D8069B9D423BD30A
:1037000043461A09B2423DD32D04069B1E0335439E
:103710002368002B3CDB2A4B9C424AD0802252017A
:10372000284B1A60284B1A60284B9B68110099435C
:10373000FAD12760A060231DC02292011A432123E1
:1037400013602368002BFCDAE5600823136080BC5B
:10375000B846F0BD1E4B1F4A11211F48FFF7ECFD74
:103760001E4B1C4A19211C48FFF7E6FD1C4B194A49
:103770001C211948FFF7E0FD1A4B164A2221164872
:10378000FFF7DAFD184B134A25211348FFF7D4FD44
:1037900022683F231340BB42BDD1A3681B051B0D0C
:1037A0008342B8D1E368EE22D2021340AB42B2D1D9
:1037B000CDE780229201B3E780E84BD380F8A932AD
:1037C00000C0024000E0004000F0004000C00040A7
:1037D000786C0310B86D0310D86C03101C6D0310C7
:1037E000386D0310846D03109C6D031080239B00C3
:1037F0000343014AD362704700800540024B1A68B8
:10380000024B5A607047C0467C2000200080054073
:1038100010B50200164B8020C0051860154B1648E5
:10382000186000290AD0154BE021C9041960002A4C
:1038300009D1124B802212061A6010BD0C4BE021F8
:10384000C9041960F3E753019B1A9800801800011E
:103850000B4B186080235B04984202D3084B094A43
:103860001A60FFF7CBFF054B8022D2051A60E4E710
:1038700000B0054008200140FCFF010000A0054009
:103880007C200020FFFFFF0010B5030010000C4A51
:103890008024E4051460002B0DD001221343094A53
:1038A000094CD461094C5C4014625162936200215E
:1038B000FFF7AEFF10BD034B0022DA61F7E7C04609
:1038C00000B0054000800540D3C007B02D3FF84F41
:1038D000064BAA2212011A602F22DA60044B054A15
:1038E0001A60024B5B68002BFBDA70470040024015
:1038F0000060024000B0FA009A4200D2885470473B
:10390000704710B5002802D00B684968984710BD71
:103910000100002007E083001B185B00501C0860BA
:103920001078C01830380A681378303BDBB2092BA6
:10393000F1D97047F0B5DE4657464E464546E0B5EC
:1039400083B093461F000C9B9A460D9C0E9B994694
:103950000F9B9B0703D0B8460F00060022E00192A0
:10396000A34688464E46B9460700B44207D2551CC6
:103970004B4641462020B84701342A00F5E73D0078
:103980004F465C46019B9B46B1464646B8463700CB
:103990002E0007E0013C551C5346185D4346390094
:1039A000B0472A00002CF5D135003E0047460F9B5A
:1039B0009B0707D4100003B0F0BCBB46B246A94633
:1039C000A046F0BDB0464E46B9462F005D46531B9B
:1039D000B342EFD2541C4B4641462020B847220048
:1039E000F5E7F0B5CE46474680B585B09446984693
:1039F0000C9D0D9C0EAB1B789946109A119B129E44
:103A0000B7071CD4002B0CD0F7070AD54F46002F60
:103A100002D10C37374204D0013B02E030272F554A
:103A20000134944201D21F2CF8D9F70707D59C42E4
:103A300005D21F2C03D830272F550134F5E7F706A0
:103A400015D5770505D4002C03D0944224D09C4290
:103A500022D00F9A102A2BD00F9A102A30D00F9A0A
:103A6000022A35D01F2C02D830222A5501341F2CAF
:103A700005D84A46002A31D02D222A550134039612
:103A800002930194009543466246FFF753FF05B049
:103A9000C0BCB946B046F0BD621E012C06D00F9FD7
:103AA000102F01D01400D4E7023CD2E71400D0E775
:103AB000B206D1D41F2CCFD878222A550134D1E7B1
:103AC000B206CCD51F2CCAD858222A550134C9E7D2
:103AD0001F2CC7D860322A550134C3E7720703D5BB
:103AE0002B222A550134CAE73207C8D520222A558D
:103AF0000134C4E7F0B5DE4657464E464546E0B5CC
:103B000093B081468A46089209931CAB10CB1B7870
:103B10009B461E9D219B9846002C03D110234246B4
:103B20009A4390468023DB0046461E4042461A4296
:103B300012D0002C22D000260EE03033D9B2771CF0
:103B40000AAB99552900200000F0E4FFAC4216D3DF
:103B50001F2F14D83E0004002900200000F0DAFFD7
:103B6000CBB2092BE9D94246920605D54121C918A5
:103B7000C9B20A39C9B2E2E76121F8E72700434632
:103B80000693209B05931F9B049303955B4602932A
:103B900001970AAB0093099B089A51464846FFF7E4
:103BA00020FF13B0F0BCBB46B246A946A046F0BD0C
:103BB000F0B5DE4657464E464546E0B595B008900E
:103BC00009910A920B931E9E1F9C20AB1B789B466B
:103BD000229B9946239D269B9A463300234303D17B
:103BE000103352469A4392468023DB0057461F40CB
:103BF00052461A4219D0330023432DD0002714E037
:103C00003033DAB27B1C98460CABDA554A462B00AF
:103C10003000210000F0C0FFA5421FD819D0434654
:103C20001F2B1BD8474606000C004A462B003000CD
:103C3000210000F0B1FFD3B2092BE1D95246920620
:103C400005D54122D218D2B20A3AD2B2DAE76122BD
:103C5000F8E7B145E3D901E00023984653460693BF
:103C6000259B0593249B04934B4603935B46029349
:103C7000434601930CAB00930B9B0A9A0999089851
:103C8000FFF7AFFE15B0F0BCBB46B246A946A04652
:103C9000F0BD0000F0B5DE4657464E464546E0B55D
:103CA00091B083468A460C9298461A9C08941B9DB4
:103CB000099522002B002000290001F0FCF90028C2
:103CC00000D0E5E001225242D74B2000290001F04C
:103CD000EDF9002800D0DBE001225242D34B200056
:103CE000290001F0CDF9002800D0D1E00022002306
:103CF000089E3000099D290001F0C2F9002800D07B
:103D0000DDE008980999069007918023DB001E9A50
:103D10001A400D921E9A1A4201D106231C9306984E
:103D2000079904000D000A000600024300D1D1E00B
:103D3000080D4005400DBE4CA44660440A03120B1A
:103D4000BC4B13431F0001F0C9F9BB4ABB4B01F048
:103D500054F9BB4ABB4B01F029F904000D000022C5
:103D6000B94B3000390001F018F9B84AB84B01F0EE
:103D700044F902000B002000290001F017F901F0BE
:103D8000C5F9814601F0AAF904000D00B14AB24B11
:103D900001F033F90022B14B01F008F901F0B6F956
:103DA0000600AF4AAF4B2000290001F026F90400BD
:103DB0000D00300001F092F9AB4AAC4B01F01DF957
:103DC00002000B002000290001F0E7F804000D00BC
:103DD00002000B0001F011F90A900B91A44BF318AB
:103DE00000261F0522002B002000290001F0DEF82C
:103DF0000E900F9122002B0000208021C90501F0B8
:103E0000CCF804000D0000229A4B0A980B9901F09F
:103E1000D6F80022984B01F0C9F802000B000A986E
:103E20000B9901F0CCF80022944B01F0BFF802008E
:103E30000B000A980B9901F0C2F802000B00200059
:103E4000290001F0B3F802000B000E980F9901F061
:103E5000B6F80022774B01F0A9F832003B0001F0E0
:103E6000CCF806000F0004000D00069A079B01F035
:103E70001DF9002830D001235B429C46E14400221A
:103E80007D4B3000390001F09AF804000D0023E06A
:103E90001E9B04931D9B03931C9B0293089A099BF2
:103EA0000092019343460C9A5146584600F0FCF8A4
:103EB00011B0F0BCBB46B246A946A046F0BD0023F7
:103EC000002406930794069680231B069C466544AF
:103ED00007951AE7002399464B466333C62B1ED835
:103EE00004261E9B1B0526D52B0023430FD0644AB6
:103EF000644B0698079901F0D1F8002879D0002288
:103F0000614B0698079901F0BBF8002871D01C9B03
:103F10004B4506DD4A46981A431E1C9303E00526CE
:103F2000DFE700231C938023DB001E9A1A431E92B6
:103F30000026002399461D9B9E4264D29F1B0223AC
:103F40001E9A1A400A921E9A134202D0002E00D0E6
:103F500000274B46002B07D022002B00069807991C
:103F600001F02DF806900791002200230898099986
:103F700001F086F8002848D1444B1E9A1340049360
:103F800003971C9B0293069B079C00930194434656
:103F90000C9A5146584600F087F8002E00D187E76A
:103FA0001E9B9B063DD54525441C434602005146B9
:103FB0002800D8474B46DA179B1853400522059234
:103FC000013E0496002203920A3202924A46D00F22
:103FD000019000934346220051465846FFF78AFD60
:103FE0000A9B002B00D163E702005F460C9E1D9DDB
:103FF00054E01C9B002B9ED00D9B002B9BD01C9B48
:10400000013B1C9397E7002799E7069C079D220038
:10401000290080200006844661440B000692079325
:10402000AAE76525C0E7C046FFFFEF7FFFFFEFFF70
:1040300001FCFFFF0000F03FFB799F501344D33F8A
:10404000B3C8608B288AC63F0000F83F61436F63A6
:10405000A787D23F71A379094F930A400000E03F40
:104060001655B5BBB16B0240EF39FAFE422EE63F62
:10407000FF03000000002C40000024400000184016
:104080002D431CEBE2361A3F80842E41FFF7FFFFE1
:10409000541C434651462020B8472200931BAB4294
:1040A000F6D3100004E7C046F0B5DE4657464E464C
:1040B0004546E0B595B00690079193469946209FF6
:1040C0001E9A1F9B1000190000F0F5FF002831D147
:1040D00001225242BF4B1E981F9900F0D1FF0028C9
:1040E00037D101225242BC4B1E981F9900F0DEFFCF
:1040F00000283DD10022B94B1E981F9900F0D6FF31
:10410000002850D10022B64B1E981F9900F0B8FF2E
:10411000002848D1002200231E981F9900F0B0FF0C
:10412000002850D100239846229B5B0500D4B6E0BE
:10413000002458E0229B0393219B029303230193C5
:10414000A84B00934B465A4607990698FFF7F2FB97
:104150000EE1229B0393219B029304230193A24B24
:1041600000934B465A4607990698FFF7E3FBFFE09A
:104170000423229A1A4022990B4210D09B4B002A0A
:104180000FD0042222990391219902910192009368
:104190004B465A4607990698FFF7CCFBE8E0944B4C
:1041A000EDE70322EEE7229B0493219B0393029702
:1041B0001E9B1F9C009301944B465A4607990698F4
:1041C000FFF768FDD4E01E9A1F9B0020002100F03D
:1041D000E4FE1E901F9101239846A5E70CAB302208
:1041E0001A55013F01341F2C01D8092FF6D81E980B
:1041F0001F9900F08BFF050000F070FF02000B001C
:104200001E981F9900F0C9FEFA007A4B9B181A6895
:104210005B680A920B9300F0F0FE0890099100F0A1
:1042200099FF060000F056FF02000B00089809995C
:1042300000F0B3FE0890099100226F4B00F036FFAA
:1042400000282ED00136300000F044FF02000B00A1
:104250000A980B9900F01AFF002801D001350026BA
:10426000002F2CD1280000F039FF02000B001E980F
:104270001F9900F092FE06000F0000225E4B00F036
:10428000FFFE002846D100225B4B3000390000F0D1
:104290000DFF00283ED1EB073CD501353AE006275B
:1042A00046E70022544B0898099900F0E9FE0028DF
:1042B000D6D1002E01D0F307D2D50136D0E7AA46D9
:1042C0001F2C11D8013F0A21300000F023FC651C8F
:1042D00030310CAB19550A21300000F01BFC092EBF
:1042E0000ED906002C00EBE755461F2C0CD87B1E80
:1042F000002F09D00CAA302111551F000134F4E71A
:104300002B0055461C00F0E71F2C03D80CAB2E22C7
:104310001A5501341F2C10D80A21280000F0D2FBB6
:10432000661C30310CAB19550A21280000F0CAFB7D
:10433000051E01D03400EDE734000323229A134018
:10434000012B1CD01F2C06D84346002B32D00CABBF
:104350002D221A550134229B0393219B0293019431
:104360000CAB00934B465A4607990698FFF7E2FAC2
:1043700015B0F0BCBB46B246A946A046F0BD219B95
:10438000002B13D04346002B02D10C3313420FD025
:10439000219B013B2193190003E00CAB30221A55FD
:1043A00001348C42CED21F2CF7D9CBE72199F8E704
:1043B0002199F6E7229B5B0704D50CAB2B221A55FB
:1043C0000134C8E7229B1B07C5D50CAB20221A5528
:1043D0000134C0E7FFFFEFFFFFFFEF7F65CDCD4169
:1043E00065CDCDC1D06D0310D46D0310C86D031021
:1043F000C46D0310C06F03100000E03FF0B5DE464F
:1044000057464E464546E0B593B082468B469046A9
:104410001193002900D1EBE200275546119B187833
:10442000002800D1E7E2252809D07C1C43463A0049
:104430005946A847119B013311932700EEE701333A
:1044400011930024119A11780B00203BD8B2102848
:1044500003D88300D048C3589F460B00303BDBB2E3
:10446000092B2CD92A292FD000230A93119B1A78C3
:104470002E2A39D000239A46119A1378683BD9B274
:10448000122976D88B00C549CB589F4601231C437F
:1044900001321192D6E702231C4301321192D1E777
:1044A00004231C4301321192CCE708231C43013240
:1044B0001192C7E710231C4301321192C2E711A8E1
:1044C000FFF726FA0A90D1E71C9B1A1D1C92186868
:1044D000002804DB0A90119B01331193C6E70223E5
:1044E0001C4343420A93F6E78022D20014435A1C2D
:1044F00011925A781300303BDBB2092B04D92A2AD7
:1045000007D000239A46B7E711A8FFF701FA8246C1
:10451000B2E71C9B1A1D1C921868002804DB824617
:10452000119B01331193A7E70020F8E780235B007C
:104530002343511C119152786C2A01D01C0018E0C1
:10454000C0239B001C430131119112E080232343BF
:10455000511C11915278682A01D01C0009E0C02337
:104560001C430131119104E080235B001C430132A4
:104570001192119B18780300253BDAB2532A00D917
:104580002CE29300864AD3589F4680239B001C430D
:1045900001321192EDE780235B001C43013211923E
:1045A000E7E7782809D0582838D06F2838D0622813
:1045B00038D010239C430A2600E01026582833D018
:1045C000692803D0642801D00C229443630501D5E7
:1045D0000122944369282AD0642828D0A30500D555
:1045E0009FE0E30500D5B8E0630600D4CAE01C9A5A
:1045F000111D1C911168FF220A4005940A9B049327
:1046000053460393029600230193009243463A00D7
:1046100059462800FFF76EFA070027E01026CDE77D
:104620000826CBE70226C9E720221443C8E7A305E2
:1046300020D4E30550D4630666D51C9A111D1C9145
:104640001168FF220A40D317D118594005940A9BDC
:104650000493534603930296D20F0192009143466E
:104660003A0059462800FFF745FA0700119B01332D
:104670001193D3E61C9BDA1D07218A4311000831F0
:104680001C91116853689C46DB170C930D930C9A90
:104690000D9B100048400E90624653400F930E98B9
:1046A0000F990C9A0D9B801A99410E900F910894C6
:1046B0000A9B07935346069304960023059363468B
:1046C000DA0F02920090019143463A0059462800C1
:1046D000FFF76EFA0700C9E71C9A111D1C911268BA
:1046E000D317D118594005940A9B0493534603935A
:1046F0000296D20F0192009143463A005946280093
:10470000FFF7F8F90700B1E7230605D51C9A111D3C
:104710001C910023D25E96E71C9A111D1C91126811
:1047200091E71C9BDA1D07218A43110008311C9177
:1047300008940A9B07935346069304960023059317
:104740000293136854680093019443463A00594613
:104750002800FFF72DFA070088E71C9A111D1C910D
:1047600005940A9B049353460393029600230193F6
:104770001368009343463A0059462800FFF7BAF9F8
:10478000070073E723060DD51C9A111D1C911268B2
:104790001204120C31E7C046DC6D0310206E0310CA
:1047A0006C6E03101C9A111D1C91126825E7462897
:1047B0001AD01C9B0733072293431A0008321C921D
:1047C00004940A9A0392524602925C681B68009312
:1047D000019443463A0059462800FFF765FC07005C
:1047E000119B0133119319E620231C43E1E767284D
:1047F00001D0472802D180231B011C43452801D04A
:10480000472801D120231C431C9B073307229343D5
:104810001A0008321C9204940A9A03925246029299
:104820005C681B680093019443463A00594628008F
:10483000FFF730FA0700119B01331193EEE50223D5
:104840001A002240924623421FD001241C9B1A1DAD
:104850001C927A1C9146187843463A005946A8475C
:104860005346002B16D1119B013311934F46D5E5CA
:10487000561C434659462020B847230032005C1C92
:104880009D42F5D83D001700E0E701233A002F00D4
:104890000A9DF4E74A46A9460A9D06E0571C43468E
:1048A00059462020C84734003A00661CA542F5D876
:1048B0004D469146D7E71C9B1A1D1C921B689946D2
:1048C0005346002B00D1013B4E4601E00136130058
:1048D0003278002A02D05A1E002BF7D14B46F21A2A
:1048E00010928023DB0026001E401C4203D052455C
:1048F00001D95346109302231A0022400B922342FF
:1049000005D03A0037004C46A946554620E03A000B
:10491000109B5F46B3462E0006E0551C4346390007
:104920002020B04723002A005C1C0A999942F4D841
:1049300035005E46BB46109437004C46A9465546A6
:1049400006E01D000134561C43465946C847320054
:104950002078002804D0002FF4D06B1E002DF0D159
:1049600017004D460B9B002B03D1119B0133119374
:1049700054E50A9F109B06E0561C434659462020EA
:10498000A847230032005C1C9F42F5D81700ECE7D3
:1049900021231C431C9B1A1D1C921B680093059429
:1049A0000823049353460393102302930023019397
:1049B00043463A0059462800FFF79CF80700119B30
:1049C000013311932AE57C1C43463A0059462520C1
:1049D000A847119B0133119327001FE57C1C434618
:1049E0003A005946A847119B01331193270015E55A
:1049F0000A4B9A4610E5AA46474502D343465A1E3B
:104A000000E03A00434659460020D047380013B032
:104A1000F0BCBB46B246A946A046F0BD0139001025
:104A200000B583B0009313000A0001000248FFF7AD
:104A3000E5FC03B000BDC046F938001000B585B0F4
:104A4000029003910121009313004A4202A90248F7
:104A5000FFF7D4FC05B000BD033900100148042164
:104A6000014B1847200B00208D4A001010B50100A3
:104A700018231B8814221088984710BD10B5010018
:104A800018231B8816221088984710BDF0B5C6461B
:104A900000B507000E0000250123984600E001350F
:104AA000B5420AD2AC003C192068FFF7DFFF206056
:104AB0000028F4D100239846F1E7404680BCB84670
:104AC000F0BD0000124A936F9B0815D29066D16624
:104AD000002905D0FFE7FFE7FFE7516F106F704730
:104AE00004B580210906C2175140002800D0C843F0
:104AF00009F0DAFD002104BDF0B5146E556E576F54
:104B0000166FFFF7E3FF1466556657671667F0BD2B
:104B1000000000D0114A936F9B0813D210665166B3
:104B2000002905D0FFE7FFE7FFE7516F106F7047DF
:104B300004B5002801D00020C04309F0B5FD0021D4
:104B400004BDC046F0B5146E556E576F166FFFF773
:104B5000E5FF1466556657671667F0BD000000D084
:104B600094464E4A926F9208624601D230E0C046A7
:104B7000F0B54A4EB56F6D08FCD3346E756E776F25
:104B8000366F00F025F89446444A14665566576718
:104B900016676246F0BDC0469446404A926F92083E
:104BA000624601D258E0C046F0B53C4EB56F6D0884
:104BB000FCD3346E756E776F366F00F04DF8944607
:104BC000364A14665566576716676246F0BDC0469A
:104BD000002B24DB11D000293EDA00B5C943404246
:104BE00000D1013100F038F8C943404200D1013111
:104BF000DB43524200D1013300BD002AEBD1002833
:104C000001D1002905D00020C90FC90701D1C04337
:104C1000410800B509F040FD0022002300BD00B5A9
:104C200000290ADBDB43524200D1013300F014F8C3
:104C3000C943404200D1013100BDC943404200D1C7
:104C40000131DB43524200D1013300F005F8DB4370
:104C5000524200D1013300BD002923D1002B18D1CD
:104C6000002A0CD0BC460D4F38667A66002100231E
:104C7000FFE7FFE7FFE77A6F386F67467047002866
:104C800001D00748010000B509F006FD002200230D
:104C900000BD02000B00002000217047000000D082
:104CA000FFFFFFFF002B00D0BFE0130C28D1002A2C
:104CB000E7D080B4114F39667A66FFE7FFE730B47A
:104CC000040C7B6F396F1B0423433B667A66FFE756
:104CD000FFE7FFE7C04684B27B6F3D6F1B042343B1
:104CE0003B667A66FFE7FFE7C04600232C042D0CE5
:104CF0007A6F386F00196941B0BC7047000000D06E
:104D0000F0B594460025140E01D112020835140F97
:104D100001D112010435940F01D192000235D40F54
:104D200001D152000135D40B0134254F7C66254C4E
:104D30003C660E0C93B2FFE7FFE7FFE73C6F66436C
:104D4000360C7703BE467343DF0B5B04C01AB941D0
:104D5000130C7343DB18C91ACE086643360CB644ED
:104D600093B273431F0F1B01C01AB941130C734355
:104D70001F0B1B05C01AB941860D8F023E436643C7
:104D8000360C092D24DB520A7243801A7703460A37
:104D90006643360C16235B1BDE40DF40BF196446BA
:104DA0006643821B7046043506330100D940A84093
:104DB000C01900D30131A24206D20023F0BD000089
:104DC000000000D0FFFFFFFF121B0130F3D3F1E71B
:104DD00009277F1BFE406446A2B27243801A00D2AC
:104DE0000139220C7243130C1204821A99410B00F0
:104DF0007046043513370100F940A840801900D3EC
:104E00000131002B02D1A2420AD2F0BD013000D301
:104E10000131121BFAD2013BF8D1A24200D2F0BDFF
:104E2000013000D30131121BF7E7F0B51C0C00D0A4
:104E300080E00CB400251C0A04D11B02160E33437B
:104E4000120208351C0B04D11B01160F334312014B
:104E500004359C0B04D19B00960F3343920002351E
:104E6000DC0B02D192185B4101351C00971864419C
:104E70000134464F7C66464C3C660E0CFFE7FFE76C
:104E8000FFE7C0463C6F6643360C7703BE4697B2D9
:104E90007743C01B00D20139C01B00D201399FB239
:104EA0007743C91BC91B170C77437E04FF0B801B7C
:104EB000B941CE086643360C0C2D33DBB644120BD9
:104EC0001F053A431B0B97B27743C01B00D2013931
:104ED0009FB27743C91B170C77433E043F0C801BDE
:104EE000B941860D8F023E43664329277F1BFE4052
:104EF0000C3D7746AF40BF1930BCA2B2ABB2724393
:104F00007343801A9941220C7243130C1204801AC5
:104F1000994102000B000137001BA941F9D2781E0C
:104F20000021F0BD0C277F1BFE4077467F0BAF4072
:104F3000FF19E0E700245D1C07D0144F7D66396639
:104F4000FFE7FFE7FFE7FFE73C6F95B29EB26543DF
:104F50006643401BB141150C1E0C65436643360485
:104F60002F0C3E432D04401BB141994204D2020054
:104F70000B0020000021F0BD01D19042F7D3801A30
:104F8000994101349942F2D3F6E70000000000D0C5
:104F9000FFFFFFFF48404140484018B41B4B5B688F
:104FA000FC46019308BD04DF6F52001018B4174B84
:104FB0001B68FC46019308BD00DF7952001094463F
:104FC000134A926F920809D2624618B40F4BDB68FD
:104FD000FC46019308BD0CDF315500100C4AF0B5BA
:104FE000146E556E576F166F6246FFF7EEFF084A54
:104FF0001466556657671667F0BD18B4034B9B6877
:10500000FC46019308BD08DFD5530010A420002002
:10501000000000D0FFB550404240504059404B4046
:10502000594000E0FFB5154F4C00640D03D0BC4261
:1050300004D10C0314D80020090D09055C00640D8F
:1050400003D0BC4204D11C030AD800221B0D1B054F
:1050500001264B4009D44B4003D58B4200D18242FC
:10506000FFBD9942FCD19042FFBD0B43DB180343C7
:105070001343F5D0C9434918FFBD0000FF070000E6
:1050800000B5FFF7CFFF804100BDC04600B5FFF778
:10509000C9FF01D9002000BD012000BD00B5FFF708
:1050A000B9FF01D9002000BD012000BD00B5FFF708
:1050B000B1FF804100BD012040054A00121804D80C
:1050C0005A00121801D800207047012070470020B4
:1050D000704700000021002805D17047C1174840E3
:1050E000401AFAD0C90713B5064B1B6898470CBC89
:1050F000441CA2401005120B0349091B0905194362
:10510000114310BDA42100201F04000010B54C0065
:10511000620D8023D218DB00D21A5B057E2A10DDD7
:105120009E3A13DACC170903490819435242D14079
:10513000640001341532202A05DAD0400843604368
:1051400010BD002010BD0846604310BDC80FC01838
:10515000013810BD18B4044B5B6AFC46019308BDCE
:1051600024DFE15600100000A420002070B51323B6
:105170001C78012C14D0012C14DC022C02DC1F4AF8
:105180001F4B9A641F48FFF771FC1F4B186070BDDE
:1051900099001A481A4A885001331F2BF8D9EAE7B8
:1051A0000023FAE71948FFF769FC05001848FFF7E4
:1051B00065FC023803789B007F2B19DD80222900D3
:1051C0000F4800F0C1FB022CD7D1124B1A88B5232F
:1051D0001B029A4209D1104B1A88104B9A4204D1F3
:1051E0000F4B1A880F4B9A42C7D00020FEF73EF9AA
:1051F0000D4B0E4A32210E48FEF79EF83552001034
:10520000A42000204C330000A421002053440000BF
:105210005346000054380000D838000049460000CA
:105220009C3800005946000010700310C070031035
:105230007070031007B56046002800D100BE0188D9
:105240000A0A0230DF2AFAD1C9B2820804D30288DE
:1052500040880004104300E00068024A5050039068
:1052600007BD0000A42000200FB403BC0CBCF0B5A7
:105270000124E407634000E0F0B50C0DCF0F661E7B
:105280003605891B640503D3C943404200D301316D
:10529000640D03D0661CF60A07D0E41B00207F00D3
:1052A000791C89078912803C24031D0DDF0F6E1EB7
:1052B00036059B1B6D0503D3DB43524200D30133FC
:1052C0006D0D03D06E1CF60A07D0ED1B00227F0087
:1052D0007B1C9B079B12803D2D032F1B661B58D404
:1052E000A446202E46DA20371400BC401D00BD40E5
:1052F000F24033412A4380185941CB0F05D0C943AE
:10530000C043002264425041514162464D0D28D1B4
:105310000D0D07D100281FD0241940414941013A01
:105320000D0DF9D0640006D3013000D30131002CFB
:1053300001D140084000013A0BD4941CE40A04D186
:1053400012051144DB071944F0BDD907204B19435E
:1053500000E0D9070020F0BD0029DDD1002CDBD111
:10536000F0BD0132C6074008CD0728434908002E8A
:10537000E1D0D9E73C2E29DA203E40371400BC406A
:1053800000D00124F24014431A00BB401C43D31741
:10539000ACE7AC46202F08DA20360400B4400D00FC
:1053A000B540F84039412843A5E73C2F0CDA203FAF
:1053B00040360400B44000D00124F8400443080003
:1053C000B1400C43C117EAE710001900002494E72C
:1053D0000000F07FF0B50C0D661E3605891BE60A4D
:1053E0006405640D02D0651CED0A04D00020012183
:1053F0000905803C2403A4461C0D671E3F05DB1BEA
:10540000E70A6405640D02D0651CED0A04D0002291
:1054100001231B05803C24037740644497B484B285
:1054200096B27443070C7E43150C6F4380B26843F9
:10543000361802D3012000043F183004350C00193F
:105440007D41844688B29AB250430C0C62431F0CD3
:105450007C438EB27E43921902D301263604A419EE
:105460001604170C3618674101BC81B29AB2514339
:10547000040C62431B0C5C4380B25843121802D3E5
:105480000120000424181004130C401863412D1847
:105490005E410020474106BC88B293B258430C0CD1
:1054A0006343120C544389B251435B1802D3012168
:1054B0000904641819041A0C091862416D18564140
:1054C0000020474118BCF902720D1143F0026A0D29
:1054D0001043ED020A0D03D16D1940414941013BD2
:1054E000124E9B1B7600B3420ED26D0007D30130E3
:1054F000002671416646354301D1400840001B0536
:10550000C918E4072144F0BD0BDA013306D101309C
:1055100004D101314F0D01D04908F2E7E107002025
:10552000F0BD013631050020EBE70000FF0300006D
:10553000F0B51C0D671E3F05DB1BE70A6405640D13
:1055400002D0661CF60A04D0002201231B05803C11
:105550002403D0252D060026F6432E661E096E660E
:10556000CE0FF619B44649004F0D02D07E1CF60A44
:1055700003D000200021403F3F033E1BB600B4444F
:10558000013F7F05C91B49082E6F013676089C0232
:10559000950D25437543ED137543AD1301356D101E
:1055A000F603761B0CB4CC02450D2C43A2B2B3B269
:1055B0005A43270C7B43350C6F43A4B26C431B1931
:1055C00002D3012424043F191C041D0CA4187D419E
:1055D00024196D41009A91B2ACB26143170C7C431F
:1055E0002B0C5F4392B25A43A41802D30122120437
:1055F000BF182204230C52187B41019C6C431B19D9
:10560000520ED9010A434401A01A81B2B2B25143E9
:1056100003145A43360C734387B27743D617D21913
:1056200000277E4136049B191704160C7F185E4133
:105630007316ED18F301002680337541A90F06D1CA
:105640006400690AE8055B0A184309D22FE00422C6
:10565000944480337541A90AA8059B0A184326D3B0
:10566000404149412404009A019B0D005543641BAD
:105670004343E41A95B286B27543170C7E43030C7C
:105680005F4392B25A43B61802D301221204BF18E4
:105690003204330C52197B4152429C41002C02D4FB
:1056A0000022013051414008CA071043490802B0A6
:1056B0006246D7079210084BD218084B9A4203D281
:1056C00012058918C919F0BD0020002A01DC390033
:1056D000F0BD01331905F5E7FD030000FE070000EA
:1056E000002200B5203200F004F8080000BD0000E0
:1056F00000220B150AD410B5944600F031F81414AA
:10570000013400DA0021CB17144C2047002000217F
:1057100070476244343A0CD40C2A07DA04009140F2
:10572000904052422032D440214310BDD843D94347
:1057300010BD203207D40C46944052422032114111
:10574000D040204310BD0800C917203203D4524274
:105750002032104110BD1800190010BD1357001061
:105760000A0DCC0F531E1B05C91A520503D3C9439A
:10577000404200D30131520D03D0531CDB0A07D045
:10578000121B00206400611C89078912803A1203F1
:10579000014BD21A70470000FF03000051434343FE
:1057A000C9188C46110C83B24B4310B4040C6143EE
:1057B00092B280B2504362431C041B0C001910BC0F
:1057C00059411304120CC018514161447047000044
:1057D00070B513231D782A48FFF750F90400012DF6
:1057E00011D0012D09DDA31E1B789B007F2B40DD0E
:1057F00080222100234800F0A7F82348FFF736F95C
:10580000224B186070BD542201001E4800F09CF825
:105810001F4B1A881F4B9A421CD1A7239B011A8841
:105820001D4B9A4216D11D4B1A881D4B9A4211D11D
:105830001C4B1A8894239B019A420BD11A4B1A884D
:105840001A4B9A4206D11A4B1A681A4B9A4201D146
:10585000152307E01848FDF709FE99001748094A83
:10586000885001331F2BF8D9144A064B1A62DA61AB
:10587000B7E7134B134A42211348FDF75DFDC046BD
:1058800053460000A82100204C330000A421002032
:10589000EE290000C40F0000C20D0000962B00008E
:1058A000C0B50000182B0000CC2A000010B5000085
:1058B000FC2C000051ED8764C0E70010CD580010AB
:1058C000D4700310547103100871031007B56046BB
:1058D000002800D100BE01880A0A0230DF2AFAD16E
:1058E000C9B2820804D3028840880004104300E053
:1058F0000068024A5050039007BD0000A821002014
:1059000010B5040008F0EEF8002804D00419034B89
:105910009C4200D810BD0248FDF7A8FD00000420FD
:105920006871031010B508F0E7F810BD01480421B4
:10593000014B1847300B00208D4A0010014B1B68AB
:1059400018470000300B0020014B5B68184700002F
:10595000300B002010B50300080011001B689847A9
:1059600010BD0000F8B507000D001600437C002BA9
:1059700002D0002400200CE00368110028009847A2
:105980002DE03B7C10E0022115483B689847601CE5
:105990000134B44214DA002CF3DD2B19013B1B78DF
:1059A0000D3B5A425341DBB22A5D0A2AF0D1002B4B
:1059B000EED1A042E7DA211A28183B689847E2E7BF
:1059C000B04203DA311A28183B689847002E06DDEA
:1059D000AD19013D2B780D3B5A4253413B74F8BD44
:1059E000D871031070B505000368002B16D00C4B5E
:1059F0001C6805E0290004C92000FFF7B3FFE46834
:105A0000002C09D02368002BF9D0064B1B68002B13
:105A1000F0D0A342F3D1EDE700232B6070BDC04668
:105A20006C1C0020741C002070B505000C000B6875
:105A3000802B05D021684B1C23606418257170BD34
:105A40000800FFF7CFFFF5E7F0B583B007000E00C1
:105A50000092019328E0A368002B04D031003800A5
:105A60009847002827DCE468002C06D0134B1D68FB
:105A7000002DF0D0A542F6D1EDE70099019A104B28
:105A80005B6A9A4209D80E48806A88420FD29A42CD
:105A900001D0012302E0002300E00023002B08D105
:105AA00001200021FDF7E6F8064B1C68DCE7012326
:105AB000F4E70120404203B0F0BDC046741C002052
:105AC000004005406C1C002010B582B0D0231B069E
:105AD00000241C5701A9074808F0EEFD002806D154
