:020000041000EA
:1000000000B5324B212058609868022188439860DF
:10001000D860186158612E4B002199600221596106
:100020000121F02299502B49196001219960352056
:1000300000F044F80222904214D00621196600F024
:1000400034F8196E01211966002018661A6600F04E
:100050002CF8196E196E196E052000F02FF8012189
:100060000842F9D1002199601B49196000215960AB
:100070001A491B48016001219960EB211966A021F2
:10008000196600F012F800219960164914480160C1
:100090000121996001BC002800D000471248134993
:1000A000086003C880F30888084703B5996A0420EC
:1000B0000142FBD001200142F8D103BD02B5186610
:1000C0001866FFF7F2FF186E186E02BD00000240BE
:1000D000000000180000070000035F00212200005C
:1000E000F4000018222000A00001001008ED00E03C
:1000F00000000000000000000000000074B24E7A12
:1001000000200420F7010010C3010010C5010010F9
:10011000C1010010C1010010C1010010C101001097
:10012000C1010010C1010010C1010010C701001081
:10013000C1010010C1010010C9010010CB01001065
:10014000CD010010CD010010CD010010CD01001037
:10015000CD010010CD010010CD010010CD01001027
:10016000CD010010CD010010CD010010CD01001017
:10017000CD010010CD010010CD010010CD01001007
:10018000CD010010CD010010CD010010CD010010F7
:10019000CD010010CD010010CD010010CD010010E7
:1001A000CD010010CD010010CD010010CD010010D7
:1001B000CD010010CD010010CD010010CD010010C7
:1001C00000BE00BE00BE00BE00BE00BE00F04BF888
:1001D000103800BEF2EB88710489031024890310E3
:1001E0003402001090A31AE700202149086006C8D5
:1001F00081F3088810471F48006800282FD10DA4FC
:100200000ECC002902D000F012F8F9E71A491B4A77
:10021000002000E001C19142FCD1194988471949E9
:1002200088471949884700BEFDE701C901C29A42C3
:10023000FBD3704724890310C00000204010002029
:10024000A49803100000042000000420A4980310C8
:1002500000100420001004200000000070470B482C
:1002600004F042FB0047EFF30580C0B27047000086
:1002700008ED00E0000000D04010002068200020C1
:1002800085310010AD0500104531001057560000B3
:1002900006005250ABB36053246D03100600525059
:1002A000861C0302346D0310060052505422A29D96
:1002B0003C6D031005005250DE65F468A4980310ED
:1002C000F8B5C04606480749091A8B10C90FC91866
:1002D00010B5491003D0044B002B00D0984710BD37
:1002E000401000204010002000000000054B10B519
:1002F000002B03D00449054800E000BFFFF7E2FFF0
:1003000010BDC04600000000E81D0020A0E3001062
:1003100082B0D0231B065B68C34001211940002333
:10032000019302E0019B01330193019A1D4B9A4214
:10033000F8D9D0231B065A68C240012313409942C2
:1003400001D002B07047002812D1174B00221A705A
:10035000062813D0022815D0072817D0032819D053
:1003600008281BD00928ECD10F4B09221A70E8E7A6
:100370000128EDD10C4B01221A70EBE70A4B062243
:100380001A70E9E7084B02221A70E7E7064B0722CA
:100390001A70E5E7044B03221A70E3E7024B0822C8
:1003A0001A70CEE70F270000E806002030B583B0B2
:1003B0001B4C200000F03CFC1A4A1B4D009523000A
:1003C0000A21052000F074FF184A009523001E2121
:1003D000052000F06DFF164A00952300322105200C
:1003E00000F066FF134A009523004621052000F027
:1003F0005FFF114A009523005A21052000F058FFA5
:100400000E4A009523006E21052000F051FF0C4A92
:10041000009523008221052000F04AFF03B030BD83
:100420001FF80000A0E30010FFFF0000B4E300107D
:10043000C8E30010D4E30010E0E30010ECE3001088
:10044000F8E3001010B5002829D02A4B012204211E
:10045000002001F081F901220421012001F06CF952
:1004600001220421022001F067F901220421032066
:1004700001F062F901220421062001F05DF9012258
:100480000421072001F058F901220421092001F07C
:1004900053F901220421082001F04EF910BD154B3B
:1004A00000220421002001F057F90022042101203C
:1004B00001F042F900220421022001F03DF900225E
:1004C0000421032001F038F900220421062001F064
:1004D00033F900220421072001F02EF90022042123
:1004E000092001F029F900220421082001F024F953
:1004F000D4E7C0461103001010B5002001F088F9C0
:10050000D02424060123A36200220121002001F04F
:100510009FF8012001F07CF90223A362002201214F
:10052000012001F095F8022001F072F90423A36282
:1005300000220121022001F08BF8032001F068F96C
:100540000823A36200220121032001F081F8062084
:1005500001F05EF94023A36200220121062001F090
:1005600077F8072001F054F98023A36200220121CB
:10057000072001F06DF8082001F04AF980235B00A4
:10058000A36201220021082001F062F8092001F095
:100590003FF980239B00A36201220021092001F082
:1005A00057F80120FFF74EFF10BD0000F0B5CE4612
:1005B000474680B5E84CA54487AAE84B31CB31C209
:1005C0001B78137005F0C2FA00F070FBA0267600CD
:1005D000E348F023009333000022002100F0A4FC44
:1005E000102000F0B9FA0125029502240194DD4B98
:1005F0000093F0233200B421002000F099FD112077
:1006000000F0AAFA91220023029301940093C833C8
:100610005200B4211E2000F08BFD02950194F826B3
:1006200036020096C6237522B621202000F080FDF8
:10063000FA277F00380002F0D6F9FFF75DFF029538
:1006400001940096C623CC22B621202000F070FD34
:10065000380002F0C8F900F0B1FE380002F0C3F92A
:100660009022029501940096C6235200B6212020C4
:1006700000F05EFD0CF06CFC002803D1BA4805F0D8
:1006800027FAFEE7B9490122FFA8F4300AF052FE2A
:10069000011E03D0B64805F04DFAFEE7B549B6484D
:1006A00008F07AF8FA246400200002F09CF9B34DB7
:1006B000280000F0BDFA200002F095F9FFF776FE61
:1006C0000021080000F00AFFAD4800F075FF002689
:1006D0000296F33CFF3C019400955A23C82247211F
:1006E000272000F025FD0296019400964623C8229B
:1006F0003321272000F01CFD0822310085A805F0D9
:1007000065F87F236A469F49521813707C3B6A46FE
:100710009D495218137085A800F044FE310005A8C9
:1007200000F0E7FD012398460525E7E0974BFF22FF
:100730001A702C00A54200D1DFE0052C00D9DCE0C6
:10074000A300934AD3589F46042D04D805248F4B09
:10075000FF221A70EEE72C00F9E7052D04D08B4B31
:10076000FF221A702C00E5E7002EF8D0F3B298466D
:10077000771EBFB20020FFF765FEF1B2142461437B
:100780000B00463333310026029602229146019235
:100790007A4A0092C822272000F0CAFC7C43A1B20A
:1007A0000B0046339BB2333189B202964A4601921E
:1007B0000096C632272000F0BBFC0120FFF742FE66
:1007C0003E00CCE7052D04D0704BFF221A702C00A0
:1007D000B0E7032EF8D8F3B29846771CBFB20020DA
:1007E000FFF730FEF1B2142461430B00463333317E
:1007F00000260296022291460192604A0092C82287
:10080000272000F095FC7C43A1B20B0046339BB23D
:10081000333189B202964A4601920096C6322720A9
:1008200000F086FC0120FFF70DFE3E00CCE7052D11
:1008300004D02C00554BFF221A707BE7F4B2F9E785
:1008400085A905A800F094FD0221002000F046FED5
:10085000504800F0B1FE4D4BFF221A702C0069E7A2
:1008600085A905A800F084FD0221002000F036FED5
:10087000494800F0A1FE454BFF221A702C0059E7B1
:1008800085A905A800F074FD0221002000F026FED5
:10089000424800F091FE3D4BFF221A702C0049E7C0
:1008A0002C0047E7FFF782FD0020FFF7CBFD142562
:1008B0004146694389B20B0046339BB2333189B25A
:1008C000002702970222914601922C4A0092C822E8
:1008D000272000F02DFC7543A9B20B0046339BB2D4
:1008E000333189B202974A4601920097C6322720D7
:1008F00000F01EFC0120FFF7A5FD2500234B1A7810
:10090000092ACDD89300264AD3589F46F8252D02B0
:10091000280000F08DF9234A124B00932B001E2172
:10092000142000F0C5FC2049134807F035FF0122D0
:1009300087A9A4A80AF02EFD002807D11B4887A983
:1009400005F0F8F81A4805F0C3F839E0194B010032
:10095000180005F0EFF8FEE7A4F8FFFF44E50010EB
:1009600094E50010FFFF000004E400102CE40010E8
:1009700030E400104059730700C003401FF8000026
:100980005CE400101502000017020000E8060020D9
:1009900054E5001070E4001084E4001090E40010AE
:1009A0006CE500109CE4001040787D01D4E4001058
:1009B000F0E40010B0E4001024488BA905F0BAF868
:1009C000A4AA64218BA80BF07FF80028F4D120485A
:1009D00005F07EF8A4A80BF060F81E491E4807F049
:1009E000DBFE8AE71F2000F023F91C4A1C4B009312
:1009F0001F231E21142000F05BFC7EE7FC25ED0088
:100A0000280000F015F9174A154B00932B001E2102
:100A1000142000F04DFC70E7002000F009F9124AA4
:100A20000F4B009300231E21142000F041FC64E7CB
:100A30000E4D280000F0FCF80D4A094B00932B00E6
:100A40001E21142000F034FC57E7C046F8E40010E3
:100A500000E500104059730700C0034008E500108E
:100A6000FFFF00001CE5001030E50010308400009E
:100A70009CE4001000B583B001A90870012202486F
:100A80000DF076FC03B000BD00C00340F0B5C646D3
:100A900000B582B004000800984608AB1F78002F0C
:100AA00020D0012F1CD001239B011A4380235B42DD
:100AB00013436A46D11D0B7001258540D0263606AA
:100AC000B561012220000DF053FC3B00424600219D
:100AD00020000DF01DFC756102B080BCB846F0BD71
:100AE0000023E1E701204042F6E70000F8B50400EA
:100AF0000B4F3B7801252A009A40D0263606B2617A
:100B0000084B1B782A009A407261000AFFF7B2FF77
:100B1000E0B2FFF7AFFF3B789D407561F8BDC0467E
:100B2000EE060020EA06002070B5094E3378012455
:100B300022009A40D0252D06AA61064B1B78220080
:100B40009A406A61FFF796FF33789C406C6170BDF4
:100B5000EE060020EA06002010B5074B1A780123A4
:100B600019009140D02212069161044909788B4006
:100B70009361FFF77FFF10BDEE060020EA0600201C
:100B800070B505000C002A20FFF7E6FF2E0A3000A2
:100B9000FFF7CAFFEDB22800FFF7C6FF3000FFF7EE
:100BA000C3FF2800FFF7C0FF2B20FFF7D5FF250A62
:100BB0002800FFF7B9FFE4B22000FFF7B5FF2800D7
:100BC000FFF7B2FF2000FFF7AFFF2C20FFF7C4FFB5
:100BD00070BDF8B507000E0015001C002A20FFF7B5
:100BE000BBFF0020FFF7A0FFF8B2FFF79DFF681ED4
:100BF0000012C0B2FFF798FFE8B20138C0B2FFF7A9
:100C000093FF2B20FFF7A8FF0020FFF78DFFF0B226
:100C1000FFF78AFF601E0012C0B2FFF785FFE0B247
:100C20000138C0B2FFF780FF2C20FFF795FFF8BD19
:100C300070B50500A022F023520000210020FFF72C
:100C4000C8FF0D4B1A7801239340D022120653613E
:100C5000002609E0280AFFF70DFFE8B2FFF70AFFB8
:100C60000134EF2CF6D90136A0235B009E4201D25D
:100C70000024F6E770BDC046EA06002070B5C82023
:100C800001F0B1FE084E3378012422009A40D025AD
:100C90002D06AA61C82001F0A6FE33789C406C6145
:100CA000C82001F0A0FE70BDE9060020F0B585B0B7
:100CB00004F04CFF8F4E307800F0AAFD3378012508
:100CC0002A009A40D0242406626262618A4F3878F2
:100CD00000F09EFD3B782A009A4062626261874F75
:100CE000387800F095FD3B782A009A406262A26154
:100CF000834C8449200007F04FFD226807235A40A7
:100D0000C8331340804A1360804B1878012100F0EB
:100D100087FC7F4B1878012100F082FC7D4B18780E
:100D2000012100F07DFC3178009502AB002220000B
:100D3000FFF7ACFEFFF7A2FF3620FFF70DFFA02064
:100D4000FFF7F2FE3A20FFF707FF5520FFF7ECFE12
:100D50000A2001F048FE2120FFF7FEFE2A20FFF7BF
:100D6000FBFE0020FFF7E0FE0120FFF7DDFE002084
:100D7000FFF7DAFE3F20FFF7D7FE2B20FFF7ECFE50
:100D80000020FFF7D1FE0020FFF7CEFE0020FFF786
:100D9000CBFEEF20FFF7C8FEB220FFF7DDFE0120FB
:100DA000FFF7C2FE0120FFF7BFFE0020FFF7BCFEE9
:100DB0003320FFF7B9FE3320FFF7B6FEB720FFF769
:100DC000CBFE3520FFF7B0FEBB20FFF7C5FE1F208E
:100DD000FFF7AAFEC020FFF7BFFE2C20FFF7A4FEFE
:100DE000C220FFF7B9FE0120FFF79EFEC320FFF7E8
:100DF000B3FE1220FFF798FEC420FFF7ADFE2020BF
:100E0000FFF792FEC620FFF7A7FE0120FFF78CFE3A
:100E1000D020FFF7A1FEA420FFF786FEA320FFF756
:100E200083FEE020FFF798FED020FFF77DFE08202C
:100E3000FFF77AFE1120FFF777FE0820FFF774FE18
:100E40000C20FFF771FE1520FFF76EFE3920FFF72B
:100E50006BFE3320FFF768FE5020FFF765FE36205B
:100E6000FFF762FE1320FFF75FFE1420FFF75CFE22
:100E70002920FFF759FE2D20FFF756FEE120FFF74E
:100E80006BFED020FFF750FE0820FFF74DFE10202C
:100E9000FFF74AFE0820FFF747FE0620FFF744FE53
:100EA0000620FFF741FE3920FFF73EFE4420FFF702
:100EB0003BFE5120FFF738FE0B20FFF735FE1620D2
:100EC000FFF732FE1420FFF72FFE2F20FFF72CFE36
:100ED0003120FFF729FE2120FFF73EFE1120FFF70A
:100EE0003BFE2120FFF738FE2920FFF735FE05B035
:100EF000F0BDC046EE060020E9060020EA0600200C
:100F000000C003404059730700D00340ED060020A5
:100F1000EC060020EB06002010B51400FFF730FEB1
:100F20002000FFF7E3FD10BDF8B5CE46474680B57B
:100F300080461E0008AB1B8899461020FFF70CFE68
:100F40000027002516E002350134A64211DDA0225B
:100F500052009442F7DAEF2FF5DC43465B5D1B024B
:100F60004246521952781A43B9B2A0B2FFF7D4FFE1
:100F7000E9E70137B94501DD0024E6E71120FFF775
:100F8000EBFDC0BCB946B046F8BDF8B5DE465746E5
:100F90004E464546E0B506000F0091461D000AABDF
:100FA0001B78012B27D0002398463CE05C46013497
:100FB00023B29B46DA466B00013B98469B4537DAE5
:100FC00000231A004345F1DA51467118491BEDD44C
:100FD000BA18521BEAD45A46B01880B29CB2E11932
:100FE00089B2491B89B2401B80B24A46FFF794FF81
:100FF000631C1BB2E5E700239B46DBE74346F01882
:1010000080B2A4B2E11989B2013989B2013880B243
:101010004A46FFF781FF013424B25445EEDB4346D4
:1010200001331BB29846AA46A84501DA0024F4E72A
:10103000F0BCBB46B246A946A046F8BDF0B5DE46B8
:1010400057464E464546E0B58BB006000F001100EE
:1010500007921C00059314AB1888039015AB187801
:10106000824616AB18788046931BDA1798185040C2
:101070008146E31BDA17981850400690DA17D31A06
:1010800053409B468E420BD201230893059B9F42FF
:101090000AD2012309934B46069A9D1A002426E0A2
:1010A00001235B420893F1E701235B420993F2E7D6
:1010B000012300935346039A39003000FFF765FF80
:1010C0006B005B4508DB079B9E4227D0069BED1A11
:1010D000089B9C466644B6B26B004B4507DC059BFB
:1010E0009F421BD04D44099B9C466744BFB20134CC
:1010F000E4B24346012BDBD10321200003F048FC7E
:10110000CBB20493002BD3D1013300935346074A4B
:1011100039003000FFF739FF049CD1E70BB0F0BC79
:10112000BB46B246A946A046F0BDC046FFFF000040
:10113000F0B5D6464F464646C0B584B004000F0011
:1011400015001E000CAB1B8898460DAB1B7899460A
:101150000EAB1B78002B3CD100239A4602934B46E2
:101160000193434600930B00FFF768FF5346029339
:101170004B46019343460093330022003900200080
:10118000FFF75CFF534602934B460193434600939F
:101190003B002A0031002800FFF750FF534602931E
:1011A0004B46019343460093330022003100280050
:1011B000FFF744FF0FE0002002904B4601934346A7
:1011C00000933300220039002000FFF737FF01347D
:1011D000A4B2AC42EFD304B0E0BCBA46B146A846D4
:1011E000F0BD0000F8B5DE4657464E464546E0B530
:1011F000824689461E000AAB1B889B46203AD300D4
:101200009B18DB0098460025002742E04346EB1878
:10121000254AD15C07222240802313410B4212D081
:101220004B46F91889B25346E01880B25A46FFF788
:1012300073FE08E04B46F91889B25346E01880B2B5
:101240003200FFF769FE07232340072B1AD0013431
:10125000A4B2102C19D8154B9E42D7D04346EB1898
:10126000114AD15C07222240802313410B42E1D076
:101270004B46F91889B25346E01880B25A46FFF738
:101280004BFEE0E70135EDB2E1E70135EDB20137A4
:10129000BFB2172F01D80024DBE7F0BCBB46B24633
:1012A000A946A046F8BDC0469C3D0310FFFF0000C4
:1012B000F0B5CE46474680B583B004008846160098
:1012C0001F000AAB1B88994600250AE04B46009395
:1012D0003B0041462000FFF785FF0135ADB21134D8
:1012E000A4B2725D002AF1D103B0C0BCB946B046C9
:1012F000F0BD002301E0C1540133802292009342EB
:10130000F9D3704700B585B080236A4613735073D4
:10131000044800230093023303AA3C2107F0B8FBE2
:1013200005B000BDC00A0020F0B583B006000D0076
:101330004F1C380004F034FA0400012304E0F218D2
:10134000013A1278E2540133AB42F8DD40232370B6
:101350000648002300933B0022003C2107F098FB45
:10136000200004F027FA03B0F0BDC046C00A0020F8
:1013700070B505000C002120FFF7C4FF2078FFF7AF
:10138000C1FF6078FFF7BEFF2220FFF7BBFFA07808
:10139000FFF7B8FFE078FFF7B5FF61682800FFF7B7
:1013A000C3FF70BD42780378D21A0132C3788178C6
:1013B0005B1A0133534343607047000080B5424FCE
:1013C000BD440822002180A804F000FA7F236A4669
:1013D0003E49521813707C3B6A463D4952181370BF
:1013E0003C483D4907F028FB0321042000F018F990
:1013F0000321052000F014F900220121042000F04F
:1014000027F900220121052000F022F9AE20FFF784
:1014100079FF2020FFF776FF0120FFF773FF4020C0
:10142000FFF770FFA120FFF76DFFA820FFF76AFF0D
:101430001F20FFF767FFC020FFF764FFD320FFF7EF
:1014400061FF0020FFF75EFFDA20FFF75BFF02205D
:10145000FFF758FFD520FFF755FF8020FFF752FF19
:10146000D920FFF74FFFF120FFF74CFFDB20FFF7FC
:1014700049FF3020FFF746FF8120FFF743FFFF20A1
:10148000FFF740FFA420FFF73DFFA620FFF73AFF3C
:101490008D20FFF737FF1420FFF734FF2E20FFF7D2
:1014A00031FFAF20FFF72EFF80A8FFF77BFF002161
:1014B0006846FFF71EFF80A96846FFF759FF8223A1
:1014C0009B009D4480BDC046F8FDFFFF0102000067
:1014D00003020000C00A0020801A060030B585B063
:1014E00005000C002120FFF70DFF2800FFF70AFF81
:1014F0007F20FFF707FF2220FFF704FF2000FFF700
:1015000001FF0720FFF7FEFE03AA084B1B781370AC
:1015100007480023009301333C2107F0B9FA054B3B
:101520001D70054B1C7005B030BDC04654580310EB
:10153000C00A0020602000205F20002010B586B087
:101540000A2830D02038C4B201AB40221A700021E2
:1015500001230DE0154A20011218505C01AAD05455
:1015600013480278013202700133DBB20131C9B293
:10157000102BEFD92120FFF7C5FE0E4C2078FFF786
:10158000C1FE20780730C0B2FFF7BCFE2220FFF773
:10159000B9FE0120FFF7B6FE0220FFF7B3FE1121CE
:1015A00001A8FFF7C1FE06B010BDC0465858031091
:1015B0005F2000206020002070B50500002407E0B7
:1015C000FFF7BCFF0134E4B2034A13780833137009
:1015D000285D0A28F4D170BD6020002001207047EA
:1015E00010B50400FFF7FAFFA04205D3AC2080003D
:1015F0006043024BC01810BD0020FCE7F00600203D
:101600000120704710B50400FFF7E8FFA04203D3A4
:10161000A001024BC01810BD0020FCE7A00900206B
:1016200010B58300084A944663441A684024624017
:10163000803414408022520113431C60C000034BCD
:101640009C466044416010BD04C001400040014020
:1016500080000B4B9C46604400290DD00823002AD3
:101660000CD004221343026853400C221A408023FA
:101670005B0103431A6070470023F0E70022F1E7A3
:1016800004C001408000064B9C4660440901036889
:10169000594030220A4080235B0103431A6070479F
:1016A00004C0014070B50400D0231B061D680D4B1B
:1016B000AA00D358002B0AD0002803D0094BAD0054
:1016C000EC5070BD08490D2000F028FBF6E700281B
:1016D000F7D0044BAD00E850034900220D2000F084
:1016E00015FAEEE73419002079170010072303409C
:1016F0009B00C00899403C308000014BC1507047AE
:1017000000400140F8B507000C0016001D00FFF76F
:10171000EDFFFB089B00ED18072038408000844057
:10172000002E04D080239B012B431C60F8BDC023F6
:101730009B012B431C60F9E710B5D0231B061B68E7
:10174000002B03D0024BFFF7DDFF10BD014BFAE782
:10175000304101400041014070B514001D00FFF709
:10176000EBFF2800FFF79EFF002C00D170BD012188
:101770000D2000F077F9F9E7F0B5D6464F4646461A
:10178000C0B5D0231B061F681D4BBA00D35898461E
:10179000002F03D01B4B9946002623E01A4B994695
:1017A000FAE724090135002C1BD033000833AB4283
:1017B00017D90F231A00224092462342F1D0134B2F
:1017C000BA00D2580123AB401342EAD15146280057
:1017D000FFF78CFF4346002BE3D051462800C0475B
:1017E000DFE708361D2E06D8F30808339B004A466B
:1017F0009C583500D7E7E0BCBA46B146A846F0BDD4
:10180000341900203041014000410140101E0020E9
:1018100010B501238340D022120693629361052103
:10182000FFF7FEFE10BD0000EFF3108072B6034B11
:101830001B68002BFBD0BFF35F8F70472C0100D0DB
:10184000BFF35F8F024B00221A6080F3108870474D
:101850002C0100D0F8B506000C001500FFF7E4FFDE
:10186000E308F718F15C07222240012393400B4262
:1018700005D1DBB20B433B70FFF7E2FFF8BD21005F
:10188000280001F0FBFCF0B583B0060001911400C4
:101890001F00FFF7C9FF00E00134BC420CD8E30889
:1018A000F518F35C0721214001228A401A42F3D146
:1018B000D2B21A432A7001E001246442FFF7C0FF4C
:1018C000002C02DB200003B0F0BD019B002BF9D0FF
:1018D000089801F0D3FC0000034B1B68022018405D
:1018E000431E9841C0B2704700C00640002307E085
:1018F000054A9A189200BFF35F8F002111600133EF
:101900001F2BF5D97047C04640000034054A1078B7
:10191000431CDBB21370172B02D9130010221A706C
:101920007047C046E009002010B582B00100054CA8
:10193000054B00931F2318222000FFF7A4FF02B0DD
:1019400010BDC0463C190020485E0310074B9B6841
:10195000103080001950BFF35F8FBFF35F8F044BCF
:101960000021196082F310887047C04600ED00E046
:10197000240100D010B50388DA0A1C2A05D15B05C2
:101980005B1502335B00C01810BD034B034A0448CB
:10199000A72101F0DBFBC046645E0310D06003109A
:1019A0007C5E031010B5091A0B1F0A4A88180A4AF0
:1019B000904208D8C90706D45B105B055B0D074849
:1019C000184380B210BD064B064A0748992101F022
:1019D000BDFBC046FC070000FE0F000000E0FFFF5B
:1019E000BC5E0310C46003107C5E031010B5091ABE
:1019F00004394A08090B08D14905490D064B0B4328
:101A00000380064B1343438010BD054B054A06482F
:101A1000A12101F09BFBC04600F0FFFF00F8FFFF93
:101A2000EC5E0310986003107C5E0310012383407A
:101A3000034A10681840431E9841C0B27047C04620
:101A400000E100E0002904D0034B1860034B18604C
:101A50007047034B1860FBE780E200E000E100E024
:101A600080E100E010B5012383401800FFF7EAFF92
:101A700010BD000001238340014A13607047C04637
:101A800000E200E0024B9B6810308000C0587047B5
:101A900000ED00E010B5FFF7F5FF002805D0054B7D
:101AA000C01A2F2803D8012010BD0020FCE7002019
:101AB000FAE7C046E409002070B504000D00EFF31A
:101AC000108672B60C4B1B68002BFBD0BFF35F8FE8
:101AD0002000FFF7D7FF094B984201D0A84205D15B
:101AE000320029002000FFF731FF70BD044B054A8A
:101AF00005487C2101F02AFB240100D0CD01001013
:101B0000FC5E0310F86003107C5E0310F0B5DE4647
:101B100057464E464546E0B589B0814601911500CD
:101B2000EFF3108A72B66E4B1B68002BFBD0BFF32D
:101B30005F8F6C4B00269E57002E41DB7400A4196A
:101B4000A400694824180622A256664B1A70674BF7
:101B50009A684B4610339B00D35898461F00181ABA
:101B60002F2839D9624B984530D105AF614B3B8066
:101B7000614973009B46981980005B4B984640442E
:101B80000230FFF70FFF78805C4BBB80FF23BB71F7
:101B9000FD71019B079333005B449B00434407CFD7
:101BA00007C301231C43A046524641464846FFF75F
:101BB000CDFE09B0F0BCBB46B246A946A046F0BD7A
:101BC0004F4B504A5048CD2101F0C0FA4F4B4D4A7F
:101BD0004D48D42101F0BAFA01380C2102F0D8FEA8
:101BE000002912D101239F43BB463B000027DA792D
:101BF000AA4211D90621595600290CDB4A00521875
:101C0000920039491F008B18F1E7414B3D4A3E488D
:101C1000E02101F09BFA1F00002F2FD005AB3D4AB9
:101C20001A80813A5A800623FB560293002B18DA59
:101C3000BD20000205AB9B469880029A9A71DD7127
:101C4000019A0792381D2100FFF7ACFEB880BE71E3
:101C5000254B7200921992009B185A4613CA13C35F
:101C6000A2E7381DFFF786FE010070008019800092
:101C70001D4BC0180430FFF795FEDBE705AF1D4B89
:101C80003B801D49730002939B199B00164A9046A6
:101C90001A0042440392901CFFF784FE7880039A56
:101CA000101D5946FFF77EFEB8801B4B5A46414631
:101CB000521A524153431B0DBB71FD71019A079299
:101CC000029B9B199B00434407CF07C3114B5A4605
:101CD0001380813B538001231C43A04664E7C04628
:101CE000240100D063200020E409002000ED00E082
:101CF000CD01001000A1FFFF140A002000BDFFFF6E
:101D0000345F0310E06003107C5E03105C5F03101F
:101D1000845F031001480000AAAA0000F0B5CE4677
:101D2000474680B583B006000D00EFF3108872B609
:101D3000504B1B68002BFBD0BFF35F8F4E4B9A6854
:101D400034001034A300D7584C4B9F4207D0AF4209
:101D500000D18CE001974A4BFB1A2F2B09D9424640
:101D600039003000FFF7F2FD03B0C0BCB946B04601
:101D7000F0BD3000FFF75AFE814600213000FFF72A
:101D800071FEBFF35F8FFEF76EFA002801D0844228
:101D900011D10123019C9C430021A368AB4212D0C6
:101DA0000622A256002A0DDB53009B189B00344AE2
:101DB0002100D418F1E7334B334A2C213348FF314B
:101DC00001F0C4F92100AB424AD106256557002D28
:101DD0002CDB2B4B6A00521992009B189A68A26068
:101DE000DA79E2719B795BB2A371002B10DABD2026
:101DF0000002A080224B6A00521992009B18244ACC
:101E000011789971157049463000FFF72BFEA6E74F
:101E10006800401980001A4BC0180430FFF7AAFD73
:101E20000100231D1800FFF7BDFDE2E7002812D1D5
:101E300000290ED0FF238B71164B8B8014490B7831
:101E4000A3710F4A144BA41A644163431B0D0B701A
:101E5000D9E70A4FF2E71149201DFFF7C7FDD2E786
:101E60000F4B094A60210948FF3101F06FF9034F18
:101E700075E7C046240100D000ED00E0CD01001060
:101E8000E4090020F85F0310B06003107C5E0310CB
:101E90006320002000BDFFFFAAAA00001E0A002048
:101EA0001C60031070B50400012606432D4BF31A85
:101EB0002F2B28D8FEF7D7F900282BD0EFF3108C62
:101EC00072B6294B1B68002BFBD0BFF35F8F254AEE
:101ED000264D2100891A49414D432D0D6DB2244BE9
:101EE0009B6880001B58B3421BD00021032932D8C5
:101EF0001C4B4A00521892009B189B795BB2AB4274
:101F00001FD00131F2E71B4B1B4AC2211B4849007D
:101F100001F01CF91A4B184A88211848FF3101F0CA
:101F200015F9134B9B68174A1A50174B1A78A27170
:101F30001D70BFF35F8F0C4B00221A608CF310886A
:101F400070BD084B4A00501880001818FF26867193
:101F50000E4A8280E9E70E4B074ACC210748490028
:101F600001F0F4F8E4090020240100D0AAAA00003E
:101F700000ED00E0246003107C6003107C5E031021
:101F80004C600310CD0100106320002000BDFFFF56
:101F9000586003100022044B02E0044902C30132DE
:101FA000072AFAD97047C04600E400E080808080AC
:101FB00000B583B00100D0231B061B680648181823
:101FC000064B009305230022FFF75DFC002801DB90
:101FD0001F23181A03B000BD5420002060600310B6
:101FE00010B5002B02DB0260436010BD024B034AB8
:101FF00003483F2101F0AAF814610310786103102F
:102000003061031010B582B0040000F075FD0200CD
:102010000B006846FFF7E4FF009A019B22606360B3
:10202000200002B010BDF0B585B0050016001F00FD
:102030000192FA22920000230A98002103F0EEFA9E
:1020400002000B0092197B419F4202D804D19642B4
:1020500002D901225242D31702A8FFF7C1FF029A08
:10206000039B2A606B60280005B0F0BD30B585B0D9
:1020700004000D0002A8FFF7C5FF029A039B00951C
:102080002000FFF7D0FF200005B030BD70B5040080
:102090000E001500FFF73AFC0100200000F006F8E2
:1020A000A680E580BFF35F8F70BD0000024B9C46A9
:1020B000614489000160704740000034084B5B6A4E
:1020C000994209D8064A926A824207D2994201D0BF
:1020D000012002E0002000E0002070470120FCE722
:1020E0000040054010B500290AD003681B7B8B42D5
:1020F00006D38068054B9C4661440901401810BD19
:10210000034B044A04483B2101F020F8FFFFFF0F76
:1021100090610310A0640310B4610310F8B50400CB
:102120001700FFF7DFFF0668456839002000FFF75A
:10213000D9FF026843680120AB4201D802D00020D9
:10214000C0B2F8BDB242FBD8F9E7000010B5002BD1
:1021500002DB0260436010BD024B034A03483F218B
:1021600000F0F4FF146103106C640310306103107D
:1021700070B582B0060014001D00069A079B121964
:102180006B419D4202D804D1944202D901225242AD
:10219000D3176846FFF7DAFF009A019B326073603D
:1021A000300002B070BD000010B5002908D0037BDC
:1021B0008B4205D300684B005B18033BC01810BD71
:1021C000024B034A0348682100F0C0FFEC61031092
:1021D000486403100862031010B5437B8B4201D1A1
:1021E000012010BDFFF7E0FF8378002B01D1002014
:1021F000F7E70120F5E770B50400857B002D01D1DC
:10220000280070BD2900FFF7CFFF4378A373002B90
:1022100000D1E3730023837043700370F0E7000084
:10222000F8B506000C001500FFF7BEFF0700002CF4
:102230000DD0002D11D0AC4215D029003000FFF791
:10224000B3FF84703B78002B13D13D70F8BD0A4B6F
:102250000A4A0B486F2100F079FF0A4B074A0848E9
:10226000702100F073FF084B044A0548712100F00B
:102270006DFF43703D70E9E754620310246403105E
:1022800008620310606203106C62031070B50600F0
:102290000D001400002914D0002A14D0436880686F
:1022A0009847002806D0220029003000FFF7B8FF29
:1022B000280007E02A0021003000FFF7B1FF2000CE
:1022C00000E0100070BD0800FCE7000070B50400DD
:1022D0000D1E0CD0FFF768FF00238370437003705E
:1022E000617B2A002000FFF7D1FF607370BD034BB4
:1022F000034A0448A52100F029FFC0468462031068
:10230000386403100862031070B505000C1E08D075
:10231000FFF762FF002804D1E97B002907D1EC73A5
:1023200070BD054B054A0648F62100F00FFF280056
:10233000FFF73AFF4470F2E7886203101464031059
:102340000862031010B5002907D003681B7B8B427D
:1023500003D3C0680139401810BD034B034A044839
:10236000402100F0F3FEC0469061031000640310AA
:10237000B461031070B505000C00080000F0B0FB5C
:10238000200000F0B3FC0849200000F0F3FBFFF749
:10239000BDFA064B9C466044800068602C75044B77
:1023A000A400E55070BDC046C124001040000034B8
:1023B000001E00200A4B1A68EFF3108172B61368F2
:1023C000002BFCD0BFF35F8F054B1B68BFF35F8F03
:1023D00000221A6081F3108840BF0020002170475E
:1023E0002420002010B582B0040000F085FB02001C
:1023F0000B006846FFF7AAFE009A019B226063600B
:10240000200002B010BD70B584B0040016001D009D
:1024100002A8FFF7E7FF029A039B009601952000B0
:10242000FFF7A6FE200004B070BD0000F0B583B039
:10243000070001921D000AAB1C780BAB1E78002C24
:102440000BD000682100FFF7C7FE002809D0194B08
:10245000194A1A48652100F079FE0068FFF7CBFEA3
:102460000400002C02D1200003B0F0BD2100380090
:10247000FFF738FE019B03604560089B8360099B62
:10248000C36038682100FFF721FFA042EBD1387DFF
:10249000019A2B0000F0B6FB051E01D0002E04D0DF
:1024A0000C9B002BDFD01D70DDE73868210000F0A9
:1024B00055FDF5E7AC62031054640310B4610310DA
:1024C000F0B5DE4657464E464546E0B58FB00B9018
:1024D0000021784B8200D458894682E029002000F0
:1024E000FFF700FE804602684368921BBB41002B49
:1024F00009DD43461A685B680B9800F083FB0023F4
:102500009846002689E0002B01D1002AF1D1002154
:10251000584600F019FD0700A84215D143461A6835
:102520005B680892099343469E68DB689846002ED4
:1025300010D029002000FFF705FF037899461B0201
:102540001F432761002068E05B4B5C4A5C488C219C
:1025500000F0FCFD5B4B594A5948902100F0F6FD14
:102560002369002B77D0BB4219D106980799002325
:1025700042428B4100920193089A099B0CA8FFF7F5
:10258000F7FD0C9A0D9B00210491013103910295F6
:102590004146019100962000FFF748FF16E04A4BA4
:1025A000464A47489F2100F0D1FD069A079B002B21
:1025B00001D1002A52D120682900FFF7A5FE290089
:1025C0002000FFF7BFFE037801330370002323616F
:1025D0006268BFF35F8F13608AF3108801200028C0
:1025E00061D00CA8FFF7FEFE0C9E0D9F0022002379
:1025F000089209936268EFF3108A72B61368002B91
:10260000FCD0BFF35F8F23689B465D7B002D00D01D
:1026100064E700239846002600206368BFF35F8FBD
:1026200000221A608AF31088002ED8D04B461F0271
:102630002F4341463800B047069007916268EFF398
:10264000108A72B61368002BFCD0BFF35F8F079B14
:10265000002B00DA84E7079B002BA6DD2369002B03
:10266000A9D0BB4219D10CA8FFF7BCFE0C9A0D9B58
:1026700006980799009001910CA8FFF779FD0C9A34
:102680000D9B002104910131039102954146019176
:1026900000962000FFF7CAFE98E70B4B074A084850
:1026A000A22100F053FD0FB0F0BCBB46B246A946D4
:1026B000A046F0BD001E0020D46203108464031005
:1026C000B4610310EC620310F862031010B50A4BFA
:1026D0005B68002B04D009480A21FFF7E7FC10BD16
:1026E000054C074A20682300102100F0A6FB0321B7
:1026F0002000FFF73FFEEEE72C0A002024200020F8
:102700001D21001010B5064B5B68002B01D004485A
:1027100010BD044B044A05485C2100F017FDC0467B
:102720002C0A002034630310E8630310B461031023
:10273000F0B5DE4657464E464546E0B58DB006003C
:1027400090461F00169B9A46179B994618AB1B781C
:102750000793272302AA9446634400221A7021E0BB
:1027600001003000FFF7EEFD00783CE00698002BFA
:102770005CD0079B002B59D04946D04704000D0080
:1027800003000B4359D0002940DB08A8FFF72AFEBD
:10279000089A099B0094019508A8FFF7E9FC089B9B
:1027A0009846099F7268EFF3108B72B6136859420E
:1027B0004B41D9B20691002BF8D1BFF35F8F27337D
:1027C00002AA9446634404930023039302934B4666
:1027D00001935346009342463B003000FFF726FE2C
:1027E0000400051EBCD17368BFF35F8F0021196020
:1027F0008BF31088002D17D0272302AA9446634438
:102800001B78002BB2D100022043B0E700236242C4
:10281000AB410092019342463B0008A8FFF7A8FC99
:10282000089B9846099FBDE7012040420DB0F0BCCF
:10283000BB46B246A946A046F0BD0698F6E7F0B5FD
:10284000C64600B584B00500884616001F000AABD6
:102850001C78FFF757FF0294019700962A00434621
:10286000FFF766FF04B080BCB846F0BDF0B5C646C1
:1028700000B504000D004268EFF3108772B61368CC
:10288000002BFCD0BFF35F8FEEB223689846310077
:102890001800FFF7A1FC00282AD02369AB4213D00F
:1028A0002D0AEDB231002000FFF74CFD0378AB425A
:1028B00011D000206368BFF35F8F00221A6087F396
:1028C000108880BCB846F0BD0C4B0D4A85210D48E0
:1028D000490000F03BFC3100404600F03FFB00287F
:1028E000E8D1094B064A12210648FF3100F02EFCC0
:1028F0002369AB42DED100232361DBE75863031079
:10290000D0630310B46103107C63031010B504009E
:10291000FFF7F8FE2100FFF7A9FF10BD30B587B023
:1029200004000D00FDF79FFC002820D10622524232
:10293000D31712196B41AB4202D803D1A24201D97D
:102940000022002304A8FFF701FC02A8FFF74AFDBC
:1029500002980399049A059B121A8B41002B0BDCF9
:1029600008D02000290000F0D3F807B030BD14488B
:1029700000F084FC002AF4D0124A04980599002340
:102980000093FFF75CFF002813DAEAE70E4B1A68A2
:10299000EFF3108172B61368002BFCD0BFF35F8F8A
:1029A000094B1B68BFF35F8F00221A6081F3108808
:1029B00020BF04980599FFF781FB0028E6D0D0E7F7
:1029C00080630310B52300102420002000B583B0DD
:1029D00002000B006846FFF716FD00980199FFF70B
:1029E0009DFF03B000BD10B5FA2292000023002124
:1029F00002F014FEFFF7EAFF10BD000030B583B00F
:102A000005000C000A4A00230093FFF718FF002876
:102A100008DD20BFFFF77AFF28002100FFF74EFBFB
:102A200003B030BD28002100FFF748FBF8E7C0469F
:102A3000B523001010B5002B02DB0260436010BD0F
:102A4000024B034A03483F2100F080FB146103104E
:102A5000606503103061031070B5EFF305833F200C
:102A600018401038EFF3108C72B6184B1B68002B0F
:102A7000FBD0BFF35F8F012319008140144A5163DB
:102A8000144A12781400C440234213D0104B5C6ADD
:102A9000114B8500EB589C4205D3104BEB580D4C65
:102AA0008A43227007E00A4A031D9B0099589950F7
:102AB000002300E00023BFF35F8F044A0021116070
:102AC0008CF31088002B00D0984770BD280100D0EF
:102AD00000400540672000203020002024180020FE
:102AE00010B50100024A034B1800FEF7B3FE10BDFB
:102AF000B86403105E200020044B5B6A034A906AAE
:102B00001900536A9942F9D17047C0460040054008
:102B1000084B5B6A01E0074B5B6A8B42FBD301E029
:102B2000044B5B6A8B4203D1024B9B6A8342F7D30F
:102B30007047C04600400540F0B583B004000D006A
:102B4000FFF7DAFF06000F0022002B0092197B41ED
:102B5000994202D804D1904202D901225242D3179D
:102B60006846FFF767FF00980199FFF7D1FF03B0B0
:102B7000F0BD000070B504000E00EFF3108572B6D2
:102B80001B4B1B68002BFBD0BFF35F8F002E1CD0AC
:102B90002000FEF777FF174B83420BD0190020006F
:102BA000FEF78AFF01212000FEF75CFF0123A3400E
:102BB000114A1360114BA400E650BFF35F8F0C4B1A
:102BC00000221A6085F3108870BD0C4BA200002112
:102BD000D1500122A2400A490B7893430B7005495A
:102BE0002000FFF79BF800212000FEF73BFFE4E701
:102BF000280100D0592A0010386005402418002010
:102C000067200020F0B5DE4600B584B00400150052
:102C100001921E000293FFF76FFF03958E4202D8C8
:102C20004ED185424CD9EFF3108B72B6274B1B68FF
:102C3000002BFBD0BFF35F8F254A17780125A540F5
:102C4000EBB23B431370234B5D63221D920001994D
:102C5000D150214AA100029888501B6A2B4212D100
:102C60001C4B1B6C2B4208D00020BFF35F8F174B0F
:102C700000221A608BF3108823E0184B184A194879
:102C8000C12100F063FAFFF737FF8E4214D802D15A
:102C9000039B834210D80E4B1B78BB420ED00D4BCA
:102CA0001D625D631F222240012393400E4A136080
:102CB000074B1F700120D8E70020D6E70120D4E79A
:102CC000012004B080BCBB46F0BDC046280100D046
:102CD000672000200040054030200020DC64031005
:102CE000446503100065031080E200E0EFF3108CF0
:102CF00072B60B4B1B68002BFBD0BFF35F8F012319
:102D00008340084A136208490A789A430A70BFF35D
:102D10005F8F034B00221A608CF310887047C04607
:102D2000280100D0004005406720002010B5002990
:102D300008D0037B8B4205D300684B005B18033B34
:102D4000C01810BD024B034A0348682100F0FEF989
:102D5000EC6103106466031008620310F8B5060006
:102D60000C001500FFF7E2FF0700002C0DD0002D2E
:102D700011D0AC4215D029003000FFF7D7FF847086
:102D80003B78002B13D13D70F8BD0A4B0A4A0B4823
:102D90006F2100F0DBF90A4B074A0848702100F068
:102DA000D5F9084B044A0548712100F0CFF943706A
:102DB0003D70E9E754620310506603100862031087
:102DC000606203106C62031070B506000D00140001
:102DD000002914D0002A14D043688068984700283E
:102DE00006D0220029003000FFF7B8FF280007E0D6
:102DF0002A0021003000FFF7B1FF200000E01000A2
:102E000070BD0800FCE770B5050000234373013373
:102E10008373037BC373012406E021002800FFF7BE
:102E200085FF0134E4B24470297BA142F5D8280023
:102E3000FFF77CFF0023437070BD10B50173426043
:102E40008360FFF7E0FF10BDF0B5C64600B5050092
:102E50000C1E03D1200080BCB846F0BDFFF766FF12
:102E60004678002EF6D031002800FFF75FFF477844
:102E700000239846437021002800FFF757FF434680
:102E80004370320021002800FFF79EFF0400390044
:102E90002800FFF7D9FF020021002800FFF794FF68
:102EA0000400D7E7F0B5C64600B504000D001700D2
:102EB000002920D0FFF73AFF4378002B21D18378F7
:102EC000002B24D101782000FFF7BEFF06008046CA
:102ED000002F03D0E17B00291FD1E5734346002B6F
:102EE00020D129002000FFF721FF0023437030008C
:102EF00080BCB846F0BD0F4B0F4A1048382100F097
:102F000025F90F4B0C4A0D483A2100F01FF90D4BE3
:102F1000094A0A483B2100F019F92000FFF706FF93
:102F20004570DAE731002000FFF700FF00238370CF
:102F3000D7E7C046786503103C6603108065031030
:102F4000B8650310E065031070B504000A00457B06
:102F50002900FFF7A7FF6073280070BD70B5060059
:102F60000C1E40D0437B8B4207D0FFF7DFFE0500ED
:102F70008178002906D1002036E00121FFF7E4FF27
:102F8000012031E03000FFF7D1FE0178A1420DD0E1
:102F90003000FFF7CBFE4178A1420AD00029F7D1DB
:102FA000124B134A1348673100F0D0F86B78037066
:102FB00001E06B7843700023AB706B70012221003D
:102FC0003000FFF76FFF0200717B814205D03000B7
:102FD000FFF7FAFE7073012006E0074B044A05482C
:102FE0006D2100F0B3F8002070BDC046586003109A
:102FF00024660310806503100466031010B5002BCF
:1030000002DB0260436010BD024B034A03483F21CC
:1030100000F09CF814610310206703103061031066
:10302000F0B585B0050016001F000192FA2292004B
:1030300000230A98002102F0F1FA02000B00921915
:103040007B419F4202D804D1964202D901225242CA
:10305000D31702A8FFF7D2FF029A039B2A606B6086
:10306000280005B0F0BD10B582B00400FFF744FDA4
:1030700002000B006846FFF7C1FF009A019B226027
:103080006360200002B010BD30B585B004000D00B3
:1030900002A8FFF7E8FF029A039B00952000FFF7C4
:1030A000BFFF200005B030BD10B50400FEF72EFCB8
:1030B00001002000FEF7FAFFFF232371BFF35F8FAB
:1030C00010BD10B50400FEF721FC01002000FEF742
:1030D000EDFFFF23237100236371BFF35F8F10BDEA
:1030E000034B9C46614489000160BFF35F8F7047CA
:1030F0004000003410B504000120FEF715FC01006B
:103100002000FFF7EDFF10BD00BEFDE703000A4AF7
:103110001268002A08D0084A1068C318074A9A4261
:1031200006D3054A13607047034A05491160F2E768
:1031300001204042F7E7C046DC19002000000420CF
:103140006820002010B5FFF7DFFF000030B583B026
:103150000D001900002A0BD0074B084C0192009378
:103160002B000200200002F0E5FC0120FFF7CCFF5D
:10317000034B1A00F1E7C046386703104867031095
:1031800058E4001070B52B4B2B4A1A602B4B2C4A7D
:103190001A602C4B9A682A4B9343FAD12A4C01E0CF
:1031A00008CC9847294B9C42FAD300F001F9234BF5
:1031B000274A1A60234B9B68DB43DB01FAD1254B7E
:1031C00040229A675A671A67DA66234C09E0234B54
:1031D000234A24488321FFF7B9FF2000FFF764FF4B
:1031E0000834214B9C4209D22368002BF5D0012BD7
:1031F000EDD12000FFF765FF0834F2E71B4DA96809
:103200001B4CC022200002F0E7FAAC60FDF72BF85F
:10321000002800D000BEFEF769FBFEF7BBFEFFF7FB
:1032200055FA144C01E008CC9847134B9C42FAD352
:1032300070BDC04600E00040BFCDFBFE00F0004086
:10324000FE7F3C0000C00040281000203810002005
:10325000FFFFFF0100F0014010100020786703100D
:10326000EC670310986703102810002000ED00E0C1
:103270000000002038100020401000200FB400B5DE
:1032800083B0084802F024FC049B002B07D005A95A
:103290000191180002F02CFC034802F019FC0120F7
:1032A000FFF732FFDC670310687F0310F8B5DE46D6
:1032B00057464E464546E0B506000F0015000A9AEF
:1032C00093424ED31A0E92461B0298460A9A002346
:1032D0004046514601F09EFB81467400A419A400AB
:1032E0002E4B9C4664446368834200D26060331F67
:1032F000DBB29B46012B3AD9C0239B01234380229A
:1033000012011A60264BB200D158002905D0586925
:1033100001F03EFB01300138FDD16D0123685D40B5
:10332000E0222A4080235B0123431A605A46012A87
:1033300028D980239B012343802212011A604B4627
:1033400063604A4600234046514601F063FB144B3C
:10335000B60098510120F0BCBB46B246A946A04633
:10336000F8BD104B104A11482D21FFF7EFFE012F39
:10337000C2D1C0239B01234303221A60A368DB0749
:10338000FCD5CAE72168794003220A401A60A36885
:103390000125BD401D42FAD0CBE7C0460080004069
:1033A00040190020FC6703105468031010680310D4
:1033B00030B583B00C2000F021F9FEF78DFA00281B
:1033C0000DD0002304E02E4A99002E488850013386
:1033D000092BF8D92A4B2C4A5A6203B030BD2B4B2B
:1033E00000229A6700F07CF9294B01221A60274BD2
:1033F0005B6C012BFBD1274B03221A60234B9B6B89
:10340000012BFBD1013300930433234A01212348CC
:1034100000F054F805230093214A0121214800F0CF
:103420004DF8214B0093002202210420FFF73EFFBC
:103430001E4D00952B00002201210520FFF736FFCD
:10344000104C00942300002200210720FFF72EFFDC
:1034500000942300002200210820FFF727FF0A4BD9
:1034600000932300002200210920FFF71FFF009591
:103470002B00002200210620FFF718FFADE7C04611
:1034800040190020006CDC021BB7000000800040E7
:103490003CB0004030B00040002F6859008002402E
:1034A000008C864700C00240001BB70040597307DC
:1034B000014B8000C058704740190020F0B5C64647
:1034C00000B504000F0090461D000C2001F060FACA
:1034D00006003D4A42443D4B9A4243D843011B1AE1
:1034E0009901C91AC90009188901404601F050FA2A
:1034F0000200103A98235B009A4239D86B1E062BC3
:103500003CD8069B013B062B38D8069B9D423BD3FB
:1035100043461B09B3423DD32D04069B1E0335438E
:103520002368002B3CDB2A4B9C424AD080235B0162
:10353000284A1360284A1360284A92681900914368
:10354000FAD12760A060221DC0239B0113432122D2
:103550001A602268002AFCDAE56008221A6080BC42
:10356000B846F0BD1E4B1F4A1F481121FFF7EEFD64
:103570001E4B1C4A1C481921FFF7E8FD1C4B194A39
:1035800019481C21FFF7E2FD1A4B164A1648222162
:10359000FFF7DCFD184B134A13482521FFF7D6FD32
:1035A00022683F231340BB42BDD1A3681B051B0DFE
:1035B0008342B8D1E368EE22D2021340AB42B2D1CB
:1035C000CDE780239B01B3E780E84BD380F8A93295
:1035D00000C0024000E0004000F0004000C0004099
:1035E00064680310A0690310C46803100469031021
:1035F000206903106C6903108469031080239B0009
:103600000343014AD362704700800540024B1A68A9
:10361000024B5A607047C046E01D00200080054004
:1036200010B5174B8022D2051A60164B164A1A6045
:1036300000290AD0154BE022D2041A60002809D1D3
:10364000124B802212061A6010BD0D4BE022D204EC
:103650001A60F3E743011B1A9B00181800010C4B7A
:10366000186080235B04984202D3094B094A1A6010
:10367000FFF7CCFF054B8022D2051A60E4E7C04675
:1036800000B0054008200140FCFF010000A00540FB
:10369000E01D0020FFFFFF0010B5030010000C4AE2
:1036A0008024E4051460002B0DD001221343094A45
:1036B000094CD461094C5C40146251629362002150
:1036C000FFF7AEFF10BD034B0022DA61F7E7C046FB
:1036D00000B0054000800540D3C007B02D3FF84F33
:1036E000064BAA2212011A602F22DA60044B054A07
:1036F0001A60024B5B68002BFBDA70470040024007
:103700000060024000B0FA009A4200D2885470472C
:10371000704710B5002802D00B684968984710BD63
:103720000100002007E083001B185B00501C0860AC
:103730001078C01830380A681378303BDBB2092B98
:10374000F1D97047F0B5DE4657464E464546E0B5DE
:1037500083B093461F000C9B9A460D9C0E9B994686
:103760000F9B9B0703D0B8460F00060022E0019292
:10377000A34688464E46B9460700B44207D2551CB8
:103780004B4641462020B84701342A00F5E73D006A
:103790004F465C46019B9B46B1464646B8463700BD
:1037A0002E0007E0013C551C5346185D4346390086
:1037B000B0472A00002CF5D135003E0047460F9B4C
:1037C0009B0707D4100003B0F0BCBB46B246A94625
:1037D000A046F0BDB0464E46B9462F005D46531B8D
:1037E000B342EFD2541C4B4641462020B84722003A
:1037F000F5E7F0B5CE46474680B585B09446984685
:103800000C9D0D9C0EAB1B789946109A119B129E35
:10381000B7071CD4002B0CD0F7070AD54F46002F52
:1038200002D10C37374204D0013B02E030272F553C
:103830000134944201D21F2CF8D9F70707D59C42D6
:1038400005D21F2C03D830272F550134F5E7F70692
:1038500012D5770505D4002C03D0944221D09C4288
:103860001FD00F9A102A32D00F9A022A37D01F2C5D
:103870000AD830222A5501341F2C05D84A46002A7E
:1038800033D02D222A5501340396029301940095DA
:1038900043466246FFF756FF05B0C0BCB946B04686
:1038A000F0BD621E012C10D00F9F102F0BD0140002
:1038B0000F9A102AD8D1B206D6D51F2CD4D85822A8
:1038C0002A550134D3E7023CCBE71400C9E7B2061E
:1038D000EED41F2CECD878222A550134C7E71F2CD0
:1038E000D2D860322A550134C1E7720703D52B22A2
:1038F0002A550134C8E73207C6D520222A5501349B
:10390000C2E7F0B5DE4657464E464546E0B593B0B1
:1039100081468A46089209931CAB10CB1B789B46C4
:103920001E9D219B9846002C03D1102342469A43AA
:1039300090468023DB0046461E4042461A4212D083
:10394000002C22D000260EE03033D9B2771C0AAB0F
:1039500099552900200001F01BF8AC4216D31F2F07
:1039600014D83E0004002900200001F011F8CBB269
:10397000092BE9D94246920605D54121C918C9B299
:103980000A39C9B2E2E76121F8E727004346069306
:10399000209B05931F9B049303955B46029301971D
:1039A0000AAB0093099B089A51464846FFF721FF4E
:1039B00013B0F0BCBB46B246A946A046F0BDF0B578
:1039C000DE4657464E464546E0B597B00A900B9105
:1039D0000C929A46209B9946219F22AA13789B46D7
:1039E000249B0993259C289B98464A463A4302D13A
:1039F0001032934398468022D200454615404346F4
:103A000013420AD04A463A4341D000252E0053467D
:103A10000D934D46099B9A461BE02E0053460D938D
:103A20004D46099B9A4614E03033DAB2731C99462E
:103A30000EAB9A55524623002800390000F0EAFFE9
:103A4000BC4226D819D04B461F2B1CD84E46050029
:103A50000F00524623002800390000F0DBFFD3B2EC
:103A6000092BE1D94246920605D54122D218D2B29D
:103A70000A3AD2B2DAE76122F8E7AA45E3D94E461C
:103A80000D9B9A4608E04E460D9B9A4604E00026A0
:103A900002E04E460D9B9A4643460693279B0593AC
:103AA000269B0493099B03935B46029301960EABFE
:103AB000009353460C9A0B990A98FFF79AFE17B099
:103AC000F0BCBB46B246A946A046F0BDF0B5DE4606
:103AD00057464E464546E0B591B0804689460C9221
:103AE0009A461A9C1B9D22002B002000290001F001
:103AF00020FA002800D0ECE001225242D44B2000F2
:103B0000290001F011FA002800D0E2E0012252421F
:103B1000D04B2000290001F0F1F9002800D0D8E0B6
:103B2000002200232000290001F0E8F9002800D03D
:103B3000E4E0069407958023DB001E9A1A400D925C
:103B40001E9A1A4201D106231C9306980799020077
:103B50000B000892099303000A00024300D1D9E048
:103B6000080D4005400DBC4EB44660440A03120BDC
:103B70001E00BA4B13431F0001F0EEF9B84AB94BCF
:103B800001F079F9B84AB94B01F04EF90890099162
:103B90000022B74B3000390001F03DF9B54AB64B71
:103BA00001F069F902000B000898099901F03CF94D
:103BB00001F0EAF9834601F0CFF906000F00AF4AA1
:103BC000AF4B01F058F90022AE4B01F02DF901F096
:103BD000DBF90890AC4AAD4B3000390001F04BF9ED
:103BE00006000F00089801F0B7F9A94AA94B01F0A7
:103BF00042F902000B003000390001F00CF9060018
:103C00000F0002000B0001F036F90A900B91089B9F
:103C1000A14A9446634400210022089109921B05A1
:103C200009930023089332003B003000390001F073
:103C3000FBF80E900F9132003B0000208021C90557
:103C400001F0E9F806000F000022944B0A980B9946
:103C500001F0F3F80022924B01F0E6F802000B00AD
:103C60000A980B9901F0E9F800228E4B01F0DCF87C
:103C700002000B000A980B9901F0DFF802000B001C
:103C80003000390001F0D0F802000B000E980F99B7
:103C900001F0D3F80022714B01F0C6F8089A099B95
:103CA00001F0E9F806000F0008960997069A079BAD
:103CB00001F03AF900282FD001235B429C46E344EF
:103CC0000022774B3000390001F0B7F808900991D5
:103CD00022E01E9B04931D9B03931C9B0293009464
:103CE000019553460C9A4946404600F0FFF811B042
:103CF000F0BCBB46B246A946A046F0BD002100225A
:103D000006910792069480231B069C46AC446346AA
:103D1000079310E700239B465B466333C62B20D8EE
:103D200004261E9B1B0528D5089A099B19001143E0
:103D30000FD05D4A5D4B0698079901F0EDF8002819
:103D40007AD000225A4B0698079901F0D7F800283C
:103D500072D01C9B5B4506DD5A469B1A013B1C93A7
:103D600003E00526DDE700231C938023DB001E9A79
:103D70001A431E92002600239B461D9B9E4265D23D
:103D80009F1B02231E9A1A400A921E9A134202D0C7
:103D9000002E00D000275B46002B07D0089A099B15
:103DA0000698079901F049F8069007910022002330
:103DB0002000290001F0A2F8002800D07CE03D4B53
:103DC0001E9A1340049303971C9B0293069B079C27
:103DD0000093019453460C9A4946404600F086F8F9
:103DE000002E00D183E71E9B9B0671D54525441C00
:103DF0005346020049462800C0475A46D317D218F6
:103E00005A4005230593013E0496002303930A3389
:103E100002935B46DB0F0193009253462200494612
:103E20004046FFF76EFD0A9B002B00D15FE70200C2
:103E300047460C9E1D9D53E01C9B002B9DD00D9B67
:103E4000002B9AD01C9B013B1C9396E7002798E718
:103E5000FFFFEF7FFFFFEFFF01FCFFFF0000F03FE0
:103E6000FB799F501344D33FB3C8608B288AC63F69
:103E70000000F83F61436F63A787D23F71A37909C0
:103E80004F930A400000E03F1655B5BBB16B0240AE
:103E9000EF39FAFE422EE63FFF03000000002C40FF
:103EA00000002440000018402D431CEBE2361A3F6E
:103EB00080842E41FFF7FFFF069C079D220029000A
:103EC00080200006844661440B000692079376E743
:103ED00065258CE7541C534649462020B8472200EC
:103EE000931BAB42F6D3100001E7C046F0B5DE46A7
:103EF00057464E464546E0B595B006900791934625
:103F00009946209F1E9A1F9B1000190001F011F87E
:103F1000002831D101225242BF4B1E981F9900F058
:103F2000EDFF002837D101225242BC4B1E981F9949
:103F300000F0FAFF00283DD10022B94B1E981F99CE
:103F400000F0F2FF002850D10022B64B1E981F99B6
:103F500000F0D4FF002848D1002200231E981F99AA
:103F600000F0CCFF002850D100239846229B5B052F
:103F700000D4B6E0002458E0229B0393219B0293D7
:103F800003230193A84B00934B465A460799069882
:103F9000FFF7D8FB0EE1229B0393219B029304239E
:103FA0000193A24B00934B465A4607990698FFF798
:103FB000C9FBFFE00423229A1A4022990B4210D039
:103FC0009B4B002A0FD00422229903912199029140
:103FD000019200934B465A4607990698FFF7B2FBA9
:103FE000E8E0944BEDE70322EEE7229B0493219B4C
:103FF000039302971E9B1F9C009301944B465A46C5
:1040000007990698FFF762FDD4E01E9A1F9B0020D7
:10401000002100F000FF1E901F9101239846A5E7A4
:104020000CAB30221A55013F01341F2C01D8092F47
:10403000F6D81E981F9900F0A7FF050000F08CFF2E
:1040400002000B001E981F9900F0E5FE7A4BFA0063
:104050009B181A685B680A920B9300F00CFF08909B
:10406000099100F0B5FF060000F072FF02000B009E
:104070000898099900F0CFFE0890099100226F4B33
:1040800000F052FF00282ED00136300000F060FF13
:1040900002000B000A980B9900F036FF002801D0AF
:1040A00001350026002F2CD1280000F055FF02001A
:1040B0000B001E981F9900F0AEFE06000F000022B4
:1040C0005E4B00F01BFF002846D100225B4B300006
:1040D000390000F029FF00283ED1EB073CD501351F
:1040E0003AE0062746E70022544B0898099900F069
:1040F00005FF0028D6D1002E01D0F307D2D5013616
:10410000D0E7AA461F2C11D8013F0A21300000F049
:104110003FFC651C30310CAB19550A21300000F012
:1041200037FC092E0ED906002C00EBE755461F2C54
:104130000CD87B1E002F09D00CAA302111551F006E
:104140000134F4E72B0055461C00F0E71F2C03D880
:104150000CAB2E221A5501341F2C10D80A2128002E
:1041600000F0EEFB661C30310CAB19550A2128001B
:1041700000F0E6FB051E01D03400EDE73400032318
:10418000229A1340012B1CD01F2C06D84346002B2B
:1041900032D00CAB2D221A550134229B0393219B64
:1041A000029301940CAB00934B465A46079906982C
:1041B000FFF7C8FA15B0F0BCBB46B246A946A04608
:1041C000F0BD219B002B13D04346002B02D10C33B2
:1041D00013420FD0219B013B2193190003E00CAB4C
:1041E00030221A5501348C42CED21F2CF7D9CBE79E
:1041F0002199F8E72199F6E7229B5B0704D50CABE0
:104200002B221A550134C8E7229B1B07C5D50CABDE
:1042100020221A550134C0E7FFFFEFFFFFFFEF7FB9
:1042200065CDCD4165CDCDC1B8690310BC69031022
:10423000AC690310B4690310606B03100000E03F29
:10424000F0B5DE4657464E464546E0B593B0824649
:10425000884693461193002900D106E3002556466F
:10426000119B1878002800D102E3252809D06C1C86
:104270005B462A004146B047119B0133119325004C
:10428000EEE701331193002720E001231F430132A1
:104290001192012418E002231F43013211920124DC
:1042A00012E004231F430132119201240CE0082381
:1042B0001F4301321192012406E010231F430132F3
:1042C0001192012400E00024002C09D0119A1378E7
:1042D000203BD9B21029F6D88B00C449CB589F4651
:1042E000119B1A781300303BDBB2092B10D92A2A14
:1042F00013D00B94119B1A782E2A1ED0119A137882
:10430000683BD9B2122959D88B00B949CB589F467E
:1043100011A8FFF705FA0B90ECE71C9B1A1D1C92E5
:104320001B68002B04DB0B93119B01331193E1E716
:10433000022217435B420B93F6E78022D200174319
:104340005A1C11925A781300303BDBB2092B0BD95F
:104350002A2AD3D11C9B1A1D1C921C68002C08DB36
:10436000119B01331193C9E711A8FFF7D9F9040094
:10437000C4E70024F4E780235B003B43511C119108
:1043800051786C2901D01F0018E0C0239B001F4307
:104390000232119212E080233B43511C119151785B
:1043A000682901D01F0009E0C0231F430232119287
:1043B00004E080235B001F4301321192119B1878A7
:1043C000672816D8252826D30300253BDAB2422ACF
:1043D00021D89300874AD3589F4680239B001F43D0
:1043E00001321192EAE780235B001F4301321192F0
:1043F000E4E778280FD869280DD30200693AD2B2D1
:10440000012393407C4A13420FD11A0600D507E2DC
:104410005B0500D594E16C1C5B462A004146B04721
:10442000119B0133119325001AE778280AD06228DE
:104430003AD06F283BD058283CD010239F43063BEE
:104440009C4601E010239C46582836D0692803D0AA
:10445000642801D00C2297437A0501D501229743A5
:1044600069282DD064282BD0BA0500D5A2E0FA0522
:1044700000D5C3E07A0600D4D5E01C9A111D1C912A
:104480001168FF220A4005970B9B0493039463462F
:1044900002930023019300925B462A0041463000BC
:1044A000FFF72FFA05002AE002239C46CCE70823F9
:1044B0009C46C9E710239C46C6E720221743C5E760
:1044C000BA0520D4FA0550D47A0666D51C9A111D77
:1044D0001C911168FF220A40D0171118414005971E
:1044E0000B9B0493039463460293D20F01920091B5
:1044F0005B462A0041463000FFF703FA0500119B96
:1045000001331193ACE61C9A073207218A4311004C
:1045100008311C91116853689946DB170C930D9371
:104520000C9A0D9B100048400E904A4653400F9342
:104530000E980F990C9A0D9B801A99410E900F912D
:1045400008970B9B079306946346049300230593F7
:104550004B46DA0F0292009001915B462A004146D9
:104560003000FFF72CFA0500C9E71C9A111D1C91B9
:104570001268D0171118414005970B9B04930394C0
:1045800063460293D20F019200915B462A00414696
:104590003000FFF7B6F90500B1E73A0605D51C9AD9
:1045A000111D1C910023D25E96E71C9A111D1C91CF
:1045B000126891E71C9A073207218A4311000831DB
:1045C0001C9108970B9B0793069463460493002362
:1045D0000593029353681268009201935B462A0088
:1045E00041463000FFF7EBF9050088E7C469031086
:1045F000086A0310546A0310419000001C9A111DB0
:104600001C9105970B9B049303946346029300232C
:104610000193136800935B462A0041463000FFF780
:1046200070F905006BE73A0606D51C9A111D1C911E
:1046300012681204120C26E71C9A111D1C911268B4
:1046400021E7462819D01C9B0733072293431A0001
:1046500008321C9204970B9A039202941A685B68C2
:10466000009201935B462A0041463000FFF73EFC72
:104670000500119B01331193F2E520231F43E2E76C
:10468000672801D0472802D180231B011F434528FA
:1046900001D0472801D120231F431C9B0733072249
:1046A00093431A0008321C9204970B9A03920294C7
:1046B0001A685B68009201935B462A00414630000D
:1046C000FFF704FA0500119B01331193C8E502239B
:1046D0001A003A4091463B421DD001241C9B1A1DF2
:1046E0001C926F1C18785B462A004146B0474B4627
:1046F000002B14D1119B013311933D00B0E5571CE1
:104700005B4641462020B04723003A005C1C9D4296
:10471000F5D81500E2E701232A000B9DF6E73A00E1
:10472000B1460B9E06E0571C5B4641462020C84719
:104730002C003A00651CA642F5D817004E46D9E772
:104740001C9B1A1D1C921B689A46002C25D1012225
:104750005242534601E001330A001978002902D081
:10476000511E002AF7D152469B1A8022D2003900EE
:1047700011408946174202D0A34200D923000222E9
:104780001100394010913A4209D02A0025005746BD
:104790009A4633004E46994621E02200D9E72A0086
:1047A0004546A04606E0541C5B4629002020B04741
:1047B0003B0022005F1C0B999942F4D84446A8465E
:1047C0003B00250057469A4633004E46994606E080
:1047D0001D000137541C5B464146C847220038780B
:1047E000002804D0002EF4D06B1E002DF0D115004F
:1047F00053464E46109A002A03D1119B0133119360
:104800002EE50B9F2A0006E0551C5B464146202002
:10481000B04723002A005C1C9F42F5D81500ECE746
:1048200021233B431C9A111D1C91126805930823F8
:1048300004930394083302930023019300925B4690
:104840002A0041463000FFF75CF80500119B013358
:10485000119305E56C1C5B462A0041462520B047B4
:10486000119B013311932500FAE40B4B9A46F5E4B2
:10487000B2465D450DD35B465A1E5B46414600205D
:10488000D047280013B0F0BCBB46B246A946A046AC
:10489000F0BD2A00F1E7C0461137001010B582B014
:1048A000044C009313000A0001002000FFF7C8FC2D
:1048B00002B010BD0937001000B585B00290039119
:1048C00001210448009313004A4202A9FFF7B8FCF3
:1048D00005B000BD1337001001480421014B1847F3
:1048E000600A00200949001010B5010018231B8838
:1048F00014221088984710BD10B5010018231B889A
:1049000016221088984710BDF0B5C64600B50700BE
:104910000E0000250123984600E00135B5420AD279
:10492000AC003C192068FFF7DFFF20600028F4D1BD
:1049300000239846F1E7404680BCB846F0BD000031
:10494000124A936F9B0815D29066D166002905D054
:10495000FFE7FFE7FFE7516F106F704704B5802155
:104960000906C2175140002800D0C84309F0E8FCEE
:10497000002104BDF0B5146E556E576F166FFFF72A
:10498000E3FF1466556657671667F0BD000000D058
:10499000114A936F9B0813D210665166002905D007
:1049A000FFE7FFE7FFE7516F106F704704B500287E
:1049B00001D00020C04309F0C3FC002104BDC04663
:1049C000F0B5146E556E576F166FFFF7E5FF14665E
:1049D000556657671667F0BD000000D094464E4AF2
:1049E000926F9208624601D230E0C046F0B54A4E5E
:1049F000B56F6D08FCD3346E756E776F366F00F04F
:104A000025F89446444A1466556657671667624609
:104A1000F0BDC0469446404A926F9208624601D269
:104A200058E0C046F0B53C4EB56F6D08FCD3346E0F
:104A3000756E776F366F00F04DF89446364A1466FF
:104A40005566576716676246F0BDC046002B24DBEB
:104A500011D000293EDA00B5C943404200D10131EE
:104A600000F038F8C943404200D10131DB435242E3
:104A700000D1013300BD002AEBD1002801D100296B
:104A800005D00020C90FC90701D1C043410800B5B6
:104A900009F04EFC0022002300BD00B500290ADB0E
:104AA000DB43524200D1013300F014F8C9434042C5
:104AB00000D1013100BDC943404200D10131DB4387
:104AC000524200D1013300F005F8DB43524200D1DD
:104AD000013300BD002923D1002B18D1002A0CD0AE
:104AE000BC460D4F38667A6600210023FFE7FFE7DA
:104AF000FFE77A6F386F67467047002801D0074894
:104B0000010000B509F014FC0022002300BD0200E2
:104B10000B00002000217047000000D0FFFFFFFFC6
:104B2000002B00D0BFE0130C28D1002AE7D080B4BE
:104B3000114F39667A66FFE7FFE730B4040C7B6FEC
:104B4000396F1B0423433B667A66FFE7FFE7FFE705
:104B5000C04684B27B6F3D6F1B0423433B667A667D
:104B6000FFE7FFE7C04600232C042D0C7A6F386F57
:104B700000196941B0BC7047000000D0F0B5944600
:104B80000025140E01D112020835140F01D11201B3
:104B90000435940F01D192000235D40F01D1520097
:104BA0000135D40B0134254F7C66254C3C660E0C38
:104BB00093B2FFE7FFE7FFE73C6F6643360C7703EE
:104BC000BE467343DF0B5B04C01AB941130C734339
:104BD000DB18C91ACE086643360CB64493B2734349
:104BE0001F0F1B01C01AB941130C73431F0B1B0588
:104BF000C01AB941860D8F023E436643360C092D1B
:104C000024DB520A7243801A7703460A6643360C45
:104C100016235B1BDE40DF40BF1964466643821BE0
:104C20007046043506330100D940A840C01900D3AE
:104C30000131A24206D20023F0BD0000000000D0E6
:104C4000FFFFFFFF121B0130F3D3F1E709277F1BA2
:104C5000FE406446A2B27243801A00D20139220C8F
:104C60007243130C1204821A99410B0070460435EA
:104C700013370100F940A840801900D30131002BFF
:104C800002D1A2420AD2F0BD013000D30131121B81
:104C9000FAD2013BF8D1A24200D2F0BD013000D3DC
:104CA0000131121BF7E7F0B51C0C00D080E00CB40A
:104CB00000251C0A04D11B02160E334312020835CC
:104CC0001C0B04D11B01160F3343120104359C0B3E
:104CD00004D19B00960F334392000235DC0B02D1C6
:104CE00092185B4101351C00971864410134464F0E
:104CF0007C66464C3C660E0CFFE7FFE7FFE7C046CC
:104D00003C6F6643360C7703BE4697B27743C01BB1
:104D100000D20139C01B00D201399FB27743C91BB1
:104D2000C91B170C77437E04FF0B801BB941CE08CB
:104D30006643360C0C2D33DBB644120B1F053A4389
:104D40001B0B97B27743C01B00D201399FB2774348
:104D5000C91B170C77433E043F0C801BB941860DDD
:104D60008F023E43664329277F1BFE400C3D77465A
:104D7000AF40BF1930BCA2B2ABB272437343801ACA
:104D80009941220C7243130C1204801A99410200BB
:104D90000B000137001BA941F9D2781E0021F0BD9C
:104DA0000C277F1BFE4077467F0BAF40FF19E0E7E3
:104DB00000245D1C07D0144F7D663966FFE7FFE7CE
:104DC000FFE7FFE73C6F95B29EB265436643401B29
:104DD000B141150C1E0C6543664336042F0C3E434F
:104DE0002D04401BB141994204D202000B00200067
:104DF0000021F0BD01D19042F7D3801A99410134CE
:104E00009942F2D3F6E70000000000D0FFFFFFFF59
:104E100048404140484018B41B4B5B68FC46019336
:104E200008BD04DFEF50001018B4174B1B68FC4698
:104E3000019308BD00DFF95000109446134A926FA9
:104E4000920809D2624618B40F4BDB68FC46019306
:104E500008BD0CDFB15300100C4AF0B5146E556E4E
:104E6000576F166F6246FFF7EEFF084A14665566E5
:104E700057671667F0BD18B4034B9B68FC46019357
:104E800008BD08DF55520010201E0020000000D091
:104E9000FFB550404240504059404B40594000E01F
:104EA000FFB5154F4C00640D03D0BC4204D10C0378
:104EB00014D80020090D09055C00640D03D0BC4224
:104EC00004D11C030AD800221B0D1B0501264B40F0
:104ED00009D44B4003D58B4200D18242FFBD994299
:104EE000FCD19042FFBD0B43DB1803431343F5D0C5
:104EF000C9434918FFBD0000FF07000000B5FFF7D8
:104F0000CFFF804100BDC04600B5FFF7C9FF01D902
:104F1000002000BD012000BD00B5FFF7B9FF01D999
:104F2000002000BD012000BD00B5FFF7B1FF8041AA
:104F300000BD012040054A00121804D85A0012187A
:104F400001D8002070470120704700207047000002
:104F50000021002805D17047C1174840401AFAD0F7
:104F6000C90713B5064B1B6898470CBC441CA240EC
:104F70001005120B0349091B09051943114310BD04
:104F8000201F00201F04000010B54C00620D80237C
:104F9000D218DB00D21A5B057E2A10DD9E3A13DAA6
:104FA000CC170903490819435242D1406400013427
:104FB0001532202A05DAD0400843604310BD002096
:104FC00010BD0846604310BDC80FC018013810BDA1
:104FD00018B4044B5B6AFC46019308BD24DF61559D
:104FE00000100000201E002070B513231C78012C37
:104FF00012D0012C12DC214B214A93642148FFF787
:1050000073FC214B186070BD1C491D4A98008150EB
:1050100001331F2BF8D9ECE70023FAE71B48FFF711
:105020006BFC05001A48FFF767FC023803789B0009
:105030007F2B09DD12488022290000F0CDFB022CD5
:1050400008D0022CDADCD6E7124B134A134832217F
:10505000FEF77CF8124B1A88B5231B029A4209D13D
:10506000104B1A88104B9A4204D1104B1A88104BDF
:105070009A42E6D00020FEF701F9C046B550001074
:10508000201E00204C330000201F0020534400004D
:1050900053460000B06B0310586C0310106C0310E3
:1050A00054380000D8380000494600009C38000001
:1050B0005946000007B56046002800D100BE0188AF
:1050C0000A0A0230DF2AFAD1C9B2820804D3028860
:1050D00040880004104300E00068024A50500390EA
:1050E00007BD0000201E00200FB403BC0CBCF0B5AF
:1050F0000124E407634000E0F0B50C0DCF0F661EFD
:105100003605891B640503D3C943404200D30131EE
:10511000640D03D0661CF60A07D0E41B00207F0054
:10512000791C89078912803C24031D0DDF0F6E1E38
:1051300036059B1B6D0503D3DB43524200D301337D
:105140006D0D03D06E1CF60A07D0ED1B00227F0008
:105150007B1C9B079B12803D2D032F1B661B58D485
:10516000A446202E46DA20371400BC401D00BD4066
:10517000F24033412A4380185941CB0F05D0C9432F
:10518000C043002264425041514162464D0D28D136
:105190000D0D07D100281FD0241940414941013A83
:1051A0000D0DF9D0640006D3013000D30131002C7D
:1051B00001D140084000013A0BD4941CE40A04D108
:1051C00012051144DB071944F0BDD907204B1943E0
:1051D00000E0D9070020F0BD0029DDD1002CDBD193
:1051E000F0BD0132C6074008CD0728434908002E0C
:1051F000E1D0D9E73C2E29DA203E40371400BC40EC
:1052000000D00124F24014431A00BB401C43D317C2
:10521000ACE7AC46202F08DA20360400B4400D007D
:10522000B540F84039412843A5E73C2F0CDA203F30
:1052300040360400B44000D00124F8400443080084
:10524000B1400C43C117EAE710001900002494E7AD
:105250000000F07FF0B50C0D661E3605891BE60ACE
:105260006405640D02D0651CED0A04D00020012104
:105270000905803C2403A4461C0D671E3F05DB1B6B
:10528000E70A6405640D02D0651CED0A04D0002213
:1052900001231B05803C24037740644497B484B207
:1052A00096B27443070C7E43150C6F4380B268437B
:1052B000361802D3012000043F183004350C0019C1
:1052C0007D41844688B29AB250430C0C62431F0C55
:1052D0007C438EB27E43921902D301263604A41970
:1052E0001604170C3618674101BC81B29AB25143BB
:1052F000040C62431B0C5C4380B25843121802D367
:105300000120000424181004130C401863412D18C8
:105310005E410020474106BC88B293B258430C0C52
:105320006343120C544389B251435B1802D30121E9
:105330000904641819041A0C091862416D185641C1
:105340000020474118BCF902720D1143F0026A0DAA
:105350001043ED020A0D03D16D1940414941013B53
:10536000124E9B1B7600B3420ED26D0007D3013064
:10537000002671416646354301D1400840001B05B7
:10538000C918E4072144F0BD0BDA013306D101301E
:1053900004D101314F0D01D04908F2E7E1070020A7
:1053A000F0BD013631050020EBE70000FF030000EF
:1053B000F0B51C0D671E3F05DB1BE70A6405640D95
:1053C00002D0661CF60A04D0002201231B05803C93
:1053D0002403D0252D060026F6432E661E096E6690
:1053E000CE0FF619B44649004F0D02D07E1CF60AC6
:1053F00003D000200021403F3F033E1BB600B444D1
:10540000013F7F05C91B49082E6F013676089C02B3
:10541000950D25437543ED137543AD1301356D109F
:10542000F603761B0CB4CC02450D2C43A2B2B3B2EA
:105430005A43270C7B43350C6F43A4B26C431B19B2
:1054400002D3012424043F191C041D0CA4187D411F
:1054500024196D41009A91B2ACB26143170C7C43A0
:105460002B0C5F4392B25A43A41802D301221204B8
:10547000BF182204230C52187B41019C6C431B195A
:10548000520ED9010A434401A01A81B2B2B251436B
:1054900003145A43360C734387B27743D617D21995
:1054A00000277E4136049B191704160C7F185E41B5
:1054B0007316ED18F301002680337541A90F06D14C
:1054C0006400690AE8055B0A184309D22FE0042248
:1054D000944480337541A90AA8059B0A184326D332
:1054E000404149412404009A019B0D005543641B2F
:1054F0004343E41A95B286B27543170C7E43030CFE
:105500005F4392B25A43B61802D301221204BF1865
:105510003204330C52197B4152429C41002C02D47C
:105520000022013051414008CA071043490802B027
:105530006246D7079210084BD218084B9A4203D202
:1055400012058918C919F0BD0020002A01DC3900B4
:10555000F0BD01331905F5E7FD030000FE0700006B
:10556000002200B5203200F004F8080000BD000061
:1055700000220B150AD410B5944600F031F814142B
:10558000013400DA0021CB17144C20470020002101
:1055900070476244343A0CD40C2A07DA0400914074
:1055A000904052422032D440214310BDD843D943C9
:1055B00010BD203207D40C46944052422032114193
:1055C000D040204310BD0800C917203203D45242F6
:1055D0002032104110BD1800190010BD9355001065
:1055E0000A0DCC0F531E1B05C91A520503D3C9431C
:1055F000404200D30131520D03D0531CDB0A07D0C7
:10560000121B00206400611C89078912803A120372
:10561000014BD21A70470000FF030000514343437F
:10562000C9188C46110C83B24B4310B4040C61436F
:1056300092B280B2504362431C041B0C001910BC90
:1056400059411304120CC0185141614470470000C5
:1056500070B513231E782A48FFF74EF90500012E76
:1056600011D0012E09DDAB1E1B789B007F2B40DD86
:1056700024488022290000F0AFF82348FFF734F9CE
:10568000224B186070BD1F485422290000F0A4F876
:105690001F4B1A881F4B9A421CD1A7239B011A88C3
:1056A0001D4B9A4216D11D4B1A881D4B9A4211D19F
:1056B0001C4B1A8894239B019A420BD11A4B1A88CF
:1056C0001A4B9A4206D11A4B1A681A4B9A4201D1C8
:1056D000152307E01848FDF7D1FD184C094A990039
:1056E0008C5001331F2BF8D9144B064A1362D36137
:1056F000B7E7134B134A14484221FDF727FDC04674
:1057000053460000241F00204C330000201F0020BF
:10571000EE290000C40F0000C20D0000962B00000F
:10572000C0B50000182B0000CC2A000010B5000006
:10573000FC2C000051ED876458E400104D57001018
:105740006C6C0310E86C0310A06C031007B5604686
:10575000002800D100BE01880A0A0230DF2AFAD1EF
:10576000C9B2820804D3028840880004104300E0D4
:105770000068024A5050039007BD0000241F00201B
:1057800010B5002804D04018034B984200D810BD33
:105790000248FDF773FDC04600000420FC6C0310B6
:1057A00070B5050007F0B4FD04002900FFF7E8FF1D
:1057B000200070BD10B507F0B5FD10BD01480421F3
:1057C000014B1847700A002009490010014B1B6863
:1057D00018470000700A0020014B5B681847000062
:1057E000700A0020084B5B6A994209D8064A926AFF
:1057F000824207D2994201D0012002E0002000E05D
:10580000002070470120FCE70040054010B5030070
:10581000080011001B68984710BD0000F8B507008C
:105820000D001600437C002B02D0002400200CE069
:1058300003681100280098472DE03B7C10E03B688E
:10584000154802219847601C0134B44214DA002C38
:10585000F3DD2B19013B1B780D3B5A425341DBB260
:105860002A5D0A2AF0D1002BEED1A042E7DA3B688C
:10587000211A28189847E2E7B04203DA3B68311A48
:1058800028189847002E06DDAD19013D2B780D3BF9
:105890005A4253413B74F8BD6C6D031070B505005E
:1058A0000368002B16D00C4B1C6805E0290004C9C6
:1058B0002000FFF7B3FFE468002C09D02368002B19
:1058C000F9D0064B1B68002BF0D0A342F3D1EDE7D3
:1058D00000232B6070BDC046D0190020D8190020CD
:1058E00070B505000C000B68802B05D023685A1C8E
:1058F0002260E418257170BD0800FFF7CFFFF5E7BF
:10590000F8B5CE46474680B507000E00914698464A
:105910001BE0A368002B04D0310038009847002812
:1059200018DCE468002C06D00C4D2D68002DF0D05A
:10593000A542F6D1EDE748464146FFF753FF002860
:1059400006D101200021FDF7F7F8054B1C68E9E7B7
:1059500001204042C0BCB946B046F8BDD81900206D
:10596000D019002010B582B0D0231B0600241C578C
:10597000074801A908F0ECFC002806D1019B9C42D5
:1059800003D0034808F004FD012002B010BDC0465A
:105990001010002010B5024808F0C2FC10BDC0462F
:1059A00010100020F0B5CE46474680B583B0060003
:1059B0000D0090461C00FFF7D5FF81466B1C05D0FB
:1059C000002C08D0194F1A4B1C6807E0300008F073
:1059D000B9FA0500F4E7174FF5E7E468002C17D093
:1059E0002368002BF9D0144B1B68002B01D0A34275
:1059F000F3D12A0031002000B8474346002BECD0F9
:105A00006B46D91D0A230B7001222000B847E4E73A
:105A10004B46002B07D16B1E9D41E8B203B0C0BCC2
:105A2000B946B046F0BDFFF7B5FFF4E70D580010DA
:105A3000D01900201D580010D819002010B50300FF
:105A400008001100002B05D1044B1A685B68FFF7B2
:105A500057FF10BD01204042FBE7C046B064031071
:105A600010B5030008001400013B012B06D80023E9
:105A700000222100FFF796FF200010BD01204042C8
:105A8000FBE70000094A01E00C331A001368002B01
:105A900008D08342F8D1002907D1C36813600023DE
:105AA000C36002E0002900D010607047D0190020C8
:105AB00010B5064B1C6801E09847E468002C03D041
:105AC0006368002BF8D1F8E710BDC046D01900205C
:105AD00070B5050008F036FA040000230122010029
