:020000041000EA
:1000000000B5324B212058609868022188439860DF
:10001000D860186158612E4B002199600221596106
:100020000121F02299502B49196001219960352056
:1000300000F044F80222904214D00621196600F024
:1000400034F8196E01211966002018661A6600F04E
:100050002CF8196E196E196E052000F02FF8012189
:100060000842F9D1002199601B49196000215960AB
:100070001A491B48016001219960EB211966A021F2
:10008000196600F012F800219960164914480160C1
:100090000121996001BC002800D000471248134993
:1000A000086003C880F30888084703B5996A0420EC
:1000B0000142FBD001200142F8D103BD02B5186610
:1000C0001866FFF7F2FF186E186E02BD00000240BE
:1000D000000000180000070000035F00212200005C
:1000E000F4000018222000A00001001008ED00E03C
:1000F00000000000000000000000000074B24E7A12
:1001000000200420F7010010C3010010C5010010F9
:10011000C1010010C1010010C1010010C101001097
:10012000C1010010C1010010C1010010C701001081
:10013000C1010010C1010010C9010010CB01001065
:10014000CD010010CD010010CD010010CD01001037
:10015000CD010010CD010010CD010010CD01001027
:10016000CD010010CD010010CD010010CD01001017
:10017000CD010010CD010010CD010010CD01001007
:10018000CD010010CD010010CD010010CD010010F7
:10019000CD010010CD010010CD010010CD010010E7
:1001A000CD010010CD010010CD010010CD010010D7
:1001B000CD010010CD010010CD010010CD010010C7
:1001C00000BE00BE00BE00BE00BE00BE00F04BF888
:1001D000103800BEF2EB8871109C0310309C0310A5
:1001E0003402001090A31AE700202149086006C8D5
:1001F00081F3088810471F48006800282FD10DA4FC
:100200000ECC002902D000F012F8F9E71A491B4A77
:10021000002000E001C19142FCD1194988471949E9
:1002200088471949884700BEFDE701C901C29A42C3
:10023000FBD37047309C0310C000002078100020D2
:10024000E8AB03100000042000000420E8AB03101A
:1002500000100420001004200000000070470B482C
:1002600005F0B2FA0047EFF30580C0B27047000016
:1002700008ED00E0000000D0781000200C210020E4
:100280006540001071060010254000105756000010
:1002900006005250ABB360530C7F0310060052505F
:1002A000861C03021C7F0310060052505422A29D9C
:1002B000247F031005005250DE65F468E8AB03109C
:1002C000F8B5C04606480749091A8B10C90FC91866
:1002D00010B5491003D0044B002B00D0984710BD37
:1002E000781000207810002000000000054B10B5A9
:1002F000002B03D00449054800E000BFFFF7E2FFF0
:1003000010BDC04600000000501E002080F4001008
:10031000F0B50B4E840023189B0000259D51231837
:100320009B00B44663449D60DD608D681D614D682F
:100330005D600B6813432418A400A351F0BDC046B0
:100340000000054000230360436083601033436076
:10035000014B83607047C046FFFF000083001B18FD
:100360009B000B488446634400290CD01020824037
:1003700000290AD00749186842400A4080214901F3
:100380000B431A6070470800F1E70349F3E7C046E2
:100390000C0005400000FFFFFFFF0000F0B53D4BE3
:1003A00000221A6063E09900C91809183A4D012625
:1003B0006E543A4D695C00292ED1394E356899004A
:1003C00059180918374F795501353560364D296868
:1003D000364E3160013129601EE09A00D2181218A1
:1003E0002D498D5C2D498D542D4A1268102A2FD02D
:1003F0002F4A013313602E4B1B68052B2CDC2D4A32
:1004000099008A58D02109064968D14001220A4042
:1004100029490A60012AC6D0002ADED19A00D218E2
:1004200012181D4900258D541C498A5C012AD4D11B
:100430001B4D29689A009A1812181A4E72540131ED
:10044000296019490A68194D2A6001320A60C4E717
:10045000134A00211160CBE7D0231B069C610023C7
:1004600000E00133632BFCDD0A4B01301860094BBF
:10047000186804280BDC114B8200D35801249C40DF
:10048000D0231B065C610A4B00221A60B3E70120EF
:10049000F0BDC0469819002074190020781E002075
:1004A000F4200020A41E002070190020E80600207F
:1004B000B81E0020EC060020B41E00200407002017
:1004C00010B50F4AA4230121D1500E4C23689B1074
:1004D0000D4A5B001268D25A00210020FFF73EFF50
:1004E0000A4B1B889B00013B2268934203DD054BAE
:1004F00001321A6010BD034B00221A60FAE7C046B1
:1005000000000540C41900206C180020F8200020CD
:10051000F0B5C64600B584B004000E0017001D00FB
:1005200003F032F88046E117FA22920000232000FF
:1005300005F0E4FF02000B0002950197009640468B
:1005400003F02EF904B080BCB846F0BD30B583B0DE
:100550001B4C200001F0D8FA1A4A1B4D00952300CD
:100560000A21052001F010FE184A009523001E21E3
:10057000052001F009FE164A0095230032210520CE
:1005800001F002FE134A009523004621052001F0E8
:10059000FBFD114A009523005A21052001F0F4FDCE
:1005A0000E4A009523006E21052001F0EDFD0C4A56
:1005B000009523008221052001F0E6FD03B030BD47
:1005C0001FF8000080F40010FFFF000094F40010FA
:1005D000A8F40010B4F40010C4F40010D4F4001017
:1005E000E8F4001010B504000100042002F05CF9EA
:1005F0002100002002F058F92100012002F054F9F6
:100600002100022002F050F92100032002F04CF9F1
:1006100010BD000070B500250CE0134CAE00305941
:1006200002F018F8325901239340D0221206536287
:1006300093610135042DF0DD00250FE00B4CAE0079
:10064000305902F007F8305901238340D0221206B6
:1006500093620122002101F0D3FF0135052DEDDD6C
:100660000120FFF7BFFF70BD04070020EC0600204B
:10067000F0B5D6464F464646C0B5EF4CA544AA2233
:100680000021EE48684406F011F8A0220021EC4851
:10069000684406F00BF896220021EA48684406F008
:1006A00005F88E220021E848684405F0FFFF862205
:1006B0000021E648684405F0F9FF80220021E44863
:1006C000684405F0F3FF78220021E248684405F011
:1006D000EDFF72220021E048684405F0E7FF6A223E
:1006E0000021DE48684405F0E1FF66220021DC4875
:1006F000684405F0DBFF60220021DA48684405F019
:10070000D5FF5A220021D848684405F0CFFF562271
:100710000021D5200001684405F0C8FFAA2200216D
:10072000D248684405F0C2FFD14A00219FA805F0D5
:10073000BDFF9AAACF4B31CB31C211001A680A60B3
:100740009A888A809B798B7195AACB4B31CB31C229
:1007500011001A680A601B790B7190AAC74B31CB44
:1007600031C211001A680A609A888A809B798B715D
:1007700006F05CF9C2498AAB00226420FFF7C8FE8C
:10078000C0481E22002105F091FFBF481E22002113
:1007900005F08CFFBD481022002105F087FF0421E1
:1007A000102001F015FF0124B94AA423D450B94BFD
:1007B0001C60B949042002F0A1F80021042002F0D5
:1007C00073F887A8FFF7BEFD58238893A633899353
:1007D000012287A90020FFF79BFD002200210020B5
:1007E000FFF7BCFDFFF716FF01F0CCF9A02676005D
:1007F000AA48F023009333000022002101F000FBFF
:10080000102001F015F9029402250195A44B0093E4
:10081000F0233200B421002001F0F6FB112001F09A
:1008200007F991220023029301950093C8335200E7
:10083000B4211E2001F0E8FB02940195F82636024F
:100840000096C6236022B621202001F0DDFBFA27A6
:100850007F00380003F037F89248072101F076FE58
:10086000029401950096C623A022B621202001F013
:10087000CBFB380003F027F801F00CFD0294019542
:100880000096C623E022B621202001F0BDFB3800EF
:1008900003F019F89022029401950096C6235200A5
:1008A000B621202001F0B0FB0DF0C2FA00284ED096
:1008B0007D4901227D4868440BF0ACFC011E4AD101
:1008C0007B497C4808F0D8FEFA246400200002F03E
:1008D000FAFF794E300001F017F9200002F0F3FF23
:1008E000FFF734FE0021002001F064FD734801F0A1
:1008F000CFFD002402940225019500965A23C822B8
:100900004721272001F080FB0294019500944623A3
:10091000C8223321272001F077FB0822002185A877
:1009200005F0C4FE7F236A466549521813707C3B6C
:100930006A4664495218137085A801F09FFC002193
:1009400005A801F042FC01239A46052708E05E480D
:1009500006F02EF8ACE75D4806F05CF8B0E737002B
:100960005B4B1A685B4B1B689A4200D191E2474B84
:10097000594A12689B5C594A1360424AD25C002A69
:1009800000D1F8E11D2B00D9D7E19B00544AD35880
:100990009F463700E4E7514B012252421A603E0065
:1009A000D9E1042F05D805264C4B012252421A608A
:1009B000D1E13E00F8E7052F05D0484B0122524215
:1009C0001A603E00C7E1002CF7D0E3B29A46631EDE
:1009D0009BB298460020FFF705FEE1B21426714352
:1009E0000B004633333100240294022291460192D7
:1009F000314A0092C822272001F006FB43465E439D
:100A0000B6B2330046339BB23336B1B202944A4693
:100A100001920094C632272001F0F6FA0120FFF778
:100A2000E1FD4446C9E7052F5CD02C4B0122524220
:100A30001A603E008FE1C04688C0FFFFF41200003C
:100A400054120000BC1100002C110000A410000082
:100A500024100000AC0F0000380F0000CC0E000086
:100A6000640E0000040E0000A80D0000A40C00009D
:100A7000280A000044F6001058F600106CF600102A
:100A80009D03001074190020781E0020A41E002071
:100A900000000540A8200540C104001050F70010D8
:100AA000FFFF0000401A002024F50010103D000058
:100AB0004059730700C003401FF8000054F50010B0
:100AC0001502000017020000FCF4001028F50010C9
:100AD00070190020E8060020981E00203C1A002013
:100AE00080F60010032CA0D8E3B29A46631C9BB298
:100AF0009846E948190005F08DFF0020FFF772FDC8
:100B0000E1B2142671430B004633333100240294C2
:100B1000022291460192E14A0092C822272001F068
:100B200073FA43465E43B6B2330046339BB2333664
:100B3000B1B202944A4601920094C632272001F0D5
:100B400063FA0120FFF74EFD44466EE7052F05D0FE
:100B50003E00D34B012252421A60FCE0E6B2F8E7B5
:100B60000021042001F0A0FECE4BCF4A6A441A6057
:100B7000CE4B55221A800121042001F095FE3E0043
:100B8000E9E00021042001F08FFEC84B50221A80BA
:100B9000C44BC74A6A441A600121042001F084FE54
:100BA0003E00D8E00021042001F07EFEBF4B4B2226
:100BB0001A80BC4BBF4A6A441A600121042001F02C
:100BC00073FE3E00C7E00021042001F06DFEB74B2C
:100BD00047221A80B34BB84A6A441A6001210420A4
:100BE00001F062FE3E00B6E00021042001F05CFE50
:100BF000AE4B43221A80AB4BB04A6A441A600121C3
:100C0000042001F051FE3E00A5E00021042001F087
:100C10004BFEA64B40221A80A24BA94A6A441A6096
:100C20000121042001F040FE3E0094E00021042058
:100C300001F03AFE9D4B3C221A809A4BA14A6A442D
:100C40001A600121042001F02FFE3E0083E0002104
:100C5000042001F029FE954B39221A80914B9A4AC3
:100C60006A441A600121042001F01EFE3E0072E079
:100C70000021042001F018FE8C4B35221A80894B8C
:100C8000924A6A441A600121042001F00DFE3E00E0
:100C900061E00021042001F007FE844B33221A801A
:100CA000804B8B4A6A441A607D4B1968894805F06D
:100CB000B1FE0121042001F0F7FD3E004BE00021D0
:100CC000042001F0F1FD794B30221A80754B824AE5
:100CD0006A441A60724B1968804805F09BFE012136
:100CE000042001F0E1FD3E0035E00021042001F088
:100CF000DBFD6E4B2D221A806A4B794A6A441A60DA
:100D0000674B1968774805F085FE0121042001F042
:100D1000CBFD3E001FE00021042001F0C5FD634B28
:100D20002B221A805F4BD52212016A441A600121DE
:100D3000042001F0B9FD3E000DE00021042001F087
:100D4000B3FD584B684A6A441A60584B55221A80C2
:100D50003E0000E03E00524B012252421A60504BCE
:100D60001B68624AD25C002A0FD10F2B0DD89B0062
:100D70005F4AD3589F463E00F1E70021042001F06E
:100D800093FD484B584A6A441A605A4B5A4A1268B3
:100D90001A605A4A136801331360102B75D0B7429A
:100DA00000D1DCE5052E00D9F3E5B300544AD35851
:100DB0009F460021042001F077FD3A4B4A4A6A44DD
:100DC0001A60E2E70021042001F06EFD354B464A2F
:100DD0006A441A60D9E70021042001F065FD314B17
:100DE000414A6A441A60D0E70021042001F05CFD0A
:100DF0002C4B3D4A6A441A60C7E70021042001F0E9
:100E000053FD284B384A6A441A60BEE7002104208B
:100E100001F04AFD234B344A6A441A60B5E70021C9
:100E2000042001F041FD1F4B2F4A6A441A60ACE7D1
:100E30000021042001F038FD1A4B2B4A6A441A6045
:100E4000A3E70021042001F02FFD164B264A6A4437
:100E50001A609AE70021042001F026FD114B224A76
:100E60006A441A6091E70021042001F01DFD0D4B3A
:100E70001D4A6A441A6088E70021042001F014FD2D
:100E8000084B194A6A441A607FE7130000221A606F
:100E900085E73E0083E7C04668F500101FF80000B4
:100EA0003C1A00206C180020F4120000F8200020EA
:100EB00054120000BC1100002C110000A41000000E
:100EC00024100000AC0F0000380F0000CC0E000012
:100ED000640E000074F50010040E000080F5001090
:100EE000A80D00008CF50010A40C0000741900205F
:100EF000F8F60010E806002070190020981E002067
:100F000038F70010FFF722FB0020FFF76BFB1427D8
:100F100052467A4392B2130046339BB2333291B2B7
:100F2000002290460292023291460192CE4A0092ED
:100F3000C822272001F068F86743BFB23B00463360
:100F40009BB23337B9B2424602924A4601924246B8
:100F50000092C832272001F057F80120FFF742FB2A
:100F60003700FDE4F8263602300000F0CDFDBF4A20
:100F7000BF4B009333001E21142001F005F9BD4939
:100F8000BD4808F079FB01229AA9BC4868440BF0DF
:100F900071F9011E18D1BA489AA905F03BFDB9486C
:100FA00005F006FD0027B54A6A44B7499D20400177
:100FB00068440BF0F9FC002825D0B4499D2040017D
:100FC00068440DF087FF17E0B14805F023FDFEE708
:100FD0000DF00EF96E1C64237B435B195B009FAA26
:100FE000D052AC4900200DF075FF35000028EFD13C
:100FF000A6490DF06FFF01370028D4D0A5490DF0A8
:1010000069FF0025F2E79D4868440BF0B6FC002319
:1010100006E05A009FA9505A9F4969445052013333
:10102000542BF6DD002309E01A00643252009FA918
:10103000505A5900994A6A44885201334F2BF3DDC4
:10104000002309E01A00C83252009FA9505A5900E3
:10105000934A6A44885201334A2BF3DD00230AE0A5
:101060001A002D32FF3252009FA9505A59008D4A62
:101070006A4488520133462BF2DD00230AE01A004D
:101080009132FF3252009FA9505A5900864A6A4451
:1010900088520133422BF2DD00230AE01A00F532B8
:1010A000FF3252009FA9505A5900804A6A44885220
:1010B00001333F2BF2DD00230AE0962292009A18BA
:1010C00052009FA9505A5900794A6A448852013304
:1010D0003B2BF2DD00230AE0AF2292009A18520067
:1010E0009FA9505A5900734A6A4488520133382BD9
:1010F000F2DD00230AE0C82292009A1852009FA94C
:10110000505A59006C4A6A4488520133342BF2DD3C
:1011100000230AE0E12292009A1852009FA9505A37
:101120005900664A6A4488520133322BF2DD0023AB
:101130000AE0FA2292009A1852009FA9505A5900C8
:101140005F4A6A44885201332F2BF2DD002309E005
:101150005C4A9A1852009FA9505A59005A4A6A4448
:10116000885201332C2BF3DD00230BE09622D200B2
:101170009A1852009FA9505A5900D52212016A4468
:10118000885201332A2BF1DD504805F011FC3B4811
:1011900068440BF0F2FB4E49374808F06DFA6420C2
:1011A00002F091FBFFF7D2F90020FFF71BFA14269B
:1011B0005246724392B2130046339BB2333291B21D
:1011C00000270297022290460192274A0092C822E5
:1011D000272000F019FF6643B6B2330046339BB2B6
:1011E0003336B1B20297424601920097C6322720A9
:1011F00000F00AFF0120FFF7F5F90537FFF7B0FB14
:101200001F2000F081FC334A194B00931F231E213D
:10121000142000F0B9FF1749174808F02DFA0122F1
:1012200095A9164868440BF025F8011E18D11448FA
:1012300095A905F0EFFB134805F0BAFB00270F4A0C
:101240006A4411499D20400168440BF0ADFB002821
:101250005DD00E499D20400168440DF03BFE4FE0FB
:101260000B4805F0D7FBFEE71FF8000098F50010CB
:10127000FFFF000040787D0100C00340B03A00004D
:10128000D4F50010F0F5001010270000F8F500105C
:10129000B0F50010FCF50010F4120000541200002C
:1012A000BC1100002C110000A4100000241000004C
:1012B000AC0F0000380F0000CC0E0000640E0000E0
:1012C000040E00004C040000A80D000000F6001001
:1012D0004059730708F600100CF08AFF6E1C642357
:1012E0007B435B195B009FAAD052CD4900200DF0D3
:1012F000F1FD35000028EFD1CA490DF0EBFD0137B3
:1013000000289CD0C6490DF0E5FD0025F2E7C6484F
:1013100068440BF032FB002306E05A009FA9505AA4
:10132000C249694450520133542BF6DD002309E0D1
:101330001A00643252009FA9505A5900BC4A6A44AC
:10134000885201334F2BF3DD002309E01A00C83225
:1013500052009FA9505A5900B64A6A448852013334
:101360004A2BF3DD00230AE01A002D32FF3252002F
:101370009FA9505A5900B04A6A4488520133462BFB
:10138000F2DD00230AE01A009132FF3252009FA9D9
:10139000505A5900A94A6A4488520133422BF2DD5F
:1013A00000230AE01A00F532FF3252009FA9505A7A
:1013B0005900A34A6A44885201333F2BF2DD0023CF
:1013C0000AE0962292009A1852009FA9505A59009A
:1013D0009C4A6A44885201333B2BF2DD00230AE029
:1013E000AF2292009A1852009FA9505A5900964A6B
:1013F0006A4488520133382BF2DD00230AE0C82208
:1014000092009A1852009FA9505A59008F4A6A4474
:1014100088520133342BF2DD00230AE0E1229200EE
:101420009A1852009FA9505A5900894A6A44885212
:101430000133322BF2DD00230AE0FA2292009A18DF
:1014400052009FA9505A5900824A6A448852013377
:101450002F2BF2DD002309E07F4A9A1852009FA942
:10146000505A59007D4A6A44885201332C2BF3DDCF
:1014700000230BE09622D2009A1852009FA9505ADE
:101480005900D52212016A44885201332A2BF1DD1A
:10149000734805F08DFA644868440BF06EFA7149A0
:1014A000714808F0E9F8642002F00DFAFFF74EF8F1
:1014B0000020FFF797F814265246724392B21300A9
:1014C00046339BB2333291B20027029702229046F4
:1014D0000192664A0092C822272000F095FD6643DB
:1014E000B6B2330046339BB23336B1B202974246AE
:1014F00001920097C632272000F086FD0120FFF7F9
:1015000071F80537FFF72CFA1F2000F0FDFA584A52
:10151000584B00931F231E21142000F035FE56491E
:10152000514808F0A9F8012290A93F4868440AF000
:10153000A1FE011E18D1514890A905F06BFA504840
:1015400005F036FA0027384A6A444E499D2040018A
:1015500068440BF029FA002825D032499D2040012B
:1015600068440DF0B7FC17E0474805F053FAFEE772
:101570000CF03EFE6E1C64237B435B195B009FAA4C
:10158000D052274900200DF0A5FC35000028EFD1EE
:1015900024490DF09FFC01370028D4D020490DF0DC
:1015A00099FC0025F2E7204868440BF0E6F9002397
:1015B00006E05A009FA9505A1C4969445052013311
:1015C000542BF6DD002309E01A00643252009FA973
:1015D000505A5900164A6A44885201334F2BF3DDA2
:1015E000002309E01A00C83252009FA9505A59003E
:1015F000104A6A44885201334A2BF3DD00230AE083
:101600001A002D32FF3252009FA9505A59000A4A3F
:101610006A4488520133462BF2DD002341E0C04684
:10162000FCF50010F8F50010B03A0000F4120000CC
:1016300054120000BC1100002C110000A410000086
:1016400024100000AC0F0000380F0000CC0E00008A
:10165000640E0000040E00004C040000A80D000001
:1016600000F600104059730700C003401FF8000047
:1016700008F60010FFFF000040787D01D4F500104F
:10168000F0F5001010270000B0F500101A0091329C
:10169000FF3252009FA9505A59009A4A6A44885210
:1016A0000133422BF2DD00230AE01A00F532FF324B
:1016B00052009FA9505A5900934A6A4488520133F4
:1016C0003F2BF2DD00230AE0962292009A18520086
:1016D0009FA9505A59008D4A6A44885201333B2BC6
:1016E000F2DD00230AE0AF2292009A1852009FA96F
:1016F000505A5900864A6A4488520133382BF2DD29
:1017000000230AE0C82292009A1852009FA9505A5A
:101710005900804A6A4488520133342BF2DD002399
:101720000AE0E12292009A1852009FA9505A5900EB
:10173000794A6A4488520133322BF2DD00230AE0F1
:10174000FA2292009A1852009FA9505A5900734ADF
:101750006A44885201332F2BF2DD002309E0704ADE
:101760009A1852009FA9505A59006E4A6A448852EA
:1017700001332C2BF3DD00230BE09622D2009A18C4
:1017800052009FA9505A5900D52212016A4488522A
:1017900001332A2BF1DD644805F00AF963486844F7
:1017A0000BF0EBF86249634807F066FFFEF7CEFEE8
:1017B0000020FEF717FF14265246724392B2130020
:1017C00046339BB2333291B20027029702229046F1
:1017D0000192594A0092C822272000F015FC664366
:1017E000B6B2330046339BB23336B1B202974246AB
:1017F00001920097C632272000F006FC0120FEF778
:10180000F1FE0537FFF7ACF8FC26F600300000F0DB
:101810007BF94A4A4A4B009333003C21142000F0E4
:10182000B3FCFA20800002F04EF8FEF78FFE002095
:10183000FEF7D8FE14265246724392B21300463386
:101840009BB2333291B20027029702229046019256
:10185000394A0092C822272000F0D6FB6643B6B270
:10186000330046339BB23336B1B2029742460192FF
:101870000097C632272000F0C7FB0120FEF7B2FE1A
:101880000537FFF76DF82F4E300000F03DF92E4A76
:101890002B4B009333003C21142000F075FCFA2000
:1018A000800002F010F8FEF751FE0020FEF79AFECD
:1018B00014265246724392B2130046339BB233321F
:1018C00091B2002702970222904601921A4A009292
:1018D000C822272000F098FB6643B6B23300463397
:1018E0009BB23336B1B20297424601920097C6329C
:1018F000272000F089FB0120FEF774FE0537FFF773
:101900002FF8C046A410000024100000AC0F000007
:10191000380F0000CC0E0000640E0000040E000022
:101920004C040000A80D000000F60010B03A0000C2
:101930004059730700C003401FF800001CF6001058
:10194000FFFF00003084000030F6001000B583B0C7
:1019500001A90870012202480DF07AFD03B000BD14
:1019600000C00340F0B5C64600B582B004000800D0
:10197000984608AB1F78002F20D0012F1CD00123E0
:101980009B011A4380235B4213436A46D11D0B70AF
:1019900001258540D0263606B561012220000DF0D4
:1019A00057FD3B004246002120000DF021FD7561EE
:1019B00002B080BCB846F0BD0023E1E70120404200
:1019C000F6E70000F8B504000B4F3B7801252A002C
:1019D0009A40D0263606B261084B1B782A009A40FE
:1019E0007261000AFFF7B2FFE0B2FFF7AFFF3B788A
:1019F0009D407561F8BDC0461D07002019070020F5
:101A000070B5094E3378012422009A40D0252D0666
:101A1000AA61064B1B7822009A406A61FFF796FF85
:101A200033789C406C6170BD1D07002019070020B1
:101A300010B5074B1A78012319009140D0221206E5
:101A40009161044909788B409361FFF77FFF10BDD6
:101A50001D0700201907002070B505000C002A2082
:101A6000FFF7E6FF2E0A3000FFF7CAFFEDB22800AD
:101A7000FFF7C6FF3000FFF7C3FF2800FFF7C0FFE6
:101A80002B20FFF7D5FF250A2800FFF7B9FFE4B2A6
:101A90002000FFF7B5FF2800FFF7B2FF2000FFF797
:101AA000AFFF2C20FFF7C4FF70BDF8B507000E0094
:101AB00015001C002A20FFF7BBFF0020FFF7A0FF46
:101AC000F8B2FFF79DFF681E0012C0B2FFF798FF43
:101AD000E8B20138C0B2FFF793FF2B20FFF7A8FF51
:101AE0000020FFF78DFFF0B2FFF78AFF601E0012A3
:101AF000C0B2FFF785FFE0B20138C0B2FFF780FF48
:101B00002C20FFF795FFF8BD70B50500A022F0234B
:101B1000520000210020FFF7C8FF0D4B1A78012367
:101B20009340D02212065361002609E0280AFFF7ED
:101B30000DFFE8B2FFF70AFF0134EF2CF6D90136AA
:101B4000A0235B009E4201D20024F6E770BDC04690
:101B50001907002070B5C82001F0B5FE084E337893
:101B6000012422009A40D0252D06AA61C82001F048
:101B7000AAFE33789C406C61C82001F0A4FE70BDC1
:101B800018070020F0B585B004F050FF8F4E307874
:101B900000F060FD337801252A009A40D024240605
:101BA000626262618A4F387800F054FD3B782A0007
:101BB0009A4062626261874F387800F04BFD3B7853
:101BC0002A009A406262A261834C8449200007F097
:101BD00053FD226807235A40C8331340804A1360DC
:101BE000804B1878012100F0F3FC7F4B187801211D
:101BF00000F0EEFC7D4B1878012100F0E9FC317813
:101C0000009502AB00222000FFF7ACFEFFF7A2FF19
:101C10003620FFF70DFFA020FFF7F2FE3A20FFF776
:101C200007FF5520FFF7ECFE0A2001F04CFE2120B3
:101C3000FFF7FEFE2A20FFF7FBFE0020FFF7E0FE85
:101C40000120FFF7DDFE0020FFF7DAFE3F20FFF75F
:101C5000D7FE2B20FFF7ECFE0020FFF7D1FE00207F
:101C6000FFF7CEFE0020FFF7CBFEEF20FFF7C8FE08
:101C7000B220FFF7DDFE0120FFF7C2FE0120FFF7D3
:101C8000BFFE0020FFF7BCFE3320FFF7B9FE332074
:101C9000FFF7B6FEB720FFF7CBFE3520FFF7B0FE0B
:101CA000BB20FFF7C5FE1F20FFF7AAFEC020FFF7ED
:101CB000BFFE2C20FFF7A4FEC220FFF7B9FE0120D3
:101CC000FFF79EFEC320FFF7B3FE1220FFF798FE3A
:101CD000C420FFF7ADFE2020FFF792FEC620FFF7DD
:101CE000A7FE0120FFF78CFED020FFF7A1FEA42065
:101CF000FFF786FEA320FFF783FEE020FFF798FEA4
:101D0000D020FFF77DFE0820FFF77AFE1120FFF7B5
:101D100077FE0820FFF774FE0C20FFF771FE1520F8
:101D2000FFF76EFE3920FFF76BFE3320FFF768FEEA
:101D30005020FFF765FE3620FFF762FE1320FFF705
:101D40005FFE1420FFF75CFE2920FFF759FE2D20CF
:101D5000FFF756FEE120FFF76BFED020FFF750FEA5
:101D60000820FFF74DFE1020FFF74AFE0820FFF77E
:101D700047FE0620FFF744FE0620FFF741FE39200C
:101D8000FFF73EFE4420FFF73BFE5120FFF738FEF1
:101D90000B20FFF735FE1620FFF732FE1420FFF769
:101DA0002FFE2F20FFF72CFE3120FFF729FE2120E8
:101DB000FFF73EFE1120FFF73BFE2120FFF738FE24
:101DC0002920FFF735FE05B0F0BDC0461D070020F5
:101DD000180700201907002000C00340405973076E
:101DE00000D003401C0700201B0700201A0700201A
:101DF00010B51400FFF730FE2000FFF7E3FD10BD23
:101E0000F8B5CE46474680B580461E0008AB1B8815
:101E100099461020FFF70CFE0027002516E002353A
:101E20000134A64211DDA02252009442F7DAEF2FCE
:101E3000F5DC43465B5D1B024246521952781A4359
:101E4000B9B2A0B2FFF7D4FFE9E70137B94501DD28
:101E50000024E6E71120FFF7EBFDC0BCB946B04611
:101E6000F8BDF8B5DE4657464E464546E0B5060095
:101E70000F0091461D000AAB1B78012B27D00023D1
:101E800098463CE05C46013423B29B46DA466B0040
:101E9000013B98469B4537DA00231A004345F1DAA7
:101EA00051467118491BEDD4BA18521BEAD45A4650
:101EB000B01880B29CB2E11989B2491B89B2401BAB
:101EC00080B24A46FFF794FF631C1BB2E5E700238C
:101ED0009B46DBE74346F01880B2A4B2E11989B211
:101EE000013989B2013880B24A46FFF781FF0134D7
:101EF00024B25445EEDB434601331BB29846AA4652
:101F0000A84501DA0024F4E7F0BCBB46B246A94676
:101F1000A046F8BDF0B5DE4657464E464546E0B50C
:101F20008BB006000F00110007921C00059314AB44
:101F30001888039015AB1878824616AB187880463F
:101F4000931BDA17981850408146E31BDA1798184C
:101F500050400690DA17D31A53409B468E420BD25C
:101F600001230893059B9F420AD2012309934B4604
:101F7000069A9D1A002426E001235B420893F1E7AC
:101F800001235B420993F2E7012300935346039A2E
:101F900039003000FFF765FF6B005B4508DB079BEE
:101FA0009E4227D0069BED1A089B9C466644B6B21B
:101FB0006B004B4507DC059B9F421BD04D44099BA2
:101FC0009C466744BFB20134E4B24346012BDBD1E7
:101FD0000321200003F04CFCCBB20493002BD3D19F
:101FE000013300935346074A39003000FFF739FFA9
:101FF000049CD1E70BB0F0BCBB46B246A946A04654
:10200000F0BDC046FFFF0000F0B5D6464F4646463D
:10201000C0B584B004000F0015001E000CAB1B8877
:1020200098460DAB1B7899460EAB1B78002B3CD124
:1020300000239A4602934B460193434600930B00BC
:10204000FFF768FF534602934B46019343460093C4
:102050003300220039002000FFF75CFF5346029353
:102060004B460193434600933B002A003100280071
:10207000FFF750FF534602934B46019343460093AC
:102080003300220031002800FFF744FF0FE000205A
:1020900002904B46019343460093330022003900DF
:1020A0002000FFF737FF0134A4B2AC42EFD304B0F5
:1020B000E0BCBA46B146A846F0BD0000F8B5DE4621
:1020C00057464E464546E0B5824689461E000AAB55
:1020D0001B889B46203AD3009B18DB0098460025BE
:1020E000002742E04346EB18254AD15C07222240F4
:1020F000802313410B4212D04B46F91889B2534644
:10210000E01880B25A46FFF773FE08E04B46F91814
:1021100089B25346E01880B23200FFF769FE072308
:102120002340072B1AD00134A4B2102C19D8154B18
:102130009E42D7D04346EB18114AD15C0722224079
:10214000802313410B42E1D04B46F91889B2534624
:10215000E01880B25A46FFF74BFEE0E70135EDB2DA
:10216000E1E70135EDB20137BFB2172F01D80024E6
:10217000DBE7F0BCBB46B246A946A046F8BDC04668
:10218000584F0310FFFF0000F0B5CE46474680B51C
:1021900083B00400884616001F000AAB1B889946CE
:1021A00000250AE04B4600933B0041462000FFF724
:1021B00085FF0135ADB21134A4B2725D002AF1D1B0
:1021C00003B0C0BCB946B046F0BD002301E0C15425
:1021D0000133802292009342F9D3704700B585B055
:1021E00080236A461373507304480023009302331C
:1021F00003AA3C2107F0BCFB05B000BDF00A00209B
:10220000F0B583B006000D004F1C380004F038FA1A
:102210000400012304E0F218013A1278E254013379
:10222000AB42F8DD402323700648002300933B00B7
:1022300022003C2107F09CFB200004F02BFA03B0A5
:10224000F0BDC046F00A002070B505000C0021204A
:10225000FFF7C4FF2078FFF7C1FF6078FFF7BEFFEC
:102260002220FFF7BBFFA078FFF7B8FFE078FFF769
:10227000B5FF61682800FFF7C3FF70BD427803789F
:10228000D21A0132C37881785B1A01335343436019
:102290007047000080B5424FBD440822002180A84D
:1022A00004F004FA7F236A463E49521813707C3BBF
:1022B0006A463D49521813703C483D4907F02CFBD3
:1022C0000321022000F084F90321032000F080F9AB
:1022D00000220121022000F093F9002201210320B5
:1022E00000F08EF9AE20FFF779FF2020FFF776FF90
:1022F0000120FFF773FF4020FFF770FFA120FFF7D9
:102300006DFFA820FFF76AFF1F20FFF767FFC020BF
:10231000FFF764FFD320FFF761FF0020FFF75EFFA8
:10232000DA20FFF75BFF0220FFF758FFD520FFF709
:1023300055FF8020FFF752FFD920FFF74FFFF12014
:10234000FFF74CFFDB20FFF749FF3020FFF746FF88
:102350008120FFF743FFFF20FFF740FFA420FFF796
:102360003DFFA620FFF73AFF8D20FFF737FF14202F
:10237000FFF734FF2E20FFF731FFAF20FFF72EFFCE
:1023800080A8FFF77BFF00216846FFF71EFF80A9AA
:102390006846FFF759FF82239B009D4480BDC046DD
:1023A000F8FDFFFF0102000003020000F00A002018
:1023B000801A060030B585B005000C002120FFF71B
:1023C0000DFF2800FFF70AFF7F20FFF707FF2220FD
:1023D000FFF704FF2000FFF701FF0720FFF7FEFED5
:1023E00003AA084B1B78137007480023009301339E
:1023F0003C2107F0BDFA054B1D70054B1C7005B064
:1024000030BDC046106A0310F00A002004210020ED
:102410000321002010B586B00A2830D02038C4B27D
:1024200001AB40221A70002101230DE0154A200162
:102430001218505C01AAD05413480278013202707D
:102440000133DBB20131C9B2102BEFD92120FFF7E4
:10245000C5FE0E4C2078FFF7C1FE20780730C0B2D1
:10246000FFF7BCFE2220FFF7B9FE0120FFF7B6FE02
:102470000220FFF7B3FE112101A8FFF7C1FE06B04D
:1024800010BDC046146A031003210020042100205F
:1024900070B50500002407E0FFF7BCFF0134E4B28B
:1024A000034A137808331370285D0A28F4D170BDED
:1024B000042100200120704710B50400FFF7FAFF47
:1024C000A04205D3AC2080006043024BC01810BD71
:1024D0000020FCE7200700200120704710B5040011
:1024E000FFF7E8FFA04203D3A001024BC01810BDC4
:1024F0000020FCE7D009002000B585B06B461973B9
:102500005A7301780123994304480023009302334E
:1025100003AA07F02DFA05B000BDC046F00A00205E
:1025200000B585B0438803AA1170817851701B0AE9
:1025300093700178012399430348002300930333E8
:1025400007F016FA05B000BDF00A002070B50400CF
:102550000D001D481D4907F0DFF90321022000F09E
:1025600037F80321032000F033F800220121022074
:1025700000F046F800220121032000F041F8203548
:10258000257000220A212000FFF7B6FF01256D42C9
:10259000658001212000FFF7C3FF0C212000FFF719
:1025A000BFFF658004212000FFF7BAFF052120004E
:1025B000FFF7B6FF10212000FFF7B2FF1121200026
:1025C000FFF7AEFF70BDC046F00A0020801A06007B
:1025D00010B58300084A944663441A684024624058
:1025E000803414408022520113431C60C000034B0E
:1025F0009C466044416010BD04C001400040014061
:1026000080000B4B9C46604400290DD00823002A13
:102610000CD004221343026853400C221A4080233A
:102620005B0103431A6070470023F0E70022F1E7E3
:1026300004C001408000064B9C46604409010368C9
:10264000594030220A4080235B0103431A607047DF
:1026500004C0014010B501238340D02212069362CA
:1026600093610521FFF7B4FF10BD0000EFF3108068
:1026700072B6034B1B68002BFBD0BFF35F8F704714
:102680002C0100D0BFF35F8F024B00221A6080F351
:10269000108870472C0100D0F8B506000C0015001A
:1026A000FFF7E4FFE308F718F15C0722224001235B
:1026B00093400B4205D1DBB20B433B70FFF7E2FFC7
:1026C000F8BD2100280001F049FDF0B583B00600F7
:1026D000019114001F00FFF7C9FF00E00134BC4264
:1026E0000CD8E308F518F35C0721214001228A4049
:1026F0001A42F3D1D2B21A432A7001E00124644293
:10270000FFF7C0FF002C02DB200003B0F0BD019BEF
:10271000002BF9D0089801F021FD0000034B1B6845
:1027200002201840431E9841C0B2704700C00640C6
:10273000002307E0054A9A189200BFF35F8F00213B
:10274000116001331F2BF5D97047C046400000349B
:10275000054A1078431CDBB21370172B02D9130003
:1027600010221A707047C046100A002010B582B0BF
:102770000100054C054B00931F2318222000FFF792
:10278000A4FF02B010BDC0469419002004700310CD
:10279000074B9B68103080001950BFF35F8FBFF369
:1027A0005F8F044B0021196082F310887047C04688
:1027B00000ED00E0240100D010B50388DA0A1C2ADD
:1027C00005D15B055B1502335B00C01810BD034BE0
:1027D000034A0448A72101F029FCC04620700310D9
:1027E0008C7203103870031010B5091A0B1F0A4AB7
:1027F00088180A4A904208D8C90706D45B105B05BE
:102800005B0D0748184380B210BD064B064A0748C7
:10281000992101F00BFCC046FC070000FE0F0000F0
:1028200000E0FFFF7870031080720310387003100F
:1028300010B5091A04394A08090B08D14905490D90
:10284000064B0B430380064B1343438010BD054BDF
:10285000054A0648A12101F0E9FBC04600F0FFFF50
:1028600000F8FFFFA87003105472031038700310B3
:1028700001238340034A10681840431E9841C0B2A8
:102880007047C04600E100E0002904D0034B186007
:10289000034B18607047034B1860FBE780E200E0D1
:1028A00000E100E080E100E010B501238340180062
:1028B000FFF7EAFF10BD000001238340014A1360C7
:1028C0007047C04600E200E0024B9B681030800079
:1028D000C058704700ED00E010B5FFF7F5FF002885
:1028E00005D0054BC01A2F2803D8012010BD0020A9
:1028F000FCE70020FAE7C046140A002070B5040087
:102900000D00EFF3108672B60C4B1B68002BFBD04A
:10291000BFF35F8F2000FFF7D7FF094B984201D02C
:10292000A84205D1320029002000FFF731FF70BD19
:10293000044B054A05487C2101F078FB240100D0B6
:10294000CD010010B8700310B4720310387003107A
:10295000F0B5DE4657464E464546E0B589B081465D
:1029600001911500EFF3108A72B66E4B1B68002BB5
:10297000FBD0BFF35F8F6C4B00269E57002E41DBD0
:102980007400A419A400694824180622A256664BB4
:102990001A70674B9A684B4610339B00D358984681
:1029A0001F00181A2F2839D9624B984530D105AF2E
:1029B000614B3B80614973009B46981980005B4BDB
:1029C000984640440230FFF70FFF78805C4BBB8095
:1029D000FF23BB71FD71019B079333005B449B0098
:1029E000434407CF07C301231C43A0465246414638
:1029F0004846FFF7CDFE09B0F0BCBB46B246A9463B
:102A0000A046F0BD4F4B504A5048CD2101F00EFB7F
:102A10004F4B4D4A4D48D42101F008FB01380C21A1
:102A200002F026FF002912D101239F43BB463B0041
:102A30000027DA79AA4211D90621595600290CDB60
:102A40004A005218920039491F008B18F1E7414B98
:102A50003D4A3E48E02101F0E9FA1F00002F2FD047
:102A600005AB3D4A1A80813A5A800623FB560293F1
:102A7000002B18DABD20000205AB9B469880029A15
:102A80009A71DD71019A0792381D2100FFF7ACFEA3
:102A9000B880BE71254B7200921992009B185A465D
:102AA00013CA13C3A2E7381DFFF786FE01007000AA
:102AB000801980001D4BC0180430FFF795FEDBE73E
:102AC00005AF1D4B3B801D49730002939B199B0072
:102AD000164A90461A0042440392901CFFF784FE67
:102AE0007880039A101D5946FFF77EFEB8801B4B75
:102AF0005A464146521A524153431B0DBB71FD7158
:102B0000019A0792029B9B199B00434407CF07C37E
:102B1000114B5A461380813B538001231C43A0462E
:102B200064E7C046240100D007210020140A0020D9
:102B300000ED00E0CD01001000A1FFFF440A0020DD
:102B400000BDFFFFF07003109C720310387003107B
:102B5000187103104071031001480000AAAA000078
:102B6000F0B5CE46474680B583B006000D00EFF3C2
:102B7000108872B6504B1B68002BFBD0BFF35F8FE1
:102B80004E4B9A6834001034A300D7584C4B9F42E8
:102B900007D0AF4200D18CE001974A4BFB1A2F2B94
:102BA00009D9424639003000FFF7F2FD03B0C0BC3E
:102BB000B946B046F0BD3000FFF75AFE814600210D
:102BC0003000FFF771FEBFF35F8FFDF74CFB00286D
:102BD00001D0844211D10123019C9C430021A368B0
:102BE000AB4212D00622A256002A0DDB53009B18DE
:102BF0009B00344A2100D418F1E7334B334A2C218F
:102C00003348FF3101F012FA2100AB424AD10625C8
:102C10006557002D2CDB2B4B6A00521992009B1834
:102C20009A68A260DA79E2719B795BB2A371002B9A
:102C300010DABD200002A080224B6A0052199200D7
:102C40009B18244A11789971157049463000FFF796
:102C50002BFEA6E76800401980001A4BC01804300C
:102C6000FFF7AAFD0100231D1800FFF7BDFDE2E7F5
:102C7000002812D100290ED0FF238B71164B8B80B8
:102C800014490B78A3710F4A144BA41A644163438F
:102C90001B0D0B70D9E70A4FF2E71149201DFFF712
:102CA000C7FDD2E70F4B094A60210948FF3101F007
:102CB000BDF9034F75E7C046240100D000ED00E0E8
:102CC000CD010010140A0020B47103106C720310BF
:102CD000387003100721002000BDFFFFAAAA0000E2
:102CE0004E0A0020D871031070B504000126064377
:102CF0002D4BF31A2F2B28D8FDF7B5FA00282BD02F
:102D0000EFF3108C72B6294B1B68002BFBD0BFF37E
:102D10005F8F254A264D2100891A49414D432D0DCB
:102D20006DB2244B9B6880001B58B3421BD000211E
:102D3000032932D81C4B4A00521892009B189B79E9
:102D40005BB2AB421FD00131F2E71B4B1B4AC221E1
:102D50001B48490001F06AF91A4B184A88211848A3
:102D6000FF3101F063F9134B9B68174A1A50174B58
:102D70001A78A2711D70BFF35F8F0C4B00221A608E
:102D80008CF3108870BD084B4A005018800018184A
:102D9000FF2686710E4A8280E9E70E4B074ACC2156
:102DA0000748490001F042F9140A0020240100D02C
:102DB000AAAA000000ED00E0E071031038720310D1
:102DC0003870031008720310CD0100100721002095
:102DD00000BDFFFF147203100022044B02E00449FF
:102DE00002C30132072AFAD97047C04600E400E066
:102DF0008080808000B583B00100D0231B061B6853
:102E000006481818064B009305230022FFF75DFCC7
:102E1000002801DB1F23181A03B000BDF02000209A
:102E20001C72031010B5002B02DB0260436010BD62
:102E3000024B034A03483F2101F0F8F8D072031017
:102E400034730310EC72031010B582B0040000F06C
:102E5000C3FD02000B006846FFF7E4FF009A019BE8
:102E600022606360200002B010BDF0B585B005009F
:102E700016001F000192FA22920000230A980021F6
:102E800003F03CFB02000B0092197B419F4202D8E9
:102E900004D1964202D901225242D31702A8FFF769
:102EA000C1FF029A039B2A606B60280005B0F0BD49
:102EB00030B585B004000D0002A8FFF7C5FF029AE7
:102EC000039B00952000FFF7D0FF200005B030BD28
:102ED00070B504000E001500FFF73AFC0100200059
:102EE00000F006F8A680E580BFF35F8F70BD00009C
:102EF000024B9C46614489000160704740000034E9
:102F0000084B5B6A994209D8064A926A824207D204
:102F1000994201D0012002E0002000E0002070472B
:102F20000120FCE70040054010B500290AD00368E5
:102F30001B7B8B4206D38068054B9C46614409018C
:102F4000401810BD034B044A04483B2101F06EF8C1
:102F5000FFFFFF0F4C73031088760310707303108C
:102F6000F8B504001700FFF7DFFF06684568390071
:102F70002000FFF7D9FF026843680120AB4201D867
:102F800002D00020C0B2F8BDB242FBD8F9E7000081
:102F900010B5002B02DB0260436010BD024B034AF8
:102FA00003483F2101F042F8D07203105476031019
:102FB000EC72031070B582B0060014001D00069A72
:102FC000079B12196B419D4202D804D1944202D949
:102FD00001225242D3176846FFF7DAFF009A019B9D
:102FE00032607360300002B070BD000010B500297F
:102FF00008D0037B8B4205D300684B005B18033B72
:10300000C01810BD024B034A0348682101F00EF8B6
:10301000A873031030760310C473031010B5437BFC
:103020008B4201D1012010BDFFF7E0FF8378002B18
:1030300001D10020F7E70120F5E770B50400857B9A
:10304000002D01D1280070BD2900FFF7CFFF437884
:10305000A373002B00D1E3730023837043700370CC
:10306000F0E70000F8B506000C001500FFF7BEFF02
:103070000700002C0DD0002D11D0AC4215D0290036
:103080003000FFF7B3FF84703B78002B13D13D7005
:10309000F8BD0A4B0A4A0B486F2100F0C7FF0A4BE4
:1030A000074A0848702100F0C1FF084B044A054850
:1030B000712100F0BBFF43703D70E9E7107403100D
:1030C0000C760310C47303101C74031028740310CF
:1030D00070B506000D001400002914D0002A14D089
:1030E000436880689847002806D0220029003000F5
:1030F000FFF7B8FF280007E02A0021003000FFF7A3
:10310000B1FF200000E0100070BD0800FCE70000E7
:1031100070B504000D1E0CD0FFF768FF002383700C
:1031200043700370617B2A002000FFF7D1FF6073BA
:1031300070BD034B034A0448A52100F077FFC04649
:103140007474031020760310C473031070B5050067
:103150000C1E08D0FFF762FF002804D1E97B00298C
:1031600007D1EC7370BD054B054A0648F62100F007
:103170005DFF2800FFF73AFF4470F2E74074031048
:10318000FC750310C473031010B5002907D0036841
:103190001B7B8B4203D3C0680139401810BD034B21
:1031A000034A0448402100F041FFC0464C7303101D
:1031B000E87503107073031010B50C00CB688342E0
:1031C00007D10B6908009847002809D0206861687A
:1031D00010BD064B064A96210648490000F026FF1E
:1031E0000023E36000200021F2E7C046647403106E
:1031F0009C7503107073031070B505000C00080077
:1032000000F0DEFB200000F0E1FC0849200000F0A7
:1032100021FCFFF79DFA064B9C46604480006860E5
:103220002C75044BA400E55070BDC046453300101A
:1032300040000034681E00200A4B1A68EFF310812A
:1032400072B61368002BFCD0BFF35F8F054B1B6871
:10325000BFF35F8F00221A6081F3108840BF002007
:1032600000217047C020002010B582B0040000F09B
:10327000B3FB02000B006846FFF78AFE009A019B31
:1032800022606360200002B010BD70B584B00400FD
:1032900016001D0002A8FFF7E7FF029A039B0096A5
:1032A00001952000FFF786FE200004B070BD0000ED
:1032B000F0B583B0070001921D000AAB1C780BAB80
:1032C0001E78002C0BD000682100FFF7A7FE002815
:1032D00009D0194B194A1A48652100F0A7FE006869
:1032E000FFF7ABFE0400002C02D1200003B0F0BDBC
:1032F00021003800FFF718FE019B03604560089B22
:103300008360099BC36038682100FFF701FFA0427A
:10331000EBD1387D019A2B0000F0E4FB051E01D0B3
:10332000002E04D00C9B002BDFD01D70DDE7386829
:10333000210000F083FDF5E7787403103C7603105C
:1033400070730310F0B5DE4657464E464546E0B56D
:103350008FB00B900021784B8200D458894682E0D0
:1033600029002000FFF7E0FD804602684368921BB9
:10337000BB41002B09DD43461A685B680B9800F0DF
:10338000B1FB00239846002689E0002B01D1002ADA
:10339000F1D10021584600F047FD0700A84215D1A1
:1033A00043461A685B680892099343469E68DB6847
:1033B0009846002E10D029002000FFF7E5FE037884
:1033C00099461B021F432761002068E05B4B5C4A63
:1033D0005C488C2100F02AFE5B4B594A59489021E9
:1033E00000F024FE2369002B77D0BB4219D1069848
:1033F0000799002342428B4100920193089A099B4E
:103400000CA8FFF7D7FD0C9A0D9B00210491013108
:10341000039102954146019100962000FFF748FF75
:1034200016E04A4B464A47489F2100F0FFFD069AA6
:10343000079B002B01D1002A52D120682900FFF7F9
:1034400085FE29002000FFF79FFE037801330370FB
:10345000002323616268BFF35F8F13608AF31088D3
:103460000120002861D00CA8FFF7FEFE0C9E0D9FE6
:1034700000220023089209936268EFF3108A72B663
:103480001368002BFCD0BFF35F8F23689B465D7BE6
:10349000002D00D064E700239846002600206368D2
:1034A000BFF35F8F00221A608AF31088002ED8D0F5
:1034B0004B461F022F4341463800B0470690079104
:1034C0006268EFF3108A72B61368002BFCD0BFF36A
:1034D0005F8F079B002B00DA84E7079B002BA6DD9C
:1034E0002369002BA9D0BB4219D10CA8FFF7BCFE61
:1034F0000C9A0D9B06980799009001910CA8FFF774
:1035000059FD0C9A0D9B0021049101310391029504
:103510004146019100962000FFF7CAFE98E70B4B49
:10352000074A0848A22100F081FD0FB0F0BCBB465D
:10353000B246A946A046F0BD681E0020A074031044
:103540006C76031070730310B8740310C474031006
:1035500010B50A4B5B68002B04D009480A21FFF71D
:10356000C7FC10BD054C074A20682300102100F05D
:10357000D4FB03212000FFF73FFEEEE75C0A0020AA
:10358000C0200020612F001010B5064B5B68002B97
:1035900001D0044810BD044B044A05485C2100F0EA
:1035A00045FDC0465C0A002000750310D07503106D
:1035B00070730310F0B5DE4657464E464546E0B5FB
:1035C0008DB0060090461F00169B9A46179B9946A1
:1035D00018AB1B780793272302AA94466344002262
:1035E0001A7021E001003000FFF7CEFD00783CE0CA
:1035F0000698002B5CD0079B002B59D04946D0473A
:1036000004000D0003000B4359D0002940DB08A83B
:10361000FFF72AFE089A099B0094019508A8FFF776
:10362000C9FC089B9846099F7268EFF3108B72B62D
:10363000136859424B41D9B20691002BF8D1BFF320
:103640005F8F273302AA94466344049300230393B5
:1036500002934B4601935346009342463B00300091
:10366000FFF726FE0400051EBCD17368BFF35F8F11
:10367000002119608BF31088002D17D0272302AA90
:10368000944663441B78002BB2D100022043B0E77C
:1036900000236242AB410092019342463B0008A8DE
:1036A000FFF788FC089B9846099FBDE70120404230
:1036B0000DB0F0BCBB46B246A946A046F0BD069888
:1036C000F6E7F0B5C64600B584B00500884616009A
:1036D0001F000AAB1C78FFF757FF02940197009672
:1036E0002A004346FFF766FF04B080BCB846F0BD31
:1036F000F0B5C64600B504000D004268EFF3108730
:1037000072B61368002BFCD0BFF35F8FEEB2236854
:10371000984631001800FFF781FC00282AD0236961
:10372000AB4213D02D0AEDB231002000FFF72CFD83
:103730000378AB4211D000206368BFF35F8F002293
:103740001A6087F3108880BCB846F0BD0C4B0D4A58
:1037500085210D48490000F069FC3100404600F029
:103760006DFB0028E8D1094B064A12210648FF31BB
:1037700000F05CFC2369AB42DED100232361DBE770
:1037800024750310B8750310707303104875031087
:1037900010B50400FFF7F8FE2100FFF7A9FF10BDE8
:1037A000F0B587B00500100019000E9C13000B4304
:1037B00001D101200021A5600C9B23612060616084
:1037C0000D9B6361CE1737007040020071400B0003
:1037D000921BBB4104A8FFF758FD049A059B0121E9
:1037E00002910194044900912800FFF7E3FEE06094
:1037F000C043C00F07B0F0BDB931001030B587B07D
:1038000004000D00FCF72FFD002820D106225242B3
:10381000D31712196B41AB4202D803D1A24201D98E
:103820000022002304A8FFF7B3FB02A8FFF71CFD4A
:1038300002980399049A059B121A8B41002B0BDC0A
:1038400008D02000290000F0D3F807B030BD14489C
:1038500000F084FC002AF4D0124A04980599002351
:103860000093FFF72EFF002813DAEAE70E4B1A68E1
:10387000EFF3108172B61368002BFCD0BFF35F8F9B
:10388000094B1B68BFF35F8F00221A6081F3108819
:1038900020BF04980599FFF733FB0028E6D0D0E756
:1038A0004C75031039320010C020002000B583B0E1
:1038B00002000B006846FFF7E8FC00980199FFF74B
:1038C0009DFF03B000BD10B5FA2292000023002135
:1038D00002F014FEFFF7EAFF10BD000030B583B020
:1038E00005000C000A4A00230093FFF7EAFE0028B7
:1038F00008DD20BFFFF74CFF28002100FFF700FB89
:1039000003B030BD28002100FFF7FAFAF8E7C046FF
:103910003932001010B5002B02DB0260436010BD8D
:10392000024B034A03483F2100F080FBD072031092
:1039300048770310EC72031070B5EFF305833F2056
:1039400018401038EFF3108C72B6184B1B68002B20
:10395000FBD0BFF35F8F012319008140144A5163EC
:10396000144A12781400C440234213D0104B5C6AEE
:10397000114B8500EB589C4205D3104BEB580D4C76
:103980008A43227007E00A4A031D9B009958995008
:10399000002300E00023BFF35F8F044A0021116081
:1039A0008CF31088002B00D0984770BD280100D000
:1039B000004005400B210020CC2000205C18002096
:1039C00010B50100024A034B1800FEF765FE10BD5A
:1039D000A076031002210020044B5B6A034A906A20
:1039E0001900536A9942F9D17047C046004005401A
:1039F000084B5B6A01E0074B5B6A8B42FBD301E03B
:103A0000044B5B6A8B4203D1024B9B6A8342F7D320
:103A10007047C04600400540F0B583B004000D007B
:103A2000FFF7DAFF06000F0022002B0092197B41FE
:103A3000994202D804D1904202D901225242D317AE
:103A40006846FFF767FF00980199FFF7D1FF03B0C1
:103A5000F0BD000070B504000E00EFF3108572B6E3
:103A60001B4B1B68002BFBD0BFF35F8F002E1CD0BD
:103A70002000FEF729FF174B83420BD019002000CE
:103A8000FEF73CFF01212000FEF70EFF0123A340BB
:103A9000114A1360114BA400E650BFF35F8F0C4B2B
:103AA00000221A6085F3108870BD0C4BA200002123
:103AB000D1500122A2400A490B7893430B7005496B
:103AC0002000FFF74DF800212000FEF7EDFEE4E7AF
:103AD000280100D039390010386005405C180020FA
:103AE0000B210020F0B5DE4600B584B004001500BF
:103AF00001921E000293FFF76FFF03958E4202D8DA
:103B00004ED185424CD9EFF3108B72B6274B1B6810
:103B1000002BFBD0BFF35F8F254A17780125A54006
:103B2000EBB23B431370234B5D63221D920001995E
:103B3000D150214AA100029888501B6A2B4212D111
:103B40001C4B1B6C2B4208D00020BFF35F8F174B20
:103B500000221A608BF3108823E0184B184A19488A
:103B6000C12100F063FAFFF737FF8E4214D802D16B
:103B7000039B834210D80E4B1B78BB420ED00D4BDB
:103B80001D625D631F222240012393400E4A136091
:103B9000074B1F700120D8E70020D6E70120D4E7AB
:103BA000012004B080BCBB46F0BDC046280100D057
:103BB0000B21002000400540CC200020C4760310DB
:103BC0002C770310E876031080E200E0EFF3108C0E
:103BD00072B60B4B1B68002BFBD0BFF35F8F01232A
:103BE0008340084A136208490A789A430A70BFF36F
:103BF0005F8F034B00221A608CF310887047C04619
:103C0000280100D0004005400B21002010B50029FC
:103C100008D0037B8B4205D300684B005B18033B45
:103C2000C01810BD024B034A0348682100F0FEF99A
:103C3000A87303104C780310C4730310F8B5060082
:103C40000C001500FFF7E2FF0700002C0DD0002D3F
:103C500011D0AC4215D029003000FFF7D7FF847097
:103C60003B78002B13D13D70F8BD0A4B0A4A0B4834
:103C70006F2100F0DBF90A4B074A0848702100F079
:103C8000D5F9084B044A0548712100F0CFF943707B
:103C90003D70E9E71074031038780310C473031003
:103CA0001C7403102874031070B506000D00140076
:103CB000002914D0002A14D043688068984700284F
:103CC00006D0220029003000FFF7B8FF280007E0E7
:103CD0002A0021003000FFF7B1FF200000E01000B3
:103CE00070BD0800FCE770B5050000234373013385
:103CF0008373037BC373012406E021002800FFF7D0
:103D000085FF0134E4B24470297BA142F5D8280034
:103D1000FFF77CFF0023437070BD10B50173426054
:103D20008360FFF7E0FF10BDF0B5C64600B50500A3
:103D30000C1E03D1200080BCB846F0BDFFF766FF23
:103D40004678002EF6D031002800FFF75FFF477855
:103D500000239846437021002800FFF757FF434691
:103D60004370320021002800FFF79EFF0400390055
:103D70002800FFF7D9FF020021002800FFF794FF79
:103D80000400D7E7F0B5C64600B504000D001700E3
:103D9000002920D0FFF73AFF4378002B21D1837808
:103DA000002B24D101782000FFF7BEFF06008046DB
:103DB000002F03D0E17B00291FD1E5734346002B80
:103DC00020D129002000FFF721FF0023437030009D
:103DD00080BCB846F0BD0F4B0F4A1048382100F0A8
:103DE00025F90F4B0C4A0D483A2100F01FF90D4BF5
:103DF000094A0A483B2100F019F92000FFF706FFA5
:103E00004570DAE731002000FFF700FF00238370E0
:103E1000D7E7C04660770310247803106877031053
:103E2000A0770310C877031070B504000A00457B23
:103E30002900FFF7A7FF6073280070BD70B506006A
:103E40000C1E40D0437B8B4207D0FFF7DFFE0500FE
:103E50008178002906D1002036E00121FFF7E4FF38
:103E6000012031E03000FFF7D1FE0178A1420DD0F2
:103E70003000FFF7CBFE4178A1420AD00029F7D1EC
:103E8000124B134A1348673100F0D0F86B78037077
:103E900001E06B7843700023AB706B70012221004E
:103EA0003000FFF76FFF0200717B814205D03000C8
:103EB000FFF7FAFE7073012006E0074B044A05483D
:103EC0006D2100F0B3F8002070BDC04614720310DD
:103ED0000C78031068770310EC77031010B5002BF3
:103EE00002DB0260436010BD024B034A03483F21DE
:103EF00000F09CF8D072031008790310EC720310E4
:103F0000F0B585B0050016001F000192FA2292005C
:103F100000230A98002102F0F1FA02000B00921926
:103F20007B419F4202D804D1964202D901225242DB
:103F3000D31702A8FFF7D2FF029A039B2A606B6097
:103F4000280005B0F0BD10B582B00400FFF744FDB5
:103F500002000B006846FFF7C1FF009A019B226038
:103F60006360200002B010BD30B585B004000D00C4
:103F700002A8FFF7E8FF029A039B00952000FFF7D5
:103F8000BFFF200005B030BD10B50400FEF7E0FB18
:103F900001002000FEF7ACFFFF232371BFF35F8F0A
:103FA00010BD10B50400FEF7D3FB01002000FEF7A2
:103FB0009FFFFF23237100236371BFF35F8F10BD49
:103FC000034B9C46614489000160BFF35F8F7047DB
:103FD0004000003410B504000120FEF7C7FB0100CB
:103FE0002000FFF7EDFF10BD00BEFDE703000A4A09
:103FF0001268002A08D0084A1068C318074A9A4273
:1040000006D3054A13607047034A05491160F2E779
:1040100001204042F7E7C046441A00200000042077
:104020000C21002010B5FFF7DFFF000030B583B092
:104030000D001900002A0BD0074B084C0192009389
:104040002B000200200002F0E5FC0120FFF7CCFF6E
:10405000034B1A00F1E7C0462079031030790310B2
:1040600050F5001070B52B4B2B4A1A602B4B2C4A85
:104070001A602C4B9A682A4B9343FAD12A4C01E0E0
:1040800008CC9847294B9C42FAD300F001F9234B06
:10409000274A1A60234B9B68DB43DB01FAD1254B8F
:1040A00040229A675A671A67DA66234C09E0234B65
:1040B000234A24488321FFF7B9FF2000FFF764FF5C
:1040C0000834214B9C4209D22368002BF5D0012BE8
:1040D000EDD12000FFF765FF0834F2E71B4DA9681A
:1040E0001B4CC022200002F0E7FAAC60FCF7BBF8E2
:1040F000002800D000BEFEF71BFBFEF76DFEFFF7A9
:1041000027FA144C01E008CC9847134B9C42FAD391
:1041100070BDC04600E00040BFCDFBFE00F0004097
:10412000FE7F3C0000C000406010002070100020A6
:10413000FFFFFF0100F001404810002060790310EC
:10414000D4790310807903106010002000ED00E0A6
:104150000000002070100020781000200FB400B57F
:1041600083B0084802F024FC049B002B07D005A96B
:104170000191180002F02CFC034802F019FC012008
:10418000FFF732FFC479031070910310F8B5DE46D3
:1041900057464E464546E0B506000F0015000A9A00
:1041A00093424ED31A0E92461B0298460A9A002357
:1041B0004046514601F09EFB81467400A419A400BC
:1041C0002E4B9C4664446368834200D26060331F78
:1041D000DBB29B46012B3AD9C0239B0123438022AB
:1041E00012011A60264BB200D158002905D0586937
:1041F00001F03EFB01300138FDD16D0123685D40C7
:10420000E0222A4080235B0123431A605A46012A98
:1042100028D980239B012343802212011A604B4638
:1042200063604A4600234046514601F063FB144B4D
:10423000B60098510120F0BCBB46B246A946A04644
:10424000F8BD104B104A11482D21FFF7EFFE012F4A
:10425000C2D1C0239B01234303221A60A368DB075A
:10426000FCD5CAE72168794003220A401A60A36896
:104270000125BD401D42FAD0CBE7C046008000407A
:104280009C190020E47903103C7A0310F87903109C
:1042900030B583B00C2000F021F9FEF73FFA00287A
:1042A0000DD0002304E02E4A99002E488850013397
:1042B000092BF8D92A4B2C4A5A6203B030BD2B4B3C
:1042C00000229A6700F07CF9294B01221A60274BE3
:1042D0005B6C012BFBD1274B03221A60234B9B6B9A
:1042E000012BFBD1013300930433234A01212348DE
:1042F00000F054F805230093214A0121214800F0E1
:104300004DF8214B0093002202210420FFF73EFFCD
:104310001E4D00952B00002201210520FFF736FFDE
:10432000104C00942300002200210720FFF72EFFED
:1043300000942300002200210820FFF727FF0A4BEA
:1043400000932300002200210920FFF71FFF0095A2
:104350002B00002200210620FFF718FFADE7C04622
:104360009C190020006CDC021BB70000008000409C
:104370003CB0004030B00040002F6859008002403F
:10438000008C864700C00240001BB70040597307ED
:10439000014B8000C05870479C190020F0B5C646FC
:1043A00000B504000F0090461D000C2001F060FADB
:1043B00006003D4A42443D4B9A4243D843011B1AF2
:1043C0009901C91AC90009188901404601F050FA3B
:1043D0000200103A98235B009A4239D86B1E062BD4
:1043E0003CD8069B013B062B38D8069B9D423BD30D
:1043F00043461B09B3423DD32D04069B1E033543A0
:104400002368002B3CDB2A4B9C424AD080235B0173
:10441000284A1360284A1360284A92681900914379
:10442000FAD12760A060221DC0239B0113432122E3
:104430001A602268002AFCDAE56008221A6080BC53
:10444000B846F0BD1E4B1F4A1F481121FFF7EEFD75
:104450001E4B1C4A1C481921FFF7E8FD1C4B194A4A
:1044600019481C21FFF7E2FD1A4B164A1648222173
:10447000FFF7DCFD184B134A13482521FFF7D6FD43
:1044800022683F231340BB42BDD1A3681B051B0D0F
:104490008342B8D1E368EE22D2021340AB42B2D1DC
:1044A000CDE780239B01B3E780E84BD380F8A932A6
:1044B00000C0024000E0004000F0004000C00040AA
:1044C0004C7A0310887B0310AC7A0310EC7A03104B
:1044D000087B0310547B03106C7B031080239B002C
:1044E0000343014AD362704700800540024B1A68BB
:1044F000024B5A607047C046481E002000800540AD
:1045000010B5174B8022D2051A60164B164A1A6056
:1045100000290AD0154BE022D2041A60002809D1E4
:10452000124B802212061A6010BD0D4BE022D204FD
:104530001A60F3E743011B1A9B00181800010C4B8B
:10454000186080235B04984202D3094B094A1A6021
:10455000FFF7CCFF054B8022D2051A60E4E7C04686
:1045600000B0054008200140FCFF010000A005400C
:10457000481E0020FFFFFF0010B5030010000C4A8A
:104580008024E4051460002B0DD001221343094A56
:10459000094CD461094C5C40146251629362002161
:1045A000FFF7AEFF10BD034B0022DA61F7E7C0460C
:1045B00000B0054000800540D3C007B02D3FF84F44
:1045C000064BAA2212011A602F22DA60044B054A18
:1045D0001A60024B5B68002BFBDA70470040024018
:1045E0000060024000B0FA009A4200D2885470473E
:1045F000704710B5002802D00B684968984710BD75
:104600000100002007E083001B185B00501C0860BD
:104610001078C01830380A681378303BDBB2092BA9
:10462000F1D97047F0B5DE4657464E464546E0B5EF
:1046300083B093461F000C9B9A460D9C0E9B994697
:104640000F9B9B0703D0B8460F00060022E00192A3
:10465000A34688464E46B9460700B44207D2551CC9
:104660004B4641462020B84701342A00F5E73D007B
:104670004F465C46019B9B46B1464646B8463700CE
:104680002E0007E0013C551C5346185D4346390097
:10469000B0472A00002CF5D135003E0047460F9B5D
:1046A0009B0707D4100003B0F0BCBB46B246A94636
:1046B000A046F0BDB0464E46B9462F005D46531B9E
:1046C000B342EFD2541C4B4641462020B84722004B
:1046D000F5E7F0B5CE46474680B585B09446984696
:1046E0000C9D0D9C0EAB1B789946109A119B129E47
:1046F000B7071CD4002B0CD0F7070AD54F46002F64
:1047000002D10C37374204D0013B02E030272F554D
:104710000134944201D21F2CF8D9F70707D59C42E7
:1047200005D21F2C03D830272F550134F5E7F706A3
:1047300012D5770505D4002C03D0944221D09C4299
:104740001FD00F9A102A32D00F9A022A37D01F2C6E
:104750000AD830222A5501341F2C05D84A46002A8F
:1047600033D02D222A5501340396029301940095EB
:1047700043466246FFF756FF05B0C0BCB946B04697
:10478000F0BD621E012C10D00F9F102F0BD0140013
:104790000F9A102AD8D1B206D6D51F2CD4D85822B9
:1047A0002A550134D3E7023CCBE71400C9E7B2062F
:1047B000EED41F2CECD878222A550134C7E71F2CE1
:1047C000D2D860322A550134C1E7720703D52B22B3
:1047D0002A550134C8E73207C6D520222A550134AC
:1047E000C2E7F0B5DE4657464E464546E0B593B0C3
:1047F00081468A46089209931CAB10CB1B789B46D6
:104800001E9D219B9846002C03D1102342469A43BB
:1048100090468023DB0046461E4042461A4212D094
:10482000002C22D000260EE03033D9B2771C0AAB20
:1048300099552900200001F01BF8AC4216D31F2F18
:1048400014D83E0004002900200001F011F8CBB27A
:10485000092BE9D94246920605D54121C918C9B2AA
:104860000A39C9B2E2E76121F8E727004346069317
:10487000209B05931F9B049303955B46029301972E
:104880000AAB0093099B089A51464846FFF721FF5F
:1048900013B0F0BCBB46B246A946A046F0BDF0B589
:1048A000DE4657464E464546E0B597B00A900B9116
:1048B0000C929A46209B9946219F22AA13789B46E8
:1048C000249B0993259C289B98464A463A4302D14B
:1048D0001032934398468022D20045461540434605
:1048E00013420AD04A463A4341D000252E0053468F
:1048F0000D934D46099B9A461BE02E0053460D939F
:104900004D46099B9A4614E03033DAB2731C99463F
:104910000EAB9A55524623002800390000F0EAFFFA
:10492000BC4226D819D04B461F2B1CD84E4605003A
:104930000F00524623002800390000F0DBFFD3B2FD
:10494000092BE1D94246920605D54122D218D2B2AE
:104950000A3AD2B2DAE76122F8E7AA45E3D94E462D
:104960000D9B9A4608E04E460D9B9A4604E00026B1
:1049700002E04E460D9B9A4643460693279B0593BD
:10498000269B0493099B03935B46029301960EAB0F
:10499000009353460C9A0B990A98FFF79AFE17B0AA
:1049A000F0BCBB46B246A946A046F0BDF0B5DE4617
:1049B00057464E464546E0B591B0804689460C9232
:1049C0009A461A9C1B9D22002B002000290001F012
:1049D00020FA002800D0ECE001225242D44B200003
:1049E000290001F011FA002800D0E2E00122524231
:1049F000D04B2000290001F0F1F9002800D0D8E0C8
:104A0000002200232000290001F0E8F9002800D04E
:104A1000E4E0069407958023DB001E9A1A400D926D
:104A20001E9A1A4201D106231C9306980799020088
:104A30000B000892099303000A00024300D1D9E059
:104A4000080D4005400DBC4EB44660440A03120BED
:104A50001E00BA4B13431F0001F0EEF9B84AB94BE0
:104A600001F079F9B84AB94B01F04EF90890099173
:104A70000022B74B3000390001F03DF9B54AB64B82
:104A800001F069F902000B000898099901F03CF95E
:104A900001F0EAF9834601F0CFF906000F00AF4AB2
:104AA000AF4B01F058F90022AE4B01F02DF901F0A7
:104AB000DBF90890AC4AAD4B3000390001F04BF9FE
:104AC00006000F00089801F0B7F9A94AA94B01F0B8
:104AD00042F902000B003000390001F00CF9060029
:104AE0000F0002000B0001F036F90A900B91089BB1
:104AF000A14A9446634400210022089109921B05B3
:104B000009930023089332003B003000390001F084
:104B1000FBF80E900F9132003B0000208021C90568
:104B200001F0E9F806000F000022944B0A980B9957
:104B300001F0F3F80022924B01F0E6F802000B00BE
:104B40000A980B9901F0E9F800228E4B01F0DCF88D
:104B500002000B000A980B9901F0DFF802000B002D
:104B60003000390001F0D0F802000B000E980F99C8
:104B700001F0D3F80022714B01F0C6F8089A099BA6
:104B800001F0E9F806000F0008960997069A079BBE
:104B900001F03AF900282FD001235B429C46E34400
:104BA0000022774B3000390001F0B7F808900991E6
:104BB00022E01E9B04931D9B03931C9B0293009475
:104BC000019553460C9A4946404600F0FFF811B053
:104BD000F0BCBB46B246A946A046F0BD002100226B
:104BE00006910792069480231B069C46AC446346BC
:104BF000079310E700239B465B466333C62B20D800
:104C000004261E9B1B0528D5089A099B19001143F1
:104C10000FD05D4A5D4B0698079901F0EDF800282A
:104C20007AD000225A4B0698079901F0D7F800284D
:104C300072D01C9B5B4506DD5A469B1A013B1C93B8
:104C400003E00526DDE700231C938023DB001E9A8A
:104C50001A431E92002600239B461D9B9E4265D24E
:104C60009F1B02231E9A1A400A921E9A134202D0D8
:104C7000002E00D000275B46002B07D0089A099B26
:104C80000698079901F049F8069007910022002341
:104C90002000290001F0A2F8002800D07CE03D4B64
:104CA0001E9A1340049303971C9B0293069B079C38
:104CB0000093019453460C9A4946404600F086F80A
:104CC000002E00D183E71E9B9B0671D54525441C11
:104CD0005346020049462800C0475A46D317D21807
:104CE0005A4005230593013E0496002303930A339B
:104CF00002935B46DB0F0193009253462200494624
:104D00004046FFF76EFD0A9B002B00D15FE70200D3
:104D100047460C9E1D9D53E01C9B002B9DD00D9B78
:104D2000002B9AD01C9B013B1C9396E7002798E729
:104D3000FFFFEF7FFFFFEFFF01FCFFFF0000F03FF1
:104D4000FB799F501344D33FB3C8608B288AC63F7A
:104D50000000F83F61436F63A787D23F71A37909D1
:104D60004F930A400000E03F1655B5BBB16B0240BF
:104D7000EF39FAFE422EE63FFF03000000002C4010
:104D800000002440000018402D431CEBE2361A3F7F
:104D900080842E41FFF7FFFF069C079D220029001B
:104DA00080200006844661440B000692079376E754
:104DB00065258CE7541C534649462020B8472200FD
:104DC000931BAB42F6D3100001E7C046F0B5DE46B8
:104DD00057464E464546E0B595B006900791934636
:104DE0009946209F1E9A1F9B1000190001F011F890
:104DF000002831D101225242BF4B1E981F9900F06A
:104E0000EDFF002837D101225242BC4B1E981F995A
:104E100000F0FAFF00283DD10022B94B1E981F99DF
:104E200000F0F2FF002850D10022B64B1E981F99C7
:104E300000F0D4FF002848D1002200231E981F99BB
:104E400000F0CCFF002850D100239846229B5B0540
:104E500000D4B6E0002458E0229B0393219B0293E8
:104E600003230193A84B00934B465A460799069893
:104E7000FFF7D8FB0EE1229B0393219B02930423AF
:104E80000193A24B00934B465A4607990698FFF7A9
:104E9000C9FBFFE00423229A1A4022990B4210D04A
:104EA0009B4B002A0FD00422229903912199029151
:104EB000019200934B465A4607990698FFF7B2FBBA
:104EC000E8E0944BEDE70322EEE7229B0493219B5D
:104ED000039302971E9B1F9C009301944B465A46D6
:104EE00007990698FFF762FDD4E01E9A1F9B0020E9
:104EF000002100F000FF1E901F9101239846A5E7B6
:104F00000CAB30221A55013F01341F2C01D8092F58
:104F1000F6D81E981F9900F0A7FF050000F08CFF3F
:104F200002000B001E981F9900F0E5FE7A4BFA0074
:104F30009B181A685B680A920B9300F00CFF0890AC
:104F4000099100F0B5FF060000F072FF02000B00AF
:104F50000898099900F0CFFE0890099100226F4B44
:104F600000F052FF00282ED00136300000F060FF24
:104F700002000B000A980B9900F036FF002801D0C0
:104F800001350026002F2CD1280000F055FF02002B
:104F90000B001E981F9900F0AEFE06000F000022C5
:104FA0005E4B00F01BFF002846D100225B4B300017
:104FB000390000F029FF00283ED1EB073CD5013530
:104FC0003AE0062746E70022544B0898099900F07A
:104FD00005FF0028D6D1002E01D0F307D2D5013627
:104FE000D0E7AA461F2C11D8013F0A21300000F05B
:104FF0003FFC651C30310CAB19550A21300000F024
:1050000037FC092E0ED906002C00EBE755461F2C65
:105010000CD87B1E002F09D00CAA302111551F007F
:105020000134F4E72B0055461C00F0E71F2C03D891
:105030000CAB2E221A5501341F2C10D80A2128003F
:1050400000F0EEFB661C30310CAB19550A2128002C
:1050500000F0E6FB051E01D03400EDE73400032329
:10506000229A1340012B1CD01F2C06D84346002B3C
:1050700032D00CAB2D221A550134229B0393219B75
:10508000029301940CAB00934B465A46079906983D
:10509000FFF7C8FA15B0F0BCBB46B246A946A04619
:1050A000F0BD219B002B13D04346002B02D10C33C3
:1050B00013420FD0219B013B2193190003E00CAB5D
:1050C00030221A5501348C42CED21F2CF7D9CBE7AF
:1050D0002199F8E72199F6E7229B5B0704D50CABF1
:1050E0002B221A550134C8E7229B1B07C5D50CABF0
:1050F00020221A550134C0E7FFFFEFFFFFFFEF7FCB
:1051000065CDCD4165CDCDC1A07B0310A47B03103F
:10511000947B03109C7B0310487D03100000E03F4C
:10512000F0B5DE4657464E464546E0B593B082465A
:10513000884693461193002900D106E30025564680
:10514000119B1878002800D102E3252809D06C1C97
:105150005B462A004146B047119B0133119325005D
:10516000EEE701331193002720E001231F430132B2
:105170001192012418E002231F43013211920124ED
:1051800012E004231F430132119201240CE0082392
:105190001F4301321192012406E010231F43013204
:1051A0001192012400E00024002C09D0119A1378F8
:1051B000203BD9B21029F6D88B00C449CB589F4662
:1051C000119B1A781300303BDBB2092B10D92A2A25
:1051D00013D00B94119B1A782E2A1ED0119A137893
:1051E000683BD9B2122959D88B00B949CB589F4690
:1051F00011A8FFF705FA0B90ECE71C9B1A1D1C92F7
:105200001B68002B04DB0B93119B01331193E1E727
:10521000022217435B420B93F6E78022D20017432A
:105220005A1C11925A781300303BDBB2092B0BD970
:105230002A2AD3D11C9B1A1D1C921C68002C08DB47
:10524000119B01331193C9E711A8FFF7D9F90400A5
:10525000C4E70024F4E780235B003B43511C119119
:1052600051786C2901D01F0018E0C0239B001F4318
:105270000232119212E080233B43511C119151786C
:10528000682901D01F0009E0C0231F430232119298
:1052900004E080235B001F4301321192119B1878B8
:1052A000672816D8252826D30300253BDAB2422AE0
:1052B00021D89300874AD3589F4680239B001F43E1
:1052C00001321192EAE780235B001F430132119201
:1052D000E4E778280FD869280DD30200693AD2B2E2
:1052E000012393407C4A13420FD11A0600D507E2EE
:1052F0005B0500D594E16C1C5B462A004146B04733
:10530000119B0133119325001AE778280AD06228EF
:105310003AD06F283BD058283CD010239F43063BFF
:105320009C4601E010239C46582836D0692803D0BB
:10533000642801D00C2297437A0501D501229743B6
:1053400069282DD064282BD0BA0500D5A2E0FA0533
:1053500000D5C3E07A0600D4D5E01C9A111D1C913B
:105360001168FF220A4005970B9B04930394634640
:1053700002930023019300925B462A0041463000CD
:10538000FFF72FFA05002AE002239C46CCE708230A
:105390009C46C9E710239C46C6E720221743C5E771
:1053A000BA0520D4FA0550D47A0666D51C9A111D88
:1053B0001C911168FF220A40D0171118414005972F
:1053C0000B9B0493039463460293D20F01920091C6
:1053D0005B462A0041463000FFF703FA0500119BA7
:1053E00001331193ACE61C9A073207218A4311005E
:1053F00008311C91116853689946DB170C930D9383
:105400000C9A0D9B100048400E904A4653400F9353
:105410000E980F990C9A0D9B801A99410E900F913E
:1054200008970B9B07930694634604930023059308
:105430004B46DA0F0292009001915B462A004146EA
:105440003000FFF72CFA0500C9E71C9A111D1C91CA
:105450001268D0171118414005970B9B04930394D1
:1054600063460293D20F019200915B462A004146A7
:105470003000FFF7B6F90500B1E73A0605D51C9AEA
:10548000111D1C910023D25E96E71C9A111D1C91E0
:10549000126891E71C9A073207218A4311000831EC
:1054A0001C9108970B9B0793069463460493002373
:1054B0000593029353681268009201935B462A0099
:1054C00041463000FFF7EBF9050088E7AC7B03109D
:1054D000F07B03103C7C0310419000001C9A111DCE
:1054E0001C9105970B9B049303946346029300233E
:1054F0000193136800935B462A0041463000FFF792
:1055000070F905006BE73A0606D51C9A111D1C912F
:1055100012681204120C26E71C9A111D1C911268C5
:1055200021E7462819D01C9B0733072293431A0012
:1055300008321C9204970B9A039202941A685B68D3
:10554000009201935B462A0041463000FFF73EFC83
:105550000500119B01331193F2E520231F43E2E77D
:10556000672801D0472802D180231B011F4345280B
:1055700001D0472801D120231F431C9B073307225A
:1055800093431A0008321C9204970B9A03920294D8
:105590001A685B68009201935B462A00414630001E
:1055A000FFF704FA0500119B01331193C8E50223AC
:1055B0001A003A4091463B421DD001241C9B1A1D03
:1055C0001C926F1C18785B462A004146B0474B4638
:1055D000002B14D1119B013311933D00B0E5571CF2
:1055E0005B4641462020B04723003A005C1C9D42A8
:1055F000F5D81500E2E701232A000B9DF6E73A00F3
:10560000B1460B9E06E0571C5B4641462020C8472A
:105610002C003A00651CA642F5D817004E46D9E783
:105620001C9B1A1D1C921B689A46002C25D1012236
:105630005242534601E001330A001978002902D092
:10564000511E002AF7D152469B1A8022D2003900FF
:1056500011408946174202D0A34200D923000222FA
:105660001100394010913A4209D02A0025005746CE
:105670009A4633004E46994621E02200D9E72A0097
:105680004546A04606E0541C5B4629002020B04752
:105690003B0022005F1C0B999942F4D84446A8466F
:1056A0003B00250057469A4633004E46994606E091
:1056B0001D000137541C5B464146C847220038781C
:1056C000002804D0002EF4D06B1E002DF0D1150060
:1056D00053464E46109A002A03D1119B0133119371
:1056E0002EE50B9F2A0006E0551C5B464146202014
:1056F000B04723002A005C1C9F42F5D81500ECE758
:1057000021233B431C9A111D1C9112680593082309
:1057100004930394083302930023019300925B46A1
:105720002A0041463000FFF75CF80500119B013369
:10573000119305E56C1C5B462A0041462520B047C5
:10574000119B013311932500FAE40B4B9A46F5E4C3
:10575000B2465D450DD35B465A1E5B46414600206E
:10576000D047280013B0F0BCBB46B246A946A046BD
:10577000F0BD2A00F1E7C046F145001010B582B037
:10578000044C009313000A0001002000FFF7C8FC3E
:1057900002B010BDE945001000B585B0029003913C
:1057A00001210448009313004A4202A9FFF7B8FC04
:1057B00005B000BDF345001001480421014B184716
:1057C000900A0020E957001010B5010018231B882B
:1057D00014221088984710BD10B5010018231B88AB
:1057E00016221088984710BDF0B5C64600B50700D0
:1057F0000E0000250123984600E00135B5420AD28B
:10580000AC003C192068FFF7DFFF20600028F4D1CE
:1058100000239846F1E7404680BCB846F0BD000042
:10582000124A936F9B0815D29066D166002905D065
:10583000FFE7FFE7FFE7516F106F704704B5802166
:105840000906C2175140002800D0C84309F0E8FDFE
:10585000002104BDF0B5146E556E576F166FFFF73B
:10586000E3FF1466556657671667F0BD000000D069
:10587000114A936F9B0813D210665166002905D018
:10588000FFE7FFE7FFE7516F106F704704B500288F
:1058900001D00020C04309F0C3FD002104BDC04673
:1058A000F0B5146E556E576F166FFFF7E5FF14666F
:1058B000556657671667F0BD000000D094464E4A03
:1058C000926F9208624601D230E0C046F0B54A4E6F
:1058D000B56F6D08FCD3346E756E776F366F00F060
:1058E00025F89446444A146655665767166762461B
:1058F000F0BDC0469446404A926F9208624601D27B
:1059000058E0C046F0B53C4EB56F6D08FCD3346E20
:10591000756E776F366F00F04DF89446364A146610
:105920005566576716676246F0BDC046002B24DBFC
:1059300011D000293EDA00B5C943404200D10131FF
:1059400000F038F8C943404200D10131DB435242F4
:1059500000D1013300BD002AEBD1002801D100297C
:1059600005D00020C90FC90701D1C043410800B5C7
:1059700009F04EFD0022002300BD00B500290ADB1E
:10598000DB43524200D1013300F014F8C9434042D6
:1059900000D1013100BDC943404200D10131DB4398
:1059A000524200D1013300F005F8DB43524200D1EE
:1059B000013300BD002923D1002B18D1002A0CD0BF
:1059C000BC460D4F38667A6600210023FFE7FFE7EB
:1059D000FFE77A6F386F67467047002801D00748A5
:1059E000010000B509F014FD0022002300BD0200F3
:1059F0000B00002000217047000000D0FFFFFFFFD8
:105A0000002B00D0BFE0130C28D1002AE7D080B4CF
:105A1000114F39667A66FFE7FFE730B4040C7B6FFD
:105A2000396F1B0423433B667A66FFE7FFE7FFE716
:105A3000C04684B27B6F3D6F1B0423433B667A668E
:105A4000FFE7FFE7C04600232C042D0C7A6F386F68
:105A500000196941B0BC7047000000D0F0B5944611
:105A60000025140E01D112020835140F01D11201C4
:105A70000435940F01D192000235D40F01D15200A8
:105A80000135D40B0134254F7C66254C3C660E0C49
:105A900093B2FFE7FFE7FFE73C6F6643360C7703FF
:105AA000BE467343DF0B5B04C01AB941130C73434A
:105AB000DB18C91ACE086643360CB64493B273435A
:105AC0001F0F1B01C01AB941130C73431F0B1B0599
:105AD000C01AB941860D8F023E436643360C092D2C
